:0400000013EF00F00A
:06000800418255EF04F0F7
:100018004180E0CF1EF01EC0E0FF4190100065EF68
:1000280007F0CDC260F0CEC261F0000E0001626F31
:10003800B5EC16F00201D16F200E0001EB6FEE0E49
:10004800EC6F020120EE08F0CF51D926D051DA2208
:10005800DECFEDF0DDCFEEF020EE82F0CD51D926E7
:10006800CE51DA22DECFEFF0DDCFF0F040EC22F017
:100078000201D151D8A443EF00F045EF00F04DEF55
:1000880000F0CDC26BF1CEC26CF184EC15F0020128
:10009800D16F3E0E0001EB6FEE0EEC6F020120EE09
:1000A80008F0CF51D926D051DA22DECFEDF0DDCFDE
:1000B800EEF020EE82F0CD51D926CE51DA22DECFF5
:1000C800EFF0DDCFF0F040EC22F00201D151D8A4DE
:1000D80070EF00F072EF00F07EEF00F0CDC2F4F1A7
:1000E800CEC2F5F1CFC2F6F1D0C2F7F136ECBAF0D4
:1000F8000201D16F5C0E0001EB6FEE0EEC6F020196
:1001080020EE08F0CF51D926D051DA22DECFEDF01B
:10011800DDCFEEF020EE82F0CD51D926CE51DA2295
:10012800DECFEFF0DDCFF0F040EC22F00201D1514C
:10013800D8A4A1EF00F0A3EF00F0B4EF00F0CDC217
:1001480036F1CEC237F1000E0101386F000E396F5B
:10015800000E3A6F000E3B6FBEEC11F00201D16F3A
:10016800D1511200000E386E050E32EC13F0010169
:100178000D6F0D51D8A4C3EF00F0C5EF00F053EF99
:1001880001F07B0E006FFD0E016F73CF02F172CF8D
:1001980003F171CF04F1000E056F000EA2EC1AF006
:1001A800A49EA49C7184000E206E640E1F6E90ECB9
:1001B80018F01FC00BF120C00CF146EF01F03850C9
:1001C800D8B4E9EF00F0EBEF00F001EF01F0710EA9
:1001D8000101006FFD0E016F73CF02F172CF03F1C1
:1001E80071CF04F1000E056F000EA2EC1AF0010E9B
:1001F8000401536F010E01010D6F72AE06EF01F09D
:1002080008EF01F021EF01F0010E0101006FFC0E73
:10021800016F73CF02F172CF03F171CF04F1000EB9
:10022800056F000EA2EC1AF0729E020E0401536FC5
:10023800010E01010D6F4DEF01F00BC162F00CC111
:1002480063F04EEC18F0000162516311D8A42FEF4F
:1002580001F031EF01F046EF01F0110E0101006FDE
:10026800FC0E016F73CF02F172CF03F171CF04F16D
:10027800000E056F000EA2EC1AF0030E0401536F76
:100288001CEF01F0A4AE4BEF01F04DEF01F0E3EFEE
:1002980000F00BC162F00CC163F0AFEC1BF0010180
:1002A8000D511200000E386E050E32EC13F00101EC
:1002B8000D6F0D51D8A463EF01F065EF01F0F3EF76
:1002C80001F0210E006FE20E016F73CF02F172CFC1
:1002D80003F171CF04F1000E056F000EA2EC1AF0C5
:1002E800A49EA49C7180000E206E640E1F6E90EC7C
:1002F80018F01FC00BF120C00CF1E6EF01F03850E8
:10030800D8B489EF01F08BEF01F0A1EF01F0210ED5
:100318000101006FFC0E016F73CF02F172CF03F180
:1003280071CF04F1000E056F000EA2EC1AF0010E59
:100338000401536F010E01010D6F72AEA6EF01F0BB
:10034800A8EF01F0C1EF01F07E0E0101006FFB0E76
:10035800016F73CF02F172CF03F171CF04F1000E78
:10036800056F000EA2EC1AF0729E020E0401536F84
:10037800010E01010D6FEDEF01F00BC162F00CC130
:1003880063F04EEC18F0000162516311D8A4CFEF6E
:1003980001F0D1EF01F0E6EF01F08F0E0101006FDF
:1003A800FB0E016F73CF02F172CF03F171CF04F12D
:1003B800000E056F000EA2EC1AF0030E0401536F35
:1003C800BCEF01F0A4AEEBEF01F0EDEF01F083EF2D
:1003D80001F00BC162F00CC163F0AFEC1BF001013E
:1003E8000D511200000E00017D6F000E7E6F000E91
:1003F8007F6F000E806F010E816F000E826F000EFE
:10040800836F000E846F13EF02F0020E796FD8909D
:100418008433833382338133792F0BEF02F0815198
:10042800755D825176598351775984517859D8A08E
:1004380020EF02F022EF02F009EF02F07DEF02F068
:1004480081517D25796F82517E217A6F83517F2179
:100458007B6F845180217C6F7951755D7A51765913
:100468007B5177597C517859D8A03DEF02F03FEF86
:1004780002F06EEF02F081517D25796F82517E2165
:100488007A6F83517F217B6F845180217C6F7951F2
:10049800755F7A51765B7B51775B7C51785B7DC069
:1004A80079F07EC07AF07FC07BF080C07CF0D89075
:1004B8007C337B337A337933815179257D6F82514F
:1004C8007A217E6F83517B217F6F84517C21806FDD
:1004D80073EF02F0D89080337F337E337D33020E82
:1004E800796FD8908433833382338133792F75EFD2
:1004F80002F08151821183118411D8A486EF02F091
:1005080088EF02F024EF02F07DC075F07EC076F02F
:100518007FC077F080C078F012009B8C0F0139857E
:10052800F19E700ED36E1F0E486F1F0E496F000E9E
:10053800926E300E936E000E946E0F0E956E000E36
:10054800806E000E816E000E826E000E836E929099
:100558009292929493948980898295869584000ECC
:10056800206E0A0E1F6E25EC21F0D6EC1CF0A0ECD4
:1005780023F035EC1EF024EC23F0460E0001EB6F5F
:10058800FE0EEC6F40EC22F0010E15EC1CF0D0ECE6
:1005980022F0AD0E0001EB6FFD0EEC6F40EC22F087
:1005A8004BEC23F0C1EC22F0E8EC20F0110E000136
:1005B800EB6FFE0EEC6F74CFEDF0EE6B40EC22F0BB
:1005C800E40E0001EB6FFE0EEC6F000EEE6F010EF5
:1005D800ED6F40EC22F0530E0001EB6FFE0EEC6F56
:1005E800000EEE6F000EED6F40EC22F0BC0E000125
:1005F800EB6FFA0EEC6F40EC22F066ECE9F0C0EC21
:1006080019F03EEC23F0E806D8A40DEF03F00FEF45
:1006180003F013EF03F0CEEC23F0ACECF2F031EC86
:1006280023F0E806D8A41BEF03F01DEF03F021EF39
:1006380003F0CBEC23F0B1EC22F0C9ECD6F034ECAB
:10064800C8F005EF03F013EF00F026BE2EEF03F01D
:1006580030EF03F031EF03F0319226BE38EF03F0AC
:1006680036EF03F03FEF03F0000E00017D6F010E3F
:100678007C6F43EF03F025C07CF026C07DF023C0DB
:100688007EF024C07FF0000E0001816F4F0E806F56
:10069800000E0501956F7CEF03F08007D8A0810755
:1006A800460E8025D96E050E8121DA6E7AC01FF0BC
:1006B8007BC020F0000E226E0A0E216EE2EC1BF0C9
:1006C8001F50300FDF6E00017C07D8A07D077E0722
:1006D800D8A07F077AC062F07BC063F0000E656F18
:1006E8000A0E646F85EC19F062C07AF063C07BF083
:1006F800000180518111D8B484EF03F086EF03F034
:10070800B0EF03F07A517B11D8A48DEF03F08FEF8F
:1007180003F051EF03F07DBF9CEF03F07D5106E13C
:100728007C05D8B09AEF03F09CEF03F051EF03F08B
:100738007FBFA7EF03F07F5108E17E05D8A0A7EFA0
:1007480003F0A9EF03F0B0EF03F031B2AEEF03F01E
:10075800B0EF03F051EF03F078C06DF079C06EF0A0
:10076800460E80256F6F050E8121706F7EC071F077
:100778007FC072F08AEC13F01200000E0201D66FEF
:1007880021EE4CF0D251D926D351DA22DF50D66F60
:10079800D2C229F1D3C22AF1010E01012B6FC00E7A
:1007A8002C6F0BEC1EF00201D76FD751D8A4DFEFE6
:1007B80003F0E1EF03F0EDEF03F0D2C2CDF2D3C2C4
:1007C800CEF2D80ECF6F020ED06F15EC00F00201FA
:1007D800D76FD751D8A4F3EF03F0F5EF03F002EF8A
:1007E80004F0D2C229F1D3C22AF1FF0E01012B6F06
:1007F800010E2C6F0BEC1EF00201D76FD751D8A455
:1008080008EF04F00AEF04F019EF04F0D2C237F150
:10081800D3C238F1B60E0101396FD4C23AF1D5C24C
:100828003BF188EC1DF00201D76FD751D8A41FEF18
:1008380004F021EF04F02EEF04F0D2C229F1D3C264
:100848002AF1FF0E01012B6F000E2C6F0BEC1EF02E
:100858000201D76FD751D8A434EF04F036EF04F073
:1008680053EF04F0D2C229F1D3C22AF1010E0101DB
:100878002B6FD6C22CF10BEC1EF00201D76FD751AB
:10088800D8A449EF04F04BEF04F053EF04F021EE45
:100898004CF0D251D926D351DA22D6C2DFFFD75134
:1008A8001200E1CF14F0E2CF15F0D9CF16F0DACF6D
:1008B80017F0F3CF18F0F4CF19F0F6CF1AF0F7CFFE
:1008C8001BF0F8CF1CF0F5CF1DF0F2A46EEF04F08A
:1008D80070EF04F079EF04F0F294F29AD9EC1AF080
:1008E800FB0ED76E600ED66EF28A9EA07EEF04F0E5
:1008F80080EF04F08BEF04F09E909D9043EC21F084
:100908006AEC1AF0150ECF6EA00ECE6E9D80A4A0D4
:1009180090EF04F092EF04F097EF04F0A490A39006
:10092800DBEC23F0A3809EAA9CEF04F09EEF04F07A
:10093800A2EF04F09E9AAF5015EC22F0A3ACA7EFFB
:1009480004F0A9EF04F0B3EF04F0A4ACAEEF04F0A8
:10095800B0EF04F0B3EF04F0A49C68EC22F0A3AE6F
:10096800B8EF04F0BAEF04F0C4EF04F0A4AEBFEFA0
:1009780004F0C1EF04F0C4EF04F0A49EDAEC23F015
:100988001DC0F5FF1CC0F8FF1BC0F7FF1AC0F6FF1B
:1009980019C0F4FF18C0F3FF17C0DAFF16C0D9FF5B
:1009A80015C0E2FF14C0E1FF41921100000E0101E1
:1009B8003D6F36C129F137C12AF1830E2B6F000E26
:1009C8002C6F0BEC1EF001013D13010E7EEC21F0A3
:1009D80001013D51D8A4F3EF04F0F5EF04F047EF1F
:1009E80005F0000E386F000E396F000E3A6F000EDA
:1009F8003B6F36C12BF137C12CF1830E2D6F3C0EA6
:100A08002E6F010E2F6F5CEC1DF001013D6F3C5104
:100A1800D8A411EF05F013EF05F037EF05F03D51BD
:100A2800D8B419EF05F01BEF05F01DEF05F037EF0F
:100A380005F0010E3825386F000E3921396F000E88
:100A48003A213A6F000E3B213B6F3B513A110BE1C3
:100A5800D00E385D070E3959D8A035EF05F037EFBD
:100A680005F0FDEF04F03B513A110BE1D00E385D73
:100A7800070E3959D8A043EF05F045EF05F047EFC9
:100A880005F0F90E3D6F36C129F137C12AF1830E01
:100A98002B6F010E2C6F0BEC1EF001013D13880E1D
:100AA8001F6EEF0E206E3DC121F0D8EC23F001013E
:100AB8003D511200213422340001656F6551D8A4DC
:100AC80068EF05F06AEF05F074EF05F0000E1F6E91
:100AD800000E206E000E216E000E226EE1EF05F072
:100AE8001FC060F020C061F021C062F022C063F036
:100AF800200E84EF05F0D89063336233613360339E
:100B0800E82E7FEF05F06051646F218EFF0E1F16EF
:100B1800FF0E2016FF0E2116000E2216960E655F98
:100B280065BF9BEF05F099EF05F0B1EF05F0655152
:100B3800800A970FD8B0A3EF05F0A5EF05F0A7EF4F
:100B480005F06AEF05F0D8902232213220321F32A8
:100B5800653FA7EF05F0C9EF05F01F0E6565B7EF14
:100B680005F0B9EF05F0C1EF05F06AEF05F0D89090
:100B78001F3620362136223665076551D8A4C7EFBF
:100B880005F0C9EF05F0BBEF05F06451D8B4CFEF1D
:100B980005F0D1EF05F0D9EF05F0221E211E201E29
:100BA8001F6C000E2022212222221FC01FF020C00D
:100BB80020F021C021F022C022F01200000E000116
:100BC80075157D6F000E76157E6F800E77157F6F19
:100BD8007F0E7815806F7D517E117F118011D8A40A
:100BE800F8EF05F0FAEF05F002EF06F0000E756F6A
:100BF800000E766F000E776F000E786F000E791575
:100C08007D6F000E7A157E6F800E7B157F6F7F0ECD
:100C18007C15806F7D517E117F118011D8A417EF4C
:100C280006F019EF06F021EF06F0000E796F000EBE
:100C38007A6F000E7B6F000E7C6F78AF26EF06F0A0
:100C480028EF06F031EF06F0756D761FD8B0762BD9
:100C5800771FD8B0772B800E78577CAF36EF06F029
:100C680038EF06F041EF06F0796D7A1FD8B07A2B8D
:100C78007B1FD8B07B2B800E7C57000E751B000E97
:100C8800761B000E771B800E781B000E791B000E5A
:100C98007A1B000E7B1B800E7C1B7951755D7A5187
:100CA80076597B5177597C517859D8B05EEF06F068
:100CB80060EF06F063EF06F0D89064EF06F0D88096
:100CC800120000016A6FBDEF06F066C01FF067C032
:100CD80020F0B40E216EFE0E226E78EC1CF0E3EFCD
:100CE80006F066C01FF067C020F0060E216EFF0EEA
:100CF800226E78EC1CF0E3EF06F066C01FF067C0C8
:100D080020F0C00E216EFE0E226E78EC1CF0E3EF90
:100D180006F066C01FF067C020F0900E216EFC0E32
:100D2800226E78EC1CF0E3EF06F066C01FF067C097
:100D380020F0110E216EFF0E226E78EC1CF0E3EF0E
:100D480006F066C01FF067C020F0E70E216EFD0EAA
:100D5800226E78EC1CF0E3EF06F066C01FF067C067
:100D680020F05B0E216EFF0E226E78EC1CF0E3EF94
:100D780006F000016A51686F696B6951000AD8B4BE
:100D8800C8EF06F0B1EF06F06851000AD8B469EF71
:100D980006F0010AD8B475EF06F0030AD8B481EF5B
:100DA80006F0010AD8B48DEF06F0070AD8B499EF17
:100DB80006F0010AD8B4A5EF06F0B1EF06F0000E70
:100DC80012001EC466F01FC467F020C468F021C476
:100DD80069F01FC066F020C067F021C068F022C02B
:100DE80069F066C060F067C061F068C062F069C011
:100DF80063F0180E06EF07F00001D89063336233F2
:100E080061336033E82E00EF07F06051646F656B63
:100E180064516511D8A413EF07F015EF07F035EF0B
:100E280007F0D8906635606F6735616F6835626F17
:100E38006935636F6051611162116311D8A427EF9E
:100E480007F029EF07F02FEF07F0000E206E020ED3
:100E58001F6E64EF07F0000E206E030E1F6E64EF26
:100E680007F064296511D8A43CEF07F03EEF07F0BE
:100E780060EF07F066C060F067C061F068C062F0BC
:100E880069C063F0090ED8906037613762376337FD
:100E9800E82E47EF07F06051611162116311D8B471
:100EA80058EF07F05BEF07F0010E5CEF07F0000E5C
:100EB8001F6E206A64EF07F0000E206E040E1F6E8E
:100EC8001200B40EF66E110EF76E000EF86E08EEF4
:100ED80000F010EEF3F00900F5CFEEFFE550E15019
:100EE800FAE1300EF66E470EF76E000EF86E05EE5C
:100EF800DCF010EE10F00900F5CFEEFFE550E15000
:100F0800FAE1AE0EF66E460EF76E000EF86E04EEBF
:100F1800A7F010EE17F00900F5CFEEFFE550E1500D
:100F2800FAE1F40EF66EFF0EF76E010EF86E090088
:100F3800F5CF3EF00900F5CF3FF00900F5CF40F0BE
:100F48000AEE00F013EEB3F0EE6AE550E150FCE172
:100F5800E250FAE109EE00F011EE00F0EE6AE55019
:100F6800E150FCE1E250FAE107EE00F0800EEE6A93
:100F7800E806FDE106EE00F0F20EEE6AE806FDE195
:100F880005EE00F0DC0EEE6AE806FDE104EE00F086
:100F98006E0EEE6AE806FDE10301DC6BDB6B02EE28
:100FA800F8F0080EEE6AE806FDE100EE23F01B0EED
:100FB800EE6AE806FDE141904192000191EF02F0EE
:100FC80060C066F061C067F062C068F063C069F035
:100FD80000016407D8A06507642906E16529D8A43B
:100FE800F8EF07F0FAEF07F007EF08F0000E616F6F
:100FF800000E606F5FEF08F0664B672B684B692B3C
:101008006407D8A0650766C0F6FF67C0F7FF000E43
:10101800F86E0800F5500009D8B415EF08F017EF7E
:1010280008F049EF08F068C0F6FF69C0F7FF000E46
:10103800F86E0800F5500009D8B425EF08F027EF3E
:1010480008F049EF08F064516511D8B42EEF08F0A4
:1010580030EF08F049EF08F066C0F6FF67C0F7FF09
:10106800000EF86E0800F5CF1FF068C0F6FF69C0E3
:10107800F7FF000EF86E0800F5501F18D8B447EFB8
:1010880008F049EF08F000EF08F066C0F6FF67C007
:10109800F7FF000EF86E0800F5CF1FF068C0F6FFE6
:1010A80069C0F7FF000EF86E0800F5501F5C606F0E
:1010B800616BD8A06107120042C137F143C138F112
:1010C800200E0101396F4D0E3A6F010E3B6F88EC0F
:1010D8001DF00101486F4851D8A475EF08F077EF6B
:1010E80008F0D8EF08F04D514E11D8A47EEF08F063
:1010F80080EF08F0A3EF08F020EE15F04251D92652
:101108004351DA22DECF49F1DECF4AF1DECF4BF18F
:10111800DECF4CF144C1D9FF45C1DAFF49C1DEFF3A
:101128004AC1DEFF4BC1DEFF4CC1DEFF20EE12F0EC
:101138004251D9264351DA22DF6AD8EF08F04DC16F
:1011480046F14EC147F1D89046374737D8904637D1
:101158004737D8904637473746C149F147C14AF122
:101168004B6B4C6B44C1D9FF45C1DAFF49C1DEFF67
:101178004AC1DEFF4BC1DEFF4CC1DEFF20EE15F099
:101188004251D9264351DA2249C1DEFF4AC1DEFF66
:101198004BC1DEFF4CC1DEFF20EE12F04251D926D2
:1011A8004351DA22010EDF6E4851120001FF01019E
:1011B800000001FF000109000110000111000124D5
:1011C800010125FF01750001FF01014E2C014800B6
:1011D80001302001FF0001300901540001310401F0
:1011E80032030140830146250160000127000150B8
:1011F800060151000152960156080157300161005D
:101208000162000164000165000166A001FF01019F
:1012180022320147140149FF014A0001FF00017A07
:101228000A017B0001782101FF01012334014200FA
:101238000144FF014526014605014040010E060113
:10124800201A01434001FF0001340301354401FF26
:1012580001013104014B09014C05014D0401FF0056
:1012680001440001452001470801482801670001A1
:1012780070040171010172FE01760001770001FF1F
:1012880001010D0101FF000180010101F801FF01C9
:0F129800018E0101000101FF0001800000000034
:1012A800AC0E1F6EEB0E206E000E216ED8EC23F0F4
:1012B8005FC129F160C12AF1000E01012B6F000EF8
:1012C8002C6F0BEC1EF05FC129F160C12AF1FF0EF3
:1012D80001012B6F010E2C6F0BEC1EF05FC129F181
:1012E80060C12AF1000E01012B6F000E2C6F0BEC70
:1012F8001EF05FC129F160C12AF1910E01012B6F27
:10130800000E2C6F0BEC1EF05FC129F160C12AF1B1
:10131800000E01012B6F010E2C6F0BEC1EF05FC14C
:1013280029F160C12AF1FF0E01012B6F000E2C6F0D
:101338000BEC1EF00101616F6151D8A4A6EF09F012
:10134800A8EF09F0B0EF09F021EE4EF05F51D92671
:101358006051DA22030EDF6E6151D8A4B6EF09F0AE
:10136800B8EF09F0C2EF09F05FC150F160C151F167
:10137800000E526FD2ECEEF00101616F7A0E1F6E13
:10138800EE0E206E61C121F0D8EC23F0010161510D
:10139800120078C068F079C069F07EC06AF084EC09
:1013A80017F068C083F069C084F06AC085F06BC02C
:1013B80086F0F40E00018325686F010E8421696FA1
:1013C800000E85216A6F000E86216B6FE80E6C6F28
:1013D800030E6D6F000E6E6F000E6F6FE2EC14F06F
:1013E80068C08BF069C08CF06AC08DF06BC08EF05D
:1013F8008BC07FF08CC080F08DC081F08EC082F0F1
:101408000001D8908233813380337F337AC060F013
:101418007BC061F07CC062F07DC063F0E80E646F51
:10142800030E656F000E666F000E676F10EC1BF001
:1014380000017F516025686F80516121696F81517A
:1014480062216A6F825163216B6F8BC06CF08CC014
:101458006DF08DC06EF08EC06FF0E2EC14F068C0D5
:1014680087F069C088F06AC089F06BC08AF087C0CD
:1014780078F088C079F089C07AF08AC07BF01200D1
:101488000101466F2AC11EF14B0E01011F6F010EAB
:10149800206F040E216F000E226F000E236F000EC6
:1014A800246F4651C9EC20F01EC147F11FC148F115
:1014B80020C149F121C14AF14DC12EF101012F6B23
:1014C800306B316B30C131F12FC130F12EC12FF1AA
:1014D8002E6B4CC132F1336B346B356B33C135F144
:1014E80032C134F1336B326B4BC136F1376B386B29
:1014F800396B36C139F1386B376B366B325136255B
:101508003A6F335137213B6F345138213C6F355195
:1015180039213D6F2E513A253E6F2F513B213F6FA8
:1015280030513C21406F31513D21416F4E513E2594
:10153800426F000E3F21436F000E4021446F000EA2
:101548004121456F2BC1D9FF2CC1DAFF42C1DEFF13
:1015580043C1DEFF44C1DEFF45C1DEFF47C12AF1BA
:1015680048C12BF149C12CF14AC12DF112006CC0C0
:10157800D9FF6DC0DAFFDE6ADE6ADE6ADD6A68C03E
:101588001FF069C020F07B0E216E000E226E8FECDA
:1015980022F000017A6F7A51D8A4D5EF0AF0D7EF7C
:1015A8000AF02FEF0BF07B51D8B4DDEF0AF0DFEF34
:1015B8000AF02FEF0BF020EE15F06851D92669518B
:1015C800DA22DECF76F0DECF77F0DECF78F0DECF2E
:1015D80079F020EE14F06A51D9266B51DA22DECF69
:1015E8006EF0DDCF6FF06EC060F06FC061F0626BBF
:1015F800636B76C064F077C065F078C066F079C038
:1016080067F010EC1BF060C072F061C073F062C04C
:1016180074F063C075F0800E000172256E6F000EC5
:1016280073216F6F000E7421706F000E7521716F3A
:101638006FC06EF070C06FF071C070F0716B6CC0ED
:10164800D9FF6DC0DAFF6EC0DEFF6FC0DEFF70C06D
:10165800DEFF71C0DEFF7A511200070E01014B6FE9
:101668004A69100E4D6F000E4C6F42C137F143C1ED
:1016780038F1280E396F4F0E3A6F010E3B6F88EC28
:101688001DF001014E6F4E51D8A44DEF0BF04FEFF6
:101698000BF0A2EF0BF0FF0E4F154F6F0F0E50150A
:1016A800506F080E505DD8A05CEF0BF05EEF0BF0AA
:1016B80082EF0BF0000E4F251F6EF00E5021206EAA
:1016C800000E226EFA0E216E54EC22F01FC046F175
:1016D80020C047F1000E010147BFFF0E486F496F58
:1016E80044C1D9FF45C1DAFF46C1DEFF47C1DEFF6D
:1016F80048C1DEFF49C1DEFFA2EF0BF04FC11FF06A
:1017080050C120F0000E226EFA0E216E54EC22F029
:101718001FC046F120C047F1000E010147BFFF0E70
:10172800486F496F44C1D9FF45C1DAFF46C1DEFFA2
:1017380047C1DEFF48C1DEFF49C1DEFF4E5112003E
:101748000F013FB9AAEF0BF0ACEF0BF0A4EF0BF0D1
:101758003F813F833ACF60F00001605184EC23F071
:1017680021C0D9FF22C0DAFFDF6E0F013B513A5189
:101778003F0B0001606F20EE02F02150D926225065
:10178800DA22605184EC23F0DF6E0F013B511F0B0E
:101798000001606F20EE01F02150D9262250DA2294
:1017A800605184EC23F0DF6E0F013A513F0B0001CA
:1017B800606F20EE04F02150D9262250DA226051C1
:1017C80084EC23F0DF6E0F013B51070B0001606FC3
:1017D80020EE03F02150D9262250DA22605184EC01
:1017E80023F0DF6E0F013A517F0B0001606F20EE8E
:1017F80006F02150D9262250DA22605184EC23F0D9
:10180800DF6E0F013B517F0B0001606F20EE05F08A
:101818002150D9262250DA22605184EC23F0DF6E61
:101828001200000E0101526F2A0E1F6EEB0E206E81
:10183800000E216ED8EC23F0000E01014E6F000E51
:101848004F6F000E506F000E516F4CC141F14DC1EA
:1018580042F1520E436F010E446FEEEC0CF00101A1
:10186800536F5205D8B43BEF0CF03DEF0CF068EF26
:101878000CF05351D8B443EF0CF045EF0CF047EFA0
:101888000CF068EF0CF0010E4E254E6F000E4F2144
:101898004F6F000E5021506F000E5121516F4CC1F7
:1018A80062F04DC163F0A8EC23F0010151515011D1
:1018B8000BE1D00E4E5D070E4F59D8A066EF0CF025
:1018C80068EF0CF029EF0CF0515150110BE1D00EDC
:1018D8004E5D070E4F59D8A074EF0CF076EF0CF060
:1018E80078EF0CF0F90E536FC50E1F6EED0E206EDB
:1018F80053C121F0D8EC23F0010153511200000E1E
:1019080001016A6FCB0E1F6EE20E206E000E216E73
:10191800D8EC23F0010121EE4CF06351D926645133
:10192800DA22DF506A6F63C158F164C159F165C1A9
:101938005AF166C15BF169C15CF1000E5D6F0EEC96
:10194800FDF001016B6F6B51D8A4ADEF0CF0AFEF58
:101958000CF0BFEF0CF063C158F164C159F167C1D5
:101968005AF168C15BF169C15CF1000E5D6F05EC6D
:10197800FFF001016B6F6B51D8A4C5EF0CF0C7EFF6
:101988000CF0E3EF0CF063C129F164C12AF1010EF8
:101998002B6F6AC12CF10BEC1EF001016B6F6B51C0
:1019A800D8A4D9EF0CF0DBEF0CF0E3EF0CF021EE4C
:1019B8004CF06351D9266451DA226AC1DFFF7F0EE9
:1019C8001F6EE40E206E6BC121F0D8EC23F00101EC
:1019D8006B5112006B0E1F6EE30E206E000E216E0F
:1019E800D8EC23F0010120EEFDF04151D9264251F7
:1019F800DA22DF50456F040E4519D8A406EF0DF022
:101A080008EF0DF02FEF0DF041C136F142C137F16B
:101A1800460E386F010E396F40EC17F001014B6F1D
:101A2800040E4619471148114911D8A41EEF0DF0AC
:101A380020EF0DF028EF0DF043C1D9FF44C1DAFFC4
:101A4800010EDF6E4EEF0DF043C1D9FF44C1DAFF3E
:101A5800DF6A4EEF0DF041C12BF142C12CF1140E9B
:101A68002D6F4A0E2E6F010E2F6F5CEC1DF00101D9
:101A78004B6F4B51D8A443EF0DF045EF0DF04EEFEF
:101A88000DF04AA14AEF0DF04CEF0DF028EF0DF0E4
:101A980020EF0DF0F10E1F6EE40E206E4BC121F009
:101AA800D8EC23F001014B511200000E0001696FC0
:101AB800000E686F0A0E676FA2EF0DF0960E000118
:101AC800626F050E636F68C01FF069C020F0000EDA
:101AD800226E0B0E216E54EC22F0010E1F26000E12
:101AE8002022110E1F240001646FDB0E2020656F79
:101AF80048EC19F0000162516311D8A486EF0DF08B
:101B080088EF0DF0A0EF0DF068C01FF069C020F05D
:101B1800000E226E0B0E216E54EC22F0110E1F24C3
:101B2800F66EDB0E2020F76EF86A000EF822080029
:101B3800F5CF67F0BFEF0DF0684B692B68C01FF059
:101B480069C020F0000E226E0B0E216E54EC22F0BC
:101B5800110E1F24F66EDB0E2020F76EF86A000EB9
:101B6800F8220800F5500A0AD8A4BDEF0DF0BFEF1F
:101B78000DF062EF0DF00001675112005AC137F104
:101B88005BC138F1F80E0101396F620E3A6F010E30
:101B98003B6F88EC1DF00101646F6451D8A4D7EF46
:101BA8000DF0D9EF0DF0E7EF0DF05AC14FF15BC121
:101BB80050F1040E516F5E0E526F010E536FB4EC6C
:101BC8001DF00101646F6451D8A4EDEF0DF0EFEF43
:101BD8000DF029EF0EF062516311D8B4F6EF0DF055
:101BE800F8EF0DF016EF0EF05EC168F05FC169F016
:101BF80060C16AF061C16BF062C16CF063C16DF0E5
:101C080000016E6B6F6BE2EC14F05CC1D9FF5DC133
:101C1800DAFF000168C0DEFF69C0DEFF6AC0DEFFD0
:101C28006BC0DEFF5CC1D9FF5DC1DAFF010110EEB8
:101C38000EF05A51E1265B51E222DECFE6FFDECFFD
:101C4800E6FFDECFE6FFDECFE6FF64511200000EAE
:101C580000016A6F000E696F62C0D9FF63C0DAFFC6
:101C6800DECFF6FFDDCFF7FF000EF86E0800F55067
:101C78002A0AD8A442EF0EF044EF0EF079EF0EF0E6
:101C880062C0D9FF63C0DAFFDE2A000EDD2264C01D
:101C9800D9FF65C0DAFFDFCF66F0020EDE26DFCFA0
:101CA80067F0000EDD2266C0D9FF67C0DAFFDECF1D
:101CB80069F0DDCF6AF08FEF0EF069C01FF06AC0DF
:101CC80020F0000E226E0A0E216E54EC22F0000164
:101CD80068511F24696F000E20206A6F62C0D9FF07
:101CE80063C0DAFFDE2A000EDD2262C0D9FF63C0BE
:101CF800DAFFDECFF6FFDDCFF7FF000EF86E080043
:101D0800F550D00F686F090E68658DEF0EF08FEFF4
:101D18000EF061EF0EF069C062F06AC063F0120065
:101D280078C068F079C069F07CC06AF084EC17F07C
:101D380068C07DF069C07EF06AC07FF06BC080F03B
:101D4800F40E00017D25686F010E7E21696F000E7B
:101D58007F216A6F000E80216B6FE80E6C6F030E97
:101D68006D6F000E6E6F000E6F6FE2EC14F068C0BE
:101D780081F069C082F06AC083F06BC084F07AC0D9
:101D880060F07BC061F00001626B636B81C064F03E
:101D980082C065F083C066F084C067F010EC1BF069
:101DA800F40E00016025686F010E6121696F000E55
:101DB80062216A6F000E63216B6FE80E6C6F030E71
:101DC8006D6F000E6E6F000E6F6FE2EC14F068C05E
:101DD80085F069C086F06AC087F06BC088F085C05E
:101DE80078F086C079F087C07AF088C07BF012005E
:101DF8000101076F01010751D8A405EF0FF007EFA4
:101E08000FF010EF0FF0DE0E0001EB6FFF0EEC6F1E
:101E180040EC22F063EF0FF0000E066F44EF0FF076
:101E28004C0E0001EB6FE20EEC6F010106511E0D26
:101E3800F3CF00F1F4CF01F10751030DF3CF02F115
:101E4800F4CF03F1FD0E0225046FFF0E0321056F89
:101E58007F0E0425F66ED70E0521F76EF86A000E80
:101E6800F82200510900F5240001ED6F010101512C
:101E78000900F5200001EE6F40EC22F00101062B6D
:101E88000751030DF3CF00F1F4CF01F1FF0E002548
:101E9800026FFF0E0121036F7F0E0225F66ED70E2B
:101EA8000321F76EF86A000EF8220900F550065D66
:101EB800D8A061EF0FF063EF0FF014EF0FF01200EE
:101EC800000162516311D8B46CEF0FF06EEF0FF0A0
:101ED80077EF0FF062516311D8A475EF0FF077EF29
:101EE8000FF07CEF0FF0605179EC23F0C9EF0FF0A1
:101EF80020EE0AF06251D9266351DA22DE50DE1054
:101F0800D8B489EF0FF08BEF0FF0A6EF0FF020EEAB
:101F18000AF06251D9266351DA2210EE03F06251B9
:101F2800E1266351E222DE50E65CE650800A686FE3
:101F3800DE50800A6859D8B0A4EF0FF0A6EF0FF072
:101F4800C9EF0FF020EE03F06251D9266351DA226F
:101F5800DECF64F0DDCF65F062C0D9FF63C0DAFF81
:101F6800DECF66F0DDCF67F064516625D96E655126
:101F78006721DA6E60C0DFFF20EE03F06251D926D8
:101F88006351DA22DE2A000EDD221200000E010162
:101F9800426F000E436F000E446F000E456F000E37
:101FA800466F000E476F000E486F000E496F40C124
:101FB80036F141C137F1420E386F010E396FB2EC7C
:101FC800FBF001014A6F4251431144114511D8B445
:101FD800F0EF0FF0F2EF0FF01DEF10F04A51D8B408
:101FE800F8EF0FF0FAEF0FF0FCEF0FF01DEF10F025
:101FF800010E4625466F000E4721476F000E482107
:10200800486F000E4921496F40C162F041C163F039
:10201800A8EC23F00101495148110BE1D00E465DAF
:10202800070E4759D8A01BEF10F01DEF10F0DBEF9B
:102038000FF0495148110BE1D00E465D070E475984
:10204800D8A029EF10F02BEF10F02DEF10F0F90EBB
:102058004A6F4A511200000E216E64C0D9FF65C054
:10206800DAFFDF6A70EF10F063390F0B010B64C001
:10207800D9FF65C0DAFFDF6E92EF10F06339E846EA
:102088001F0B010B64C0D9FF65C0DAFFDF6E92EF4A
:1020980010F06341E8423F0B010B64C0D9FF65C0F3
:1020A800DAFFDF6E92EF10F06345E846030B010B91
:1020B80064C0D9FF65C0DAFFDF6E92EF10F06345A8
:1020C800010B64C0D9FF65C0DAFFDF6E92EF10F034
:1020D800FC0E216E92EF10F0000162511F6E206A13
:1020E8002050000AD8B47BEF10F06CEF10F01F50AE
:1020F800000AD8B438EF10F0010AD8B442EF10F053
:10210800030AD8B44DEF10F0010AD8B458EF10F014
:10211800070AD8B463EF10F06CEF10F021501200EA
:10212800000E0001656F000E646F000E676F000EF1
:10213800666F1F50201021102210D8B4A6EF10F09F
:10214800A8EF10F0F3EF10F0FF0E1F24686FFF0EDA
:102158002020696FFF0E21206A6FFF0E22206B6F0F
:10216800CDEF10F068C060F069C061F06AC062F03D
:102178006BC063F0D890633362336133603360C0FF
:1021880068F061C069F062C06AF063C06BF0664BCA
:10219800672B000E6815606FFF0E6915616FFF0EE3
:1021A8006A15626FFF0E6B15636F605161116211E2
:1021B8006311D8A4E2EF10F0E4EF10F0B6EF10F0DE
:1021C800FF0E6815606F000E6915616F6651636FC9
:1021D800626B60516225646F61516321656F64C0F1
:1021E8001FF065C020F01200000E0001856F7BC053
:1021F80068F07CC069F07DC06AF07EC06BF0080EA4
:102208006C6F000E6D6F000E6E6F000E6F6FE2EC5C
:1022180014F068C086F069C087F06AC088F06BC0A7
:1022280089F07BC060F07CC061F07DC062F07EC048
:1022380063F0080E0001646F000E656F000E666F94
:10224800000E676FFBEC16F060C081F061C082F091
:1022580062C083F063C084F000017751865D7851D5
:102268008759795188597A518959D8A03EEF11F088
:1022780040EF11F044EF11F0CE0E856F59EF11F0D9
:1022880081C07FF0010E806F7F2B4DEF11F0D89049
:1022980080377F2F4BEF11F0000186517525D96EDD
:1022A80087517621DA6E8051DF1285511200000EB7
:1022B8000001616F22BE65EF11F063EF11F06BEF63
:1022C80011F0216C221ED8B0222A010E616F20BEA7
:1022D80072EF11F070EF11F078EF11F01F6C201E03
:1022E800D8B0202A010E611B000E636F000E626FCA
:1022F80021502210D8B483EF11F085EF11F0ADEF23
:1023080011F0010E606F8DEF11F0D8902136223652
:10231800602B22AE92EF11F094EF11F089EF11F0DB
:10232800D8906237633721501F5C22502058D8A0BC
:10233800A0EF11F0A2EF11F0A7EF11F021501F5EEE
:102348002250205A6281D89022322132602F94EF95
:1023580011F06151D8B4B3EF11F0B5EF11F0B9EF46
:1023680011F0626D631FD8B0632B62C01FF063C0A9
:1023780020F01200850E1F6EE80E206E000E216EF2
:10238800D7EC23F0000E01013D6F36C129F137C1AA
:102398002AF10B0E2B6F010E2C6F0BEC1EF00101B6
:1023A8003F6F36C129F137C12AF10B0E2B6F000E92
:1023B8002C6F0BEC1EF001013F1336C12BF137C116
:1023C8002CF1130E2D6F3E0E2E6F010E2F6F5CEC4D
:1023D8001DF001013F133D2B3EC13CF1070E3C1798
:1023E800D8B4F9EF11F0FBEF11F00BEF12F0030E78
:1023F8003D6101EF12F003EF12F00BEF12F03F51C5
:10240800D8B409EF12F00BEF12F0C9EF11F0020E79
:102418003D6511EF12F013EF12F015EF12F0F40E04
:102428003F6F850E1F6EEA0E206E3FC121F0D7EC7C
:1024380023F001013F511200A7C15AF1A8C15BF175
:10244800020E01015C6F68EC87F00101B06FA50E08
:102458001F6EEF0E206EB0C121F0D8EC23F0010101
:10246800B051D8A43AEF12F03CEF12F07DEF12F021
:1024780021EE0FF0A751D926A851DA22DF50AF6F0D
:10248800AF51D8A44AEF12F04CEF12F05FEF12F000
:10249800A9C1D9FFAAC1DAFFDF6A400EAB251F6EBA
:1024A800000EAC21206EFE0E216EFF0E226E78EC1F
:1024B8001CF07DEF12F021EE10F0A751D926A8519B
:1024C800DA22A9C1E1FFAAC1E2FFDFCFE7FF110EBF
:1024D800A725AD6F010EA821AE6F400EAB251F6E6C
:1024E800000EAC21206EADC121F0AEC122F078EC17
:1024F8001CF00101B05112001FC0D9FF20C0DAFF43
:10250800DECF60F0DDCF61F027502810D8A48FEF20
:1025180012F091EF12F095EF12F0B00E276E0E0E3A
:10252800286E0001615107E1060E605DD8B09FEF8B
:1025380012F0A1EF12F0A5EF12F0000E616F060E77
:10254800606F6051275C626F61512858636FB30EEA
:10255800216E0D0E226E2150625D22506359D8A063
:10256800B8EF12F0BAEF12F0C5EF12F02750625D23
:1025780028506359D8A0C3EF12F0C5EF12F0D0EF7E
:1025880012F0000E0401276F0C0E266F000E1F6E4E
:10259800000E206ED8EF12F062C027F063C028F05A
:1025A80027C01FF028C020F01200000E0001616F44
:1025B80020BEE3EF12F0E1EF12F0E9EF12F01F6C2A
:1025C800201ED8B0202A010E616F22BEF0EF12F053
:1025D800EEEF12F0F4EF12F0216C221ED8B0222A8E
:1025E80021502210D8B4FBEF12F0FDEF12F021EFCA
:1025F80013F0010E606F05EF13F0D89021362236E4
:10260800602B22AE0AEF13F00CEF13F001EF13F07A
:1026180021501F5C22502058D8A015EF13F017EF57
:1026280013F01BEF13F021501F5E2250205AD89050
:1026380022322132602F0CEF13F06151D8B427EF0A
:1026480013F029EF13F02DEF13F01F6C201ED8B0F4
:10265800202A1FC01FF020C020F012000101076FC0
:10266800000E0101086F000E206E640E1F6E90ECC4
:1026780018F01FC009F120C00AF16BEF13F009C16F
:1026880062F00AC163F04EEC18F000016251631168
:10269800D8A451EF13F053EF13F06BEF13F0130EB0
:1026A8000101006FF80E016F73CF02F172CF03F1D1
:1026B80071CF04F1000E056F000EA2EC1AF0030EA4
:1026C8000401536F010E0101086F81EF13F073507D
:1026D800010107150009D8A474EF13F076EF13F081
:1026E80043EF13F071CF06F11F0E0617D8A47FEF42
:1026F80013F081EF13F043EF13F009C162F00AC140
:1027080063F0AFEC1BF001010851120031A08FEF0C
:1027180013F091EF13F09BEF13F06FC069F070C0E6
:102728006AF06DC06BF06EC06CF024EC20F0000114
:1027380072BFA1EF13F0A3EF13F0A9EF13F071C06C
:1027480076F072C077F0ADEF13F0000E776F000EE1
:10275800766F000E756F000E746FC0EF13F0000EE9
:10276800616F200E606F6DC062F06EC063F064EC44
:102778000FF00001744B752B7651745D7551800A0A
:10278800736F7751800A7359D8A0CDEF13F0CFEF4C
:1027980013F0B3EF13F031B0D4EF13F0D6EF13F01A
:1027A800E0EF13F06FC069F070C06AF06DC06BF0B5
:1027B8006EC06CF024EC20F01200000E0101C16F15
:1027C800480EB66F0C0EB76FBA0EB86F010EB96F20
:1027D800000EB16F010EB06F7A0E0001EB6FE20EC2
:1027E800EC6F40EC22F0010121EE6AF0B651D926D7
:1027F800B751DA22520EDF6EB8C11FF0B9C120F00E
:1028080072EC1FF00101B26F000EB2BFFF0EB36F82
:10281800B46FB56FB251B311B411B511D8B417EF85
:1028280014F019EF14F01BEF14F0EC0EC16FC15146
:10283800D8A421EF14F023EF14F036EF14F0DB0ED8
:102848000001EB6FF10EEC6F40EC22F0480E010135
:10285800AE6F0C0EAF6FADECB1F00101C16FC1519D
:1028680007EC21F01200000E000160151F6E000E2B
:102878006115206E800E6215216E7F0E6315226E23
:102888001F50201021102210D8A44DEF14F04FEF44
:1028980014F057EF14F0000E606F000E616F000E19
:1028A800626F000E636F000E64151F6E000E6515D3
:1028B800206E800E6615216E7F0E6715226E1F50E2
:1028C800201021102210D8A46CEF14F06EEF14F031
:1028D80076EF14F0000E646F000E656F000E666FE1
:1028E800000E676F645160190FE1655161190CE1C1
:1028F8006651621909E167516319D8B486EF14F07B
:1029080088EF14F08BEF14F0D8908CEF14F0D88087
:102918001200000E0101356F21EE6AF02B51D92605
:102928002C51DA22DF50346F2DC11EF1360E1F6F85
:10293800010E206F345125EC1FF01EC130F11FC16C
:1029480031F120C132F121C133F10101305131118E
:1029580032113311D8B4B3EF14F0B5EF14F0B7EF68
:1029680014F0EC0E356F3551D8A4BDEF14F0BFEF5D
:1029780014F0E0EF14F036512E152F11366F2DC1DB
:102988001CF136C11DF13451FEEC1EF01CC130F1B2
:102998001DC131F11EC132F11FC133F101013051A6
:1029A800311132113311D8B4DCEF14F0DEEF14F02A
:1029B800E0EF14F0EC0E356F35511200000E0001F7
:1029C800706F000E716F000E726F000E736F6C5196
:1029D8006D116E116F11D8B4F4EF14F0F6EF14F016
:1029E8002CEF15F0010E746F00EF15F0D8906C37CE
:1029F8006D376E376F37742B6FAF05EF15F007EF34
:102A080015F0FAEF14F0D8907037713772377337C2
:102A18006C51685D6D5169596E516A596F516B59A6
:102A2800D8A019EF15F01BEF15F024EF15F06C5135
:102A3800685F6D51695B6E516A5B6F516B5B70814A
:102A4800D8906F336E336D336C33742F07EF15F0F6
:102A580070C068F071C069F072C06AF073C06BF042
:102A680012005BEF15F036C12BF137C12CF1500E77
:102A78002D6F3E0E2E6F010E2F6F5CEC1DF00101C5
:102A88003D6F71EF15F036C12BF137C12CF1700E87
:102A98002D6F3E0E2E6F010E2F6F5CEC1DF00101A5
:102AA8003D6F71EF15F0FC0E3D6F71EF15F00101F0
:102AB80038513B6F3C6B3C51000AD8B466EF15F0B7
:102AC80057EF15F03B51000AD8B437EF15F0010A5B
:102AD800D8B447EF15F057EF15F03D51D8A477EF6C
:102AE80015F079EF15F081EF15F03E51B0EC23F0B9
:102AF80039C1D9FF3AC1DAFFDF6E01013D51120039
:102B08006BC11FF06CC120F06D0E216E010E226E9C
:102B180016EC23F001016E6F6E51D8A496EF15F0F4
:102B280098EF15F0A8EF15F06D51D8A49EEF15F0A9
:102B3800A0EF15F0A8EF15F06BC15FF16CC160F163
:102B48000DECE0F001016E6F6E51D8A4AEEF15F0F8
:102B5800B0EF15F0B8EF15F06BC14CF16CC14DF149
:102B6800D2EC15F001016E6F6E51D8A4BEEF15F0CE
:102B7800C0EF15F0D0EF15F06D51D8A4C6EF15F0E1
:102B8800C8EF15F0D0EF15F021EE4EF06B51D926B5
:102B98006C51DA22030EDF6E6E511200000E010135
:102BA800536F000E4E6F000E4F6F000E506F000EE9
:102BB800516F4CC141F14DC142F1530E0101436FB8
:102BC800010E446FEEEC0CF00101526F5251D8B473
:102BD800F0EF15F0F2EF15F0F4EF15F01EEF16F028
:102BE8005305D8A4FAEF15F0FCEF15F0FEEF15F039
:102BF8001EEF16F0010E4E27000E4F2350235123CF
:102C0800515150110BE1D00E4E5D070E4F59D8A00F
:102C180010EF16F012EF16F016EF16F0F90E526FCD
:102C28001EEF16F04CC162F04DC163F0A8EC23F022
:102C3800DDEF15F05251120054C129F155C12AF1A6
:102C4800000E01012B6F565101092C6F0BEC1EF081
:102C58000101576F5751D8A434EF16F036EF16F02C
:102C68003EEF16F054C14CF155C14DF1D2EC15F0C0
:102C78000101576F5751D8A444EF16F046EF16F0EC
:102C880056EF16F054C136F155C137F1000E386FC2
:102C9800000E396F000E3A6F000E3B6FBEEC11F05C
:102CA8000101576F5751D8A45CEF16F05EEF16F08C
:102CB8006AEF16F054C129F155C12AF1000E2B6FA5
:102CC800000E2C6F0BEC1EF00101576F57511200CC
:102CD80036C12BF137C12CF1010E01012D6F3B0ECE
:102CE8002E6F010E2F6F5CEC1DF001013A6F3A5107
:102CF800D8A481EF16F083EF16F09FEF16F021EEBF
:102D08004CF03651D9263751DA223BC1DFFF3BAFB1
:102D180090EF16F092EF16F09AEF16F038C1D9FF3F
:102D280039C1DAFF010EDF6E9FEF16F038C1D9FF07
:102D380039C1DAFFDF6A3A51D8A4A5EF16F0A7EF38
:102D480016F0B3EF16F038C1D9FF39C1DAFF10EE2B
:102D580079F03651E1263751E222DFCFE7FF3A51C9
:102D68001200000E226E980E1F6EEE0E206E000EE0
:102D7800216ED8EC23F0CFEF16F020EE08F060516A
:102D8800D9266151DA2262C0DFFFF1EF16F0F80EA2
:102D9800226EF1EF16F000016251636F646B6451AB
:102DA800000AD8B4DAEF16F0CBEF16F06351000A38
:102DB800D8B4C1EF16F0010AD8B4C1EF16F0020A70
:102DC800D8B4C1EF16F0170AD8B4C1EF16F0010A4B
:102DD800D8B4C1EF16F0CBEF16F0C60E1F6EF00E8A
:102DE800206E22C021F0D8EC23F0225012000001FE
:102DF8006451651166116711D8B405EF17F007EF34
:102E080017F037EF17F0010E1F6E11EF17F0D8907B
:102E180064376537663767371F2A67AF16EF17F0CD
:102E280018EF17F00BEF17F06451605D65516159A9
:102E38006651625967516359D8A025EF17F027EFFB
:102E480017F02FEF17F06451605F6551615B6651B1
:102E5800625B6751635BD89067336633653364336D
:102E68001F2E18EF17F060C060F061C061F062C0FB
:102E780062F063C063F01200580E1F6EE40E206EFD
:102E8800000E216ED8EC23F036C12BF137C12CF19E
:102E9800130E01012D6F400E2E6F010E2F6F5CEC8B
:102EA8001DF001013F6F40C13AF1070E3A173AC1D0
:102EB8003BF13C6B3D6B3E6B38C1D9FF39C1DAFF42
:102EC8003BC1DEFF3CC1DEFF3DC1DEFF3EC1DEFF90
:102ED80040C13AF1180E3A17D8B475EF17F077EFEA
:102EE80017F079EF17F0FA0E3F6F1F0E1F6EE60E00
:102EF800206E3FC121F0D8EC23F001013F511200B0
:102F0800000E00016C6F090E6D6F000E6E6F000EE3
:102F18006F6F6A51606F616B626B636B000E646FF9
:102F2800090E656F000E666F000E676F10EC1BF0E0
:102F380060C074F061C075F062C076F063C077F06D
:102F480074C060F075C061F076C062F077C063F05D
:102F5800770E0001646F060E656F000E666F000E37
:102F6800676F10EC1BF060C070F061C071F062C058
:102F780072F063C073F070C068F071C069F072C01D
:102F88006AF073C06BF01200000E0101366F305109
:102F98002F112E1109E1400E2D5DD8A0D6EF17F0A4
:102FA800D8EF17F0DAEF17F0FC0E366F21EE6AF063
:102FB8002851D9262951DA22DF50356F2AC11CF150
:102FC8002BC11DF12CC11EF12DC11FF12EC120F105
:102FD8002FC121F130C122F13551AAEC20F01CC1DA
:102FE80031F11DC132F11EC133F11FC134F10101AC
:102FF8003151321133113411D8B405EF18F007EFFD
:1030080018F009EF18F0EC0E366F36511200000E6A
:103018000101386F32513111301109E1400E2F5D35
:10302800D8A019EF18F01BEF18F01DEF18F0FC0EE0
:10303800386F21EE6AF02A51D9262B51DA22DF5057
:10304800376F2CC11EF12DC11FF12EC120F12FC1E8
:1030580021F130C122F131C123F132C124F13751BC
:10306800C9EC20F01EC133F11FC134F120C135F184
:1030780021C136F101013351341135113611D8B45B
:1030880048EF18F04AEF18F04CEF18F0EC0E386FD4
:103098003851120000016569666963BF5FEF18F077
:1030A800635107E1030E625DD8B05DEF18F05FEF82
:1030B80018F08BEF18F062C01FF063C020F0000E0C
:1030C800226E030E216E54EC22F00A0E1F24D96ED4
:1030D800040E2020DA6EDE04D8A475EF18F077EF1E
:1030E80018F08BEF18F062C01FF063C020F0000EDC
:1030F800226E030E216E54EC22F00B0E1F24D96EA3
:10310800040E2020DA6EDECF65F0DDCF66F065C0F4
:1031180062F066C063F01200000160696169000E28
:10312800626F6251030D0A0EF324D96E040EF42067
:10313800DA6EDF50D8A4A3EF18F0A5EF18F0C0EFAF
:1031480018F06251030D0A0EF324D96E040EF42010
:10315800DA6E010EDF6E6251030D0B0EF324D96E89
:10316800040EF420DA6E1FC0DEFF20C0DDFF62C04F
:1031780060F0616BC9EF18F0622B020E6265C7EF51
:1031880018F0C9EF18F095EF18F060C01FF061C093
:1031980020F01200010E00016A6F1FC060F020C00D
:1031A80061F021C062F022C063F0070EE1EF18F071
:1031B800D8906333623361336033E82EDCEF18F064
:1031C80060C066F061C067F062C068F063C069F013
:1031D800DC0E606F050E616FD8906635D96E673565
:1031E800DA6ED890D936DA366051D9266151DA22AA
:1031F800DE50DE10DE10DE10D8A405EF19F007EF60
:1032080019F009EF19F0000E6A6F6A5112000101F6
:10321800006F09C401F10101026B0A0E01190211C4
:10322800D8A419EF19F01BEF19F01FEF19F0000ED1
:10323800026F000E016F310E0001EB6FFC0EEC6F98
:1032480004C4EDF0EE6B05C4EFF0F06B06C4F1F0CA
:10325800F26B07C4F3F008C4F4F001C1F5F002C141
:10326800F6F040EC22F001010005D8A43EEF19F079
:1032780040EF19F047EF19F01F0E0001EB6FEA0E4F
:10328800EC6F40EC22F012004EEF19F0624B632B0A
:10329800644B652B62C0D9FF63C0DAFFDF500001C1
:1032A800666F64C0F6FF65C0F7FF000EF86E080091
:1032B800F5506619D8A463EF19F065EF19F071EFAE
:1032C80019F062C0D9FF63C0DAFFDF50D8A46FEFEE
:1032D80019F071EF19F04AEF19F062C0D9FF63C015
:1032E800DAFFDF50666F64C0F6FF65C0F7FF000EB7
:1032F800F86E0800F550665D626F636BD8A06307CF
:103308001200000E0001686F000E676F64516511AE
:10331800D8B491EF19F093EF19F0BBEF19F0010E43
:10332800666F9BEF19F0D89064376537662B65AFE9
:10333800A0EF19F0A2EF19F097EF19F0D8906737BE
:1033480068376451625D65516359D8A0AEEF19F0D2
:10335800B0EF19F0B5EF19F06451625F6551635B26
:103368006781D89065336433662FA2EF19F067C080
:1033780062F068C063F012001F0E0001EB6FEA0EE6
:10338800EC6F40EC22F05D0E0001EB6FFA0EEC6F73
:1033980040EC22F04C0E0001EB6FEC0EEC6F40ECB1
:1033A80022F06C0E0001EB6FEC0EEC6F40EC22F09B
:1033B8008C0E0001EB6FEC0EEC6F40EC22F0AC0EC3
:1033C8000001EB6FEC0EEC6F40EC22F0000E0001F8
:1033D800EB6FEA0EEC6F40EC22F0DE0E0001EB6FB3
:1033E800FF0EEC6F40EC22F01200000120EE0CF012
:1033F8007E51D9267F51DA2280C0E1FF81C0E2FFE9
:10340800DECFE6FFDECFE6FFDECFE6FFDECFE6FF6C
:103418007CC068F07DC069F07EC06AF07FC06BF048
:10342800830E6C6F000E6D6FBBEC0AF00001826FAB
:103438008251D8A422EF1AF024EF1AF030EF1AF0D4
:1034480080C0D9FF81C0DAFF8351DE268451DE2295
:103458008551DE228651DE22825112000101306F31
:103468002AC11EF1350E01011F6F010E206F020ED9
:10347800216F000E226F000E236F000E246F305153
:10348800C9EC20F01EC131F11FC132F120C133F166
:1034980021C134F10101365135C12EF12F6B2EC1F6
:1034A8002FF12E6B2E27000E2F232BC1D9FF2CC1F5
:1034B800DAFF2EC1DEFF2FC1DDFF31C12AF132C193
:1034C8002BF133C12CF134C12DF11200000E036E23
:1034D8000350030D0A0EF324D96E040EF420DA6E9D
:1034E800DE04D8A47AEF1AF07CEF1AF098EF1AF0FD
:1034F8000350030D0B0EF324D96E040EF420DA6E7C
:10350800DE50DE10D8B48BEF1AF08DEF1AF098EF7A
:103518001AF00350030D0B0EF324D96E040EF42099
:10352800DA6EDE06000EDD5A032A020E03649FEFF0
:103538001AF0A1EF1AF06CEF1AF012000001FF6FF9
:10354800C2EC23F0020AD8A4ACEF1AF0AEEF1AF0DE
:10355800C8EF1AF0270E0001EB6FE20EEC6FFFC008
:10356800EDF0EE6B02C1EFF0F06B03C1F1F0F26B1E
:1035780004C1F3F0F46B05C1F5F0F66B00C1F7F088
:1035880001C1F8F040EC22F000C162F001C163F023
:1035980002C164F003C165F004C166F005C167F0BB
:1035A8000001FF517DECE1F012000401092B0A0E25
:1035B8000965E1EF1AF0E3EF1AF00FEF1BF0000EC8
:1035C800096F074B082BE90E075D030E0859D8A0B1
:1035D800F0EF1AF0F2EF1AF00FEF1BF0000E086F81
:1035E800000E076F062B3C0E0665FDEF1AF0FFEF85
:1035F8001AF00FEF1BF0000E066F052B3C0E056549
:1036080008EF1BF00AEF1BF00FEF1BF0000E056F21
:10361800042B0FEF1BF01200000E1F6E000E206E21
:10362800000E216E000E226E000160A11EEF1BF03D
:1036380020EF1BF028EF1BF064511F266551202254
:103648006651212267512222D89064376537663740
:103658006737D890633362336133603360516111E7
:1036680062116311D8A43BEF1BF03DEF1BF018EF7C
:103678001BF01FC060F020C061F021C062F022C0C2
:1036880063F012009A0E1F6EE90E206E000E216E76
:10369800D8EC23F036C12BF137C12CF1090E01010A
:1036A8002D6F38C12EF139C12FF15CEC1DF00101ED
:1036B8003A6F3A51D8A463EF1BF065EF1BF070EF37
:1036C8001BF038C1D9FF39C1DAFFDF50010B38C10F
:1036D800D9FF39C1DAFFDF6E8C0E1F6EEB0E206E3C
:1036E8003AC121F0D8EC23F001013A51120022BE70
:1036F8008AEF1BF022502110201006E11F04D8B0D9
:1037080088EF1BF08AEF1BF0A6EF1BF01FC060F0DC
:1037180020C061F021C062F022C063F00001601F88
:10372800611F621F631F602B000E612362236323E6
:1037380060C01FF061C020F062C021F063C022F0B9
:10374800AEEF1BF01FC01FF020C020F021C021F0F9
:1037580022C022F01200000163BFBEEF1BF06351CC
:1037680007E1030E625DD8B0BCEF1BF0BEEF1BF0A3
:10377800E1EF1BF062C01FF063C020F0000E226E64
:10378800030E216E54EC22F00A0E1F24D96E040E8B
:103798002020DA6EDF6A62C01FF063C020F0000EDE
:1037A800226E030E216E54EC22F00B0E1F24D96EEC
:1037B800040E2020DA6EDE6ADD6A12002150221023
:1037C800D8B4E9EF1BF0EBEF1BF010EF1CF0010E83
:1037D8000001606FF4EF1BF0D89021362236602B81
:1037E80022AEF9EF1BF0FBEF1BF0F0EF1BF02150BE
:1037F8001F5C22502058D8A004EF1CF006EF1CF0E4
:103808000AEF1CF021501F5E2250205AD890223215
:103818002132602FFBEF1BF01FC01FF020C020F0EB
:1038280012000001FF6F530E0001EB6FFD0EEC6FED
:10383800FFC0EDF0EE6B40EC22F0000E726E000E51
:10384800206E010E1F6E25EC21F095809582800E6A
:10385800736E280E726E0001FF51D8A436EF1CF06B
:1038680038EF1CF03CEF1CF0770E746E3FEF1CF045
:103878001D0E746E739EF28CF28EA49EA49CA58E6F
:10388800A58CF18E1200000E01011E6F880E0F6FBD
:103898001E0E106F010E116F010E126F520EF6EC14
:1038A800C3F0F80E0101116F1E0E126F010E136F97
:1038B800020E146F520E79ECB7F0AC0E0001EB6FEC
:1038C800DC0EEC6F1EC1EDF0EE6B1FC1EFF0F06B7C
:1038D80020C1F1F0F26B21C1F3F0F46B22C1F5F0D5
:1038E800F66B40EC22F0120021C062F022C063F0B7
:1038F8001FC064F020C065F000016251606F635121
:10390800616F624B632B60C0F6FF61C0F7FF000E6A
:10391800F86E64C0D9FF65C0DAFF644B652B0F0EE3
:10392800F76403D00800F55005D0F6CFE9FFF7CFCC
:10393800EAFFEF50DF6EDF50D8A4A5EF1CF0A7EF29
:103948001CF080EF1CF012001FC060F020C061F076
:1039580061C060F00001616BFF0E1F14626F636B42
:10396800646B656B602BBEEF1CF0D89062376337D1
:1039780064376537602FB9EF1CF0010E6225666F5A
:10398800000E6321676F000E6421686F000E6521C9
:10399800696F66C01FF067C020F068C021F069C079
:1039A80022F01200550EA76EAA0EA76E0E01BF9147
:1039B800160EF76F060ED76F550EA76EAA0EA76ED6
:1039C800BF81959C958A000EA86EA88AA894000EBF
:1039D8009C6E9C8E9C88000E7C6E7C96600E1F6E82
:1039E800000E206E2BEC22F061C07DFF62C0ABFFA1
:1039F800000160B102D0A89401D0A8841200000E82
:103A0800226E0001635109E1060E625DD8A00FEF36
:103A18001DF011EF1DF01AEF1DF0FC0E226E64C0B0
:103A2800D9FF65C0DAFFDF6A2EEF1DF0625160250D
:103A38001F6E63516121206E1D0E1F24D96E000E6A
:103A48002020DA6EDF50216E64C0D9FF65C0DAFF2E
:103A580021C0DFFF22501200000E0101316F21EE5C
:103A68006AF02751D9262851DA22DF50306F29C150
:103A78001CF12AC11DF12BC11EF1305101EC20F0BF
:103A88001CC12CF11DC12DF11EC12EF11FC12FF13A
:103A980001012C512D112E112F11D8B456EF1DF004
:103AA80058EF1DF05AEF1DF0EC0E316F3151120036
:103AB800000E0101356F21EE6AF02B51D9262C51E9
:103AC800DA22DF50346F2DC11EF12EC11FF12FC134
:103AD80020F1345125EC1FF01EC130F11FC131F126
:103AE80020C132F121C133F10101305131113211BC
:103AF8003311D8B482EF1DF084EF1DF086EF1DF06E
:103B0800EC0E356F35511200000E0101416F21EEA8
:103B18006AF03751D9263851DA22DF50406F39C15F
:103B28002AF13AC12BF13BC12CF1405132EC1AF089
:103B38002AC13CF12BC13DF12CC13EF12DC13FF111
:103B480001013C513D113E113F11D8B4AEEF1DF0BB
:103B5800B0EF1DF0B2EF1DF0EC0E416F41511200B5
:103B6800000E0101596F21EE6AF04F51D9265051CC
:103B7800DA22DF50586F51C12AF152C12BF153C1DB
:103B88002CF1585144EC0AF02AC154F12BC155F1DB
:103B98002CC156F12DC157F101015451551156113F
:103BA8005711D8B4DAEF1DF0DCEF1DF0DEEF1DF091
:103BB800EC0E596F59511200E5C0E9F0E6C0EAF081
:103BC800F5EF1DF0E3C0D0F0E4C0D1F0E90E00013C
:103BD800D26F000ED36FE7C0D4F0E8C0D5F096ECF2
:103BE800B4F0E9C0F6FFEAC0F7FF000EF86E08006F
:103BF800F5500009D8A403EF1EF005EF1EF0E6EF1C
:103C08001DF0000E0001E46F000EE36F1200000EBD
:103C18000101326F21EE6AF02951D9262A51DA22A0
:103C2800DF50316F2BC11CF12CC11DF13151FEEC5D
:103C38001EF01CC12DF11DC12EF11EC12FF11FC197
:103C480030F101012D512E112F113011D8B42FEF61
:103C58001EF031EF1EF033EF1EF0EC0E326F3251D2
:103C68001200A00E0001EB6FFB0EEC6F40EC22F08F
:103C7800949C948E8994000EAD6EAD8AAD94000E1E
:103C8800AC6EAC8EAC88000E7E6E7E96000E1F6EFB
:103C9800010E206E2BEC22F001C17FFF02C1B0FFA4
:103CA800010100B102D0AD9401D0AD849E9A9F8AE3
:103CB8009D8A120062C069F063C06AF060C067F054
:103CC80061C068F078EF1EF069C0D9FF6AC0DAFFFA
:103CD800DF50666F694B6A2B67C0D9FF68C0DAFF8F
:103CE80066C0DFFF674B682B00016407D8A0650733
:103CF800642906E16529D8A484EF1EF086EF1EF03A
:103D080068EF1EF01200EF0E0001F16F000EF26F67
:103D1800EBC0F3F0ECC0F4F0000EF76F000EF66F96
:103D2800000EFE6F000EFD6FF30EE36F000EE46FE2
:103D3800EDC0E5F0EEC0E6F0F10EE76F000EE86FBB
:103D4800E0EC1DF00001F651EB25D96EF751EC219E
:103D5800DA6EDF6A12001FC021F020C022F0B7EF30
:103D68001EF01F4A202A1FC0F6FF20C0F7FF000ED2
:103D7800F86E0F0EF76403D00800F55005D0F6CFA3
:103D8800E9FFF7CFEAFFEF500009D8A4CEEF1EF005
:103D9800D0EF1EF0B5EF1EF021501F5C1F6E2250B1
:103DA8002058206E12008984000E226EECEF1EF05F
:103DB800ADA2E1EF1EF0E3EF1EF0DCEF1EF02250A3
:103DC8001F24D96E000E2020DA6EDF50AE6E222A34
:103DD8002150225CD8A0F3EF1EF0F5EF1EF0DCEFC7
:103DE8001EF0ADA2FAEF1EF0FCEF1EF0F5EF1EF08C
:103DF800899412000101246F010E0101206F000E49
:103E0800216F000E226F000E236F1CC10FF11D0ED3
:103E1800106F010E116F010E126F2451F6ECC3F0F2
:103E28000FC125F110C126F111C127F112C128F1E6
:103E380025C11CF126C11DF127C11EF128C11FF1A2
:103E480012000101266F010E0101226F000E236F7F
:103E5800000E246F000E256F1EC111F11FC112F153
:103E680020C113F1010E146F265179ECB7F011C17E
:103E780027F112C128F113C129F114C12AF127C170
:103E88001EF128C11FF129C120F12AC121F1120018
:103E98003D0E1F6EE50E206E000E216ED7EC23F04E
:103EA8006CC163F16DC164F16EC165F16FC166F1FA
:103EB80070C167F171C168F1010E0101696F83EC8E
:103EC8000CF00101726F200E1F6EE70E206E72C19A
:103ED80021F0D7EC23F001017251120020EE04F01A
:103EE8001F50D9262050DA22010EDF6E20EE05F091
:103EF8001F50D9262050DA22DF6A20EE06F01F5024
:103F0800D9262050DA22040EDF6E1FC0D9FF20C048
:103F1800DAFF600EDE6E130EDE6E000EDE6E000E31
:103F2800DD6E000E1200000E0001791B000E7A1BD8
:103F3800000E7B1B800E7C1B75C060F076C061F0A4
:103F480077C062F078C063F079C064F07AC065F039
:103F58007BC066F07CC067F03FECBFF060C075F0D6
:103F680061C076F062C077F063C078F01200980EF6
:103F78001F6EDD0E206E000E216ED8EC23F09EC160
:103F880062F19FC163F1A0C164F1A1C165F1A2C151
:103F980066F1A3C167F124ECCEF00101A46FCF0E46
:103FA8001F6EDD0E206EA4C121F0D8EC23F00101B4
:103FB800A4511200510E1F6EE20E206E000E216EEB
:103FC800D8EC23F041C3F1F242C3F2F243C3F3F257
:103FD80044C3F4F245C3F5F246C3F6F200EC9FF091
:103FE8000201F76F310E1F6EE40E206EF7C221F04A
:103FF800D8EC23F00201F75112000101206F0101F2
:104008001E51256F1DC126F11CC10FF1250E106F21
:10401800010E116F020E126F2051F6ECC3F00FC1A2
:1040280021F110C122F111C123F112C124F121C1E2
:104038001CF122C11DF123C11EF124C11FF1120080
:10404800000E226E000E216E35EF20F020C060F0C9
:10405800616B6BC062F06CC063F064EC0FF0214AD6
:10406800222A215000016925D96E22506A21DA6E70
:10407800DF50206E2050D8A444EF20F046EF20F007
:104088002AEF20F01200010120EE18F00051D92685
:104098000151DA22DF50226F020E00016B6F010E10
:1040A8006C6F0101225163EC23F0240E0001EB6FC9
:1040B800F40EEC6F22C1EDF0EE6B020EEF6F010E05
:1040C800F06F40EC22F01200440E1F6EE70E206ED7
:1040D800000E216ED8EC23F03FC136F140C137F114
:1040E80041C138F142C139F143C13AF135EC15F01B
:1040F8000101446F560E1F6EE90E206E44C121F077
:10410800D8EC23F0010144511200000176BF97EF6B
:1041180020F0765106E17505D8B095EF20F097EFBD
:1041280020F0A5EF20F075C077F076C078F0771F03
:10413800781F774B782B77C075F078C076F0A9EFA9
:1041480020F075C075F076C076F012000101236F7B
:104158001CC10FF11DC110F11EC111F11FC112F1D7
:1041680001012351F6ECC3F00FC124F110C125F170
:1041780011C126F112C127F124C11CF125C11DF17D
:1041880026C11EF127C11FF112000101256F1EC1B2
:1041980011F11FC112F120C113F121C114F1010164
:1041A800255179ECB7F011C126F112C127F113C1DD
:1041B80028F114C129F126C11EF127C11FF128C118
:1041C80020F129C121F11200000E1F6E1F50030DAE
:1041D8000A0EF324D96E040EF420DA6EDF6A1F503B
:1041E800030D0B0EF324D96E040EF420DA6EDE6A8A
:1041F800DD6A1F2A020E1F6404EF21F006EF21F08A
:10420800EAEF20F012000101206F000E00016B6F31
:10421800010E6C6F010120516EEC23F0F30E0001CA
:10422800EB6FF50EEC6F010120510001ED6FEE6BA5
:10423800EDBFEE07000EEF6F010EF06F40EC22F0BD
:104248001200000E0001616F000E606F37EF21F061
:104258009C0E216ED70EE82EFED7212EFCD700F03B
:104268000001604B612B1F50605D20506159D8A040
:1042780040EF21F042EF21F02CEF21F01200020173
:10428800FA4BFB2B3F063F50D8A44DEF21F04FEFE0
:1042980021F053EF21F00A0E3F6E010E3A6E4006F0
:1042A8004050D8A45AEF21F05CEF21F060EF21F0E4
:1042B800640E406E010E396E12000001606F000E30
:1042C8000001616F60C062F073EF21F06251202439
:1042D800D96E000E2120DA6EDF506127622B1F5045
:1042E800625DD8A07AEF21F07CEF21F06AEF21F02F
:1042F8006151120000016F6F00016F51D8B487EF50
:1043080021F089EF21F098EF21F0A80E626FFF0EDF
:10431800636F000E646F000E656F000E666F000E0F
:10432800676F050E7DECE1F06FC03CF012001F5086
:10433800201021102210D8B4A4EF21F0A6EF21F00C
:10434800AEEF21F0000E1F1A000E201A000E211ADF
:10435800800E221A1FC01FF020C020F021C021F0BB
:1043680022C022F0120037C128F138C129F1B00E5D
:1043780001012A6F39C12BF13AC12CF1060E2D6FBC
:10438800000E2E6F000E2F6F000E306FC8EC17F066
:1043980001013B6F3B51120039C12AF13AC12BF19F
:1043A800B00E01012C6F3BC12DF13CC12EF1060E60
:1043B8002F6F000E306F000E316F000E326F0BEC56
:1043C80018F001013D6F3D5112003606000E3424ED
:1043D800D96EDA6A070EDA22DF501F6E342A800E91
:1043E8003464F9EF21F0FBEF21F0FDEF21F0000E2E
:1043F800346E1F501200E00E1F24216EFF0E202085
:10440800226E22500AE15F0E215CD8A00EEF22F046
:1044180011EF22F0010E12EF22F0000E1F6E206A3B
:104428001200016E000E3524D96EDA6A070EDA2200
:1044380001C0DFFF362A352A800E356426EF22F0C8
:1044480028EF22F02AEF22F0000E356E12001FC06E
:10445800D9FF20C0DAFFDF6A20EE01F01F50D9260D
:104468002050DA22DF6A20EE02F01F50D9262050B1
:10447800DA220C0EDF6E1200ED0E0001FD6F000E49
:10448800FE6F000EE36F000EE46FEBC0E5F0ECC0CA
:10449800E6F0FD0EE76F000EE86FE0EC1DF012008D
:1044A8001F502102F3CF60F0F4CF61F01F502202B9
:1044B800F3500001612720502102F350612760C0AA
:1044C8001FF061C020F01200170E076EFB0E086E79
:1044D80073CF09F072CF0AF071CF0BF0000E0C6E9B
:1044E800000EE6ECE2F0A39EA39C010E386E1200CB
:1044F80001500302F3CF05F0F4CF06F00150040297
:10450800F350062602500302F350062605C001F0B8
:1045180006C002F0120020EE12F01F50D9262050DB
:10452800DA22DF500001606F21C0D9FF22C0DAFF14
:1045380060C0DFFF000E1200A4BAA5EF22F0A7EFBB
:1045480022F0ADEF22F0000E206E000E1F6EB0EFCD
:1045580022F0AACF1FF0206A120004012C512D115D
:10456800D8B4B9EF22F0BBEF22F0C0EF22F02C074D
:10457800D8A02D0747EC1CF01200000ECD6ECD9C84
:10458800CD9ECD88CD9ACD82CD80150ECF6EA00E52
:10459800CE6E9E909D801200000E0401046F000EE6
:1045A800056F000E066F000E086F000E076F000EF5
:1045B800096F1200B8C1B1F1B9C1B2F1BAC1B3F112
:1045C800BBC1B4F185ECF9F00101BC6FBC5112001C
:1045D800C1C1A5F1C2C1A6F1C3C1A7F1C4C1A8F167
:1045E80089ECA7F00101C56FC551120051C142F114
:1045F80052C143F153C144F154C145F131EC0BF0C0
:104608000101556F555112009AC160F19BC161F1CA
:104618009CC162F19DC163F1FAECD9F001019E6F72
:104628009E51120020EE08F01F50D9262050DA22A1
:1046380021C0E1FF22C0E2FFDFCFE7FF000E12003A
:10464800000EE8CF44FC000EE8CF45FC000EE8CF92
:1046580046FC000EE8CF47FC12003904D8A437EF17
:1046680023F039EF23F03CEF23F0010E3DEF23F068
:10467800000E12003A04D8A444EF23F046EF23F0CA
:1046880049EF23F0010E4AEF23F0000E1200000E4E
:10469800D56ED58ED59CD586FB0ED76E600ED66EA0
:1046A800F294F28A120030313233343536373839E1
:0D46B800616263646566286E756C6C290094
:1046C60000016D6F6BC066F06CC067F000016D5144
:1046D60065EC06F0120000016D6F6BC066F06CC0F1
:1046E60067F000016D519DECE5F012001F6EA8A267
:1046F6007FEF23F081EF23F07AEF23F01FC0A9FFAD
:104706001200206E20C01FF00F0E1F1620380F0B50
:104716000A0DF3501F241200206E20C01FF0D890FF
:104726001F321F04216E215012000A0000000500EE
:1047360000000000000005000000CF0E0001EB6F36
:10474600F60EEC6F40EC22F01200000E206E010E09
:104756001F6E25EC21F0000E12001F6E1F50020D79
:10476600F350020F206E2050120007C41FF008C439
:1047760020F0120007C401F008C402F01200040180
:104786002F511200040109511200040106511200B2
:10479600000E396E1200000E3A6E12000401095125
:1047A600120004010651120012001200120012003B
:0247B6001200EF
:10D73A00000101000B0102000B0201000C020200B1
:10D74A000C03010108030201080101000B01020098
:10D75A000B0401000C0402000C050000004D5347A5
:10D76A00454E4400005245532D53540000434F4D3B
:10D77A002D535400003BD9098ADB0401FF000180C4
:10D78A000101FF0101000001FF01014F0201FF0E2B
:10D79A0001000301018401020A01030301040801D3
:10D7AA0005C801060301078D0108080109C6010A17
:10D7BA0001010B02010C00010DD5010E18010F1217
:10D7CA000110010111820112000113D5011418017F
:10D7DA00151301160301178601180A011909011AFE
:10D7EA0008011BC2011C03011D8F011E0A011F062D
:10D7FA000120010121020122000123D5012418017F
:10D80A0025220126010127820128000129D5012AA2
:10D81A0018012B0B012C28012D78012E28012F919C
:10D82A0001300001310B01320001330B01340001D8
:10D83A0035A10136000137A0013800013904013A47
:10D84A0028013B30013C0C013D04013E0F013F79A8
:10D85A0001402801411E01422F0143870144000172
:10D86A00450B01460001470B0148000149A7014A3F
:10D87A0000014BA6014C00014D04014E01014F006D
:10D88A00015000015180015209015308015401015C
:10D89A00550001560F015779015809015905015AD6
:10D8AA0000015B60015C05015DD1015E0C015F3C1A
:10D8BA000160000161D001620B0163030164280168
:10D8CA00651001662A01673901680B016902016A5C
:10D8DA0028016B10016C2A016D61016E0C016F0049
:10D8EA0001700F01717901720001730B017400015B
:10D8FA00750B0176000177A10178000179A0017A00
:10D90A0000017B0401FF0401791D017B2701960EAA
:10D91A000197FE0198030199EF019A02019B4401C4
:10D92A00730701700101FF0101000101FF000000FE
:10D93A00000D0A564C3533204D454E554500000022
:10D94A0000000000000000000000000000000020AD
:10D95A00312E564C35335F494E49540000000000C1
:10D96A000000000000000000000000000020322E2D
:10D97A00434F4E5449494F55532052414E47494E01
:10D98A00470000000000000000000020332E534929
:10D99A004E474C452052414E47494E470000000031
:10D9AA0000000000000000000020342E53494E47BA
:10D9BA004C452052414E47494E47204841000000FD
:10D9CA000000000000000020352E53494E474C4508
:10D9DA002052414E47494E4720485300000000005C
:10D9EA00000000000020362E53494E474C45205275
:10D9FA00414E47494E47204C5200000000000000AB
:10DA0A0000000020372E564C3533204461746120C3
:10DA1A00444953504C4159000000000000000000E6
:10DA2A000020722E455849540000000000000000F2
:10DA3A000000000000000000000000000000005389
:10DA4A005441525400000000000000000000000091
:10DA5A00000000574954455F414444524553535FBF
:10DA6A0054580000000000524541445F414444526A
:10DA7A004553535F54580000000000494E4445582E
:10DA8A005F5458000000000000000000000000443D
:10DA9A004154415F5458000000000000000000009B
:10DAAA0000000053544F5000000000000000000026
:10DABA000000000000000053555350454E4400003A
:10DACA0000000000000000000000005245535441CD
:10DADA005254000000000000000000000000005244
:10DAEA004541440000000000000000000000000062
:10DAFA00000000454E440000000000000000000045
:10DB0A0000000000000000007274630000000000C2
:10DB1A00000001726567000000000000000269321F
:10DB2A00630000000000000003766C35330000003B
:10DB3A000000000470623200000000000000056C62
:10DB4A006F6700000000000000066C6F676F666672
:10DB5A0000000000076C6F676F6E0000000000088D
:10DB6A006C6F67636C720000000009727334383599
:10DB7A0000000000000A6E6F6E65000000000000E1
:10DB8A000D0A5253343835204D454E554500000094
:10DB9A00000000000000000000000000000020312A
:10DBAA002E5258204D4F444500000000000000004E
:10DBBA0000000000000000000000000020322E5487
:10DBCA0058204D4F444500000000000000000000AE
:10DBDA000000000000000000000020722E45584995
:10DBEA0054000000000000000000000000000000D7
:10DBFA000000000000000000564C35334C3058201D
:10DC0A004150492056657273696F6E204572726F72
:10DC1A00723A20596F7572206669726D7761726502
:10DC2A00206861732025642E25642E2564202872BD
:10DC3A0065766973696F6E202564292E2054686998
:10DC4A0073206578616D706C652072657175697293
:10DC5A0065732025642E25642E25642E0A0020690A
:10DC6A0032635F77726974654D756C7469284164B3
:10DC7A00643D307825782C496E64783D3078257873
:10DC8A002C436E743D25642C44743D307825782CE1
:10DC9A00307825782C307825782C30782578290D1D
:10DCAA000A006473745B305D3D307825782C6473A8
:10DCBA00745B315D3D307825782C6473745B325D1A
:10DCCA003D307825782C6473745B335D3D3078255C
:10DCDA00782C6473745B345D3D307825780D0A00C6
:10DCEA00564C35334C30585F7365745F6D6561739C
:10DCFA007572656D656E745F74696D696E675F6272
:10DD0A0075646765745F6D6963726F5F7365636F6E
:10DD1A006E64732829535441525400206932635F58
:10DD2A0077726974654D756C7469284164643D3015
:10DD3A007825782C496E64783D307825782C436EA6
:10DD4A00743D25642C44743D307825782C30782530
:10DD5A0078290D0A00564C35334C30585F73657478
:10DD6A005F6D6561737572656D656E745F74696DFB
:10DD7A00696E675F6275646765745F6D6963726F08
:10DD8A005F7365636F6E64732829454E4400564C71
:10DD9A0035334C30585F5365744D656173757265E0
:10DDAA006D656E7454696D696E67427564676574F2
:10DDBA004D6963726F5365636F6E647328292053CC
:10DDCA005441525400564C35334C30585F536574A5
:10DDDA004D6561737572656D656E7454696D696EB2
:10DDEA00674275646765744D6963726F5365636FE3
:10DDFA006E6473282920454E4400206932635F7798
:10DE0A00726974654D756C7469284164643D307833
:10DE1A0025782C496E64783D307825782C436E74C9
:10DE2A003D25642C44743D30782578290D0A00205C
:10DE3A0050494520202020203D2030782530327856
:10DE4A002C203078253032782C20307825303278E2
:10DE5A002C203078253032782C20307825303278D2
:10DE6A000D0A002050495220202020203D203078E1
:10DE7A00253032782C203078253032782C203078B2
:10DE8A00253032782C203078253032782C203078A2
:10DE9A00253032780D0A00204950522020202020B7
:10DEAA003D203078253032782C2030782530327871
:10DEBA002C203078253032782C2030782530327872
:10DECA002C203078253032780D0A0043616C6C20A2
:10DEDA006F6620564C35334C30585F506572666F0A
:10DEEA00726D53696E676C6552616E67696E674DD4
:10DEFA006561737572656D656E740D0A004572729F
:10DF0A006F72203A20436F6D6D616E64202F20522C
:10DF1A006573706F6E73204461746120656E64204E
:10DF2A00747874206E6F6E65200D0A000D0A434FD7
:10DF3A004D4D414E44204D455353414745203A20CB
:10DF4A004D61737465722D3E416E6F7468657220FF
:10DF5A00446576696365200D0A200020204D6561BD
:10DF6A00737572656D656E7454696D696E67427515
:10DF7A00646765744D6963726F5365636F6E64732A
:10DF8A00203D20307825750D0A00564C35334C302B
:10DF9A00585F436865636B416E644C6F6164496E98
:10DFAA007465727275707453657474696E677328D8
:10DFBA002920535441525400506172743250617294
:10DFCA00744F666673657441646A7573746D656EC1
:10DFDA00744E564D4D6963726F4D65746572203D7E
:10DFEA002025640D0A00202050726F6475637449FD
:10DFFA00645B564C35334C30585F4D41585F53542F
:10E00A0052494E475F4C454E4754485D203D2025B6
:10E01A00730D0A002020496E7465724D656173752F
:10E02A0072656D656E74506572696F644D696C6C6A
:10E03A00695365636F6E6473203D20307825750DD2
:10E04A000A004572726F7220657870656374656440
:10E05A002063757420312E312062757420666F75C5
:10E06A006E64206375742025642E25640D0A00569B
:10E07A004C35334C30585F706572666F726D5F72E3
:10E08A0065665F737061645F6D616E6167656D651A
:10E09A006E74282920535441525400564C35334C3F
:10E0AA0030585F436865636B416E644C6F616449C5
:10E0BA006E7465727275707453657474696E677381
:10E0CA00282920454E440020205854616C6B436F28
:10E0DA006D70656E736174696F6E52616E67654DBE
:10E0EA00696C6C694D65746572203D2030782578BD
:10E0FA000D0A00206932635F726561644D756C7444
:10E10A0069284164643D307825782C496E64783DED
:10E11A00307825782C436E743D2564290D0A000D4C
:10E12A000A524553504F4E53204D4553534147458C
:10E13A00203A204D7920446576696365202D3E207A
:10E14A004D61737465720D0A200043616C6C206F17
:10E15A006620564C35334C30585F506572666F7284
:10E16A006D526566537061644D616E6167656D6578
:10E17A006E740D0A000D0A434F4D4D414E44204D19
:10E18A00455353414745203A204D61737465722DBA
:10E19A003E4D7920446576696365200D0A20005654
:10E1AA004C35334C30585F706572666F726D5F72B2
:10E1BA0065665F737061645F6D616E6167656D65E9
:10E1CA006E74282920454E4400564C35334C30583D
:10E1DA005F706572666F726D5F70686173655F63A9
:10E1EA00616C6962726174696F6E282920535441A7
:10E1FA00525400564C35334C30585F47657452615F
:10E20A006E67696E674D6561737572656D656E746B
:10E21A0044617461282920535441525400493D25D0
:10E22A00642C533D253032782C43313D25303278E9
:10E23A002C43323D253032782C42463D2530327807
:10E24A00202025730D0A00564C35334C30585F5048
:10E25A006572666F726D526566537061644D616E68
:10E26A006167656D656E74282920535441525400C4
:10E27A00564C35334C30582050414C20436F6E7405
:10E28A00696E756F75732052616E67696E67206576
:10E29A0078616D706C650D0A00564C35334C3058F8
:10E2AA005F706572666F726D5F70686173655F63D8
:10E2BA00616C6962726174696F6E282920454E44E7
:10E2CA0000564C35334C30585F706572666F726D0C
:10E2DA005F7265665F63616C6962726174696F6EB1
:10E2EA00282920535441525400564C35334C305847
:10E2FA005F706572666F726D5F7668765F63616C78
:10E30A006962726174696F6E2829205354415254AC
:10E31A0000564C35334C30585F5374617469634905
:10E32A006E69743A4F73634672657175656E637987
:10E33A004D487A3D25750D0A00564C35334C3058F8
:10E34A005F47657452616E67696E674D6561737583
:10E35A0072656D656E7444617461282920454E4466
:10E36A0000564C35334C30585F4765744D656173C0
:10E37A007572656D656E7444617461526561647924
:10E38A0028292053544152540043616C6C206F6613
:10E39A0020564C35334C30585F506572666F726D3B
:10E3AA0052656643616C6962726174696F6E0D0AC7
:10E3BA000020205854616C6B436F6D70656E7361F9
:10E3CA0074696F6E526174654D656761437073203D
:10E3DA003D20307825750D0A004572726F72203A19
:10E3EA0020526573706F6E73204461746120737478
:10E3FA0061727420747874206E6F6E65200D0A0045
:10E40A00564C35334C30585F44617461496E6974B7
:10E41A00323A4F73634672657175656E63794D481A
:10E42A007A3D25750D0A00564C35334C30585F50ED
:10E43A006572666F726D526566537061644D616E86
:10E44A006167656D656E74282920454E4400564CF7
:10E45A0035334C30585F476574496E74657272750E
:10E46A0070744D61736B53746174757328292053EA
:10E47A005441525400564C35334C30585F706572D3
:10E48A00666F726D5F7265665F63616C6962726105
:10E49A0074696F6E282920454E4400564C35334C1A
:10E4AA0030585F706572666F726D5F7668765F630B
:10E4BA00616C6962726174696F6E282920454E44E5
:10E4CA0000564C35334C30585F44617461496E696B
:10E4DA00743A4F73634672657175656E63794D4818
:10E4EA007A3D25750D0A00564C35334C30585F4736
:10E4FA0065744D6561737572656D656E744461749A
:10E50A00615265616479282920454E4400564C358C
:10E51A00334C30585F53657453657175656E636526
:10E52A0053746570456E61626C65282920535441A5
:10E53A00525400564C35334C30585F506572666FF2
:10E54A00726D52656643616C6962726174696F6E5D
:10E55A00282920535441525400564C35334C3058D4
:10E56A00204150492053696D706C652052616E6775
:10E57A00696E67206578616D706C650D0A0A002006
:10E58A002046696E616C52616E676554696D656F8C
:10E59A0075744D6963726F53656373203D203078DB
:10E5AA0025750D0A00202046696E616C52616E67FE
:10E5BA0065566373656C50756C7365506572696FE7
:10E5CA0064203D20307825780D0A00564C35334CAE
:10E5DA0030585F6765745F696E666F5F66726F6DEC
:10E5EA005F64657669636528292053544152540053
:10E5FA00564C35334C30585F6C6F61645F74756E7E
:10E60A00696E675F73657474696E6773282920532E
:10E61A005441525400564C35334C30585F47657458
:10E62A00496E746572727570744D61736B5374615F
:10E63A00747573282920454E4400564C35334C30A6
:10E64A00585F486973746F6772616D4D6561737560
:10E65A0072656D656E74446174615F740D0A00566B
:10E66A004C35334C30585F44657669636553706541
:10E67A006369666963506172616D65746572735F1F
:10E68A00740D0A002020557365496E7465726E61B7
:10E69A006C54756E696E6753657474696E6773201E
:10E6AA003D20307825780D0A0020202052656164CB
:10E6BA002064617461203D20307825782C307825DB
:10E6CA00782C307825782C307825780D0A00564C2D
:10E6DA0035334C30585F7365745F72656665726571
:10E6EA006E63655F737061647328292053544152C5
:10E6FA005400564C35334C30585F5365745365712A
:10E70A0075656E636553746570456E61626C6528E4
:10E71A002920454E4400564C35334C30585F5065DD
:10E72A0072666F726D52656643616C69627261747A
:10E73A00696F6E282920454E4400564C35334C30BB
:10E74A00585F476574566373656C50756C73655092
:10E75A006572696F64282920535441525400564CFB
:10E76A0035334C30585F5365744C696D697443682E
:10E77A0065636B456E61626C65282920535441526A
:10E78A0054005061727432506172744F66667365D8
:10E79A00744E564D4D6963726F4D65746572203DB6
:10E7AA002025640D0A0020205369676E616C52614E
:10E7BA0074654D65617346697865643430306D6D92
:10E7CA00203D20307825750D0A00202050726552B0
:10E7DA00616E676554696D656F75744D6963726FB3
:10E7EA0053656373203D20307825750D0A0020207B
:10E7FA0050726552616E6765566373656C50756CCD
:10E80A007365506572696F64203D20307825780DF4
:10E81A000A00564C35334C30585F6765745F696E31
:10E82A00666F5F66726F6D5F6465766963652829D6
:10E83A0020454E4400564C35334C30585F6C6F615E
:10E84A00645F74756E696E675F73657474696E6709
:10E85A0073282920454E4400564C35334C30585FB6
:10E86A005365744C696D6974436865636B56616C72
:10E87A007565282920535441525400564C35334C5F
:10E88A0030585F436C656172496E74657272757057
:10E89A00744D61736B282920535441525400564CCD
:10E8AA0035334C30585F52616E67696E674D6561EA
:10E8BA00737572656D656E74446174615F740D0A77
:10E8CA000043616C6C206F6620564C35334C3058CF
:10E8DA005F53746172744D6561737572656D656EAF
:10E8EA00740D0A0020205854616C6B436F6D70657B
:10E8FA006E736174696F6E456E61626C65203D204E
:10E90A00307825780D0A0020204C696E656172699D
:10E91A007479436F72726563746976654761696E6B
:10E92A00203D20307825780D0A00564C35334C307E
:10E93A00585F7365745F7265666572656E63655F5D
:10E94A007370616473282920454E4400564C353350
:10E95A004C30585F476574566373656C50756C73B9
:10E96A0065506572696F64282920454E4400564CEB
:10E97A0035334C30585F5365744C696D697443681C
:10E98A0065636B456E61626C65282920454E4400BB
:10E99A00564C35334C30585F476574467261637420
:10E9AA00696F6E456E61626C652829205354415225
:10E9BA00540043616C6C206F6620564C35334C30E2
:10E9CA00585F53746F704D6561737572656D656ECE
:10E9DA00740D0A00202052656164446174614672B4
:10E9EA006F6D446576696365446F6E65203D2030BE
:10E9FA007825780D0A00202A20202020202A202A83
:10EA0A002020202020202A202A2A2A20202A2020CA
:10EA1A00202A200D0A0D0A004572726F72203A20D0
:10EA2A00526573706F6E7320646174612073697AC2
:10EA3A0065206F7665720D0A004572726F72203A10
:10EA4A0020526573706F6E7320646174612063680D
:10EA5A006B73756D20656F6F7200564C35334C3091
