:0400000013EF00F00A
:06000800578284EF00F0B6
:100018005780E0CF08F008C0E0FF579010004DEF80
:10002800F9F0000E0101046FE20E096EEE0E0A6E81
:10003800000E0B6EFBECFFF0000E0101006F000ECE
:10004800016F000E026F000E036FFDC0F2F0FEC0DC
:10005800F3F0040E0001F46F010EF56F90EC07F059
:100068000101056F0405D8B43CEF00F03EEF00F045
:1000780069EF00F00551D8B444EF00F046EF00F006
:1000880048EF00F069EF00F0010E0025006F000E48
:100098000121016F000E0221026F000E0321036F80
:1000A800FDC00EF0FEC00FF0BFEC1AF001010351C5
:1000B80002110BE1D00E005D070E0159D8A067EFC1
:1000C80000F069EF00F029EF00F0035102110BE195
:1000D800D00E005D070E0159D8A075EF00F077EF3C
:1000E80000F079EF00F0F90E056F9B0E096EF10E26
:1000F8000A6E05C10BF0FBECFFF00101055112007F
:10010800D9CF04F0DACF05F0F3CF06F0F4CF07F03B
:10011800F2A491EF00F093EF00F09CEF00F0F2945E
:10012800F29A52EC11F0FB0ED76E600ED66EF28A80
:100138009EA0A1EF00F0A3EF00F0AEEF00F09E90BC
:100148009D9004EC18F0D0EC0FF0150ECF6EA00EB9
:10015800CE6E9D80A4A0B3EF00F0B5EF00F0BAEF2B
:1001680000F0A490A390F5EC1AF0A3809EAABFEF2C
:1001780000F0C1EF00F0C5EF00F09E9AAF50F2EC2E
:1001880018F0A3ACCAEF00F0CCEF00F0D6EF00F007
:10019800A4ACD1EF00F0D3EF00F0D6EF00F0A49CB0
:1001A800DCEC1AF0A3AEDBEF00F0DDEF00F0E7EFD8
:1001B80000F0A4AEE2EF00F0E4EF00F0E7EF00F0AB
:1001C800A49EF4EC1AF007C0F4FF06C0F3FF05C0C4
:1001D800DAFF04C0D9FF57921100000E0201F76F31
:1001E8000C0EF86F040150510119D8A4FEEF00F06D
:1001F80000EF01F009EF01F04F510019D8B407EFF3
:1002080001F009EF01F01AEF01F050C401F44FC4F6
:1002180000F4A30E0001AA6FF00EAB6F4FC4ACF050
:10022800AD6B50C4AEF0AF6B49EC19F0950E000100
:10023800AA6FED0EAB6F49EC19F0F7C21DF1F8C2C9
:100248001EF1C7EC01F00201F96FF951D8A42FEFA4
:1002580001F031EF01F040EF01F0E20E0001AA6F6A
:10026800F30EAB6F49EC19F0F7C2F1F0F8C2F2F0F7
:10027800FDEC02F00201F96FF951D8A446EF01F044
:1002880048EF01F057EF01F0F7C2E7F0F8C2E8F0E5
:10029800040E0001E96F000EEA6F000EEB6F000E0E
:1002A800EC6F42EC0AF0000E04014F6F000E506F25
:1002B80012000F013FB963EF01F065EF01F05DEF48
:1002C80001F03F813F833ACF0DF00D508FEC1AF0CB
:1002D8000BC0D9FF0CC0DAFFDF6E0F013B513A515A
:1002E8003F0B0D6E20EE02F00B50D9260C50DA228F
:1002F8000D508FEC1AF0DF6E0F013B511F0B0D6E86
:1003080020EE01F00B50D9260C50DA220D508FEC5C
:100318001AF0DF6E0F013A513F0B0D6E20EE04F01C
:100328000B50D9260C50DA220D508FEC1AF0DF6EE4
:100338000F013B51070B0D6E20EE03F00B50D92631
:100348000C50DA220D508FEC1AF0DF6E0F013A5183
:100358007F0B0D6E20EE06F00B50D9260C50DA22DA
:100368000D508FEC1AF0DF6E0F013B517F0B0D6EB5
:1003780020EE05F00B50D9260C50DA220D508FECE8
:100388001AF0DF6E12001DC1DCF01EC1DDF0000E98
:100398000001DE6F000EDF6F2EEC15F01DC1DCF0E2
:1003A8001EC1DDF0FF0E0001DE6F010EDF6F2EECC7
:1003B80015F01DC1DCF01EC1DDF0000E0001DE6F7E
:1003C800000EDF6F2EEC15F01DC1DCF01EC1DDF054
:1003D800910E0001DE6F000EDF6F2EEC15F01DC1CF
:1003E800DCF01EC1DDF0000E0001DE6F010EDF6FD4
:1003F8002EEC15F01DC1DCF01EC1DDF0FF0E000172
:10040800DE6F000EDF6F2EEC15F04E6E4E50D8A446
:1004180010EF02F012EF02F01BEF02F0010121EEE3
:100428004EF01D51D9261E51DA22030EDF6E4E50B2
:10043800D8A421EF02F023EF02F02DEF02F01DC146
:1004480010F11EC111F1000E0101126F10ECE9F05C
:100458004E6E4E5012000BC1E8F00CC1E9F0F80ED8
:100468000001EA6F130EEB6F010EEC6FFFEC13F057
:100478000101156F1551D8A444EF02F046EF02F0C0
:1004880054EF02F00BC100F10CC101F1040E026F30
:100498000F0E036F010E046F2BEC14F00101156FA2
:1004A8001551D8A45AEF02F05CEF02F094EF02F075
:1004B80013511411D8B463EF02F065EF02F081EF25
:1004C80002F00FC115F010C116F011C117F012C1DA
:1004D80018F013C119F014C11AF01B6A1C6AF0EC69
:1004E80009F00DC1D9FF0EC1DAFF15C0DEFF16C035
:1004F800DEFF17C0DEFF18C0DEFF0DC1D9FF0EC139
:10050800DAFF010110EE0EF00B51E1260C51E22248
:10051800DECFE6FFDECFE6FFDECFE6FFDECFE6FF8B
:1005280015511200000E176E000E166E0FC0D9FF7F
:1005380010C0DAFFDECFF6FFDDCFF7FF000EF86E52
:100548000800F5502A0AD8A4ACEF02F0AEEF02F08A
:10055800E2EF02F00FC0D9FF10C0DAFFDE2A000E6A
:10056800DD2211C0D9FF12C0DAFFDFCF13F0020E6F
:10057800DE26DFCF14F0000EDD2213C0D9FF14C031
:10058800DAFFDECF16F0DDCF17F0F8EF02F016C075
:1005980009F017C00AF0000E0C6E0A0E0B6E84EC00
:1005A80019F015500924166E000E0A20176E0FC098
:1005B800D9FF10C0DAFFDE2A000EDD220FC0D9FFF6
:1005C80010C0DAFFDECFF6FFDDCFF7FF000EF86EC2
:1005D8000800F550D00F156E090E1564F6EF02F0FD
:1005E800F8EF02F0CBEF02F016C00FF017C010F0D2
:1005F8001200000E0001F36F000EF46F000EF56F8D
:10060800000EF66F000EF76F000EF86F000EF96F10
:10061800000EFA6FF1C0E7F0F2C0E8F0F30EE96FF0
:10062800000EEA6F84ECF1F00001FB6FF351F41156
:10063800F511F611D8B423EF03F025EF03F050EFCE
:1006480003F0FB51D8B42BEF03F02DEF03F02FEF9D
:1006580003F050EF03F0010EF725F76F000EF821B5
:10066800F86F000EF921F96F000EFA21FA6FF1C048
:100678000EF0F2C00FF0BFEC1AF00001FA51F911B8
:100688000BE1D00EF75D070EF859D8A04EEF03F036
:1006980050EF03F00EEF03F0FA51F9110BE1D00E11
:1006A800F75D070EF859D8A05CEF03F05EEF03F092
:1006B80060EF03F0F90EFB6FFB51120025C015F037
:1006C80026C016F029C017F070EC0DF015C02AF0FE
:1006D80016C02BF017C02CF018C02DF0F40E2A24E9
:1006E800156E010E2B20166E000E2C20176E000EB4
:1006F8002D20186EE80E196E030E1A6E000E1B6E72
:10070800000E1C6EF0EC09F015C02EF016C02FF08C
:1007180017C030F018C031F027C009F028C00AF01F
:100728000B6A0C6A2EC00DF02FC00EF030C00FF00F
:1007380031C010F0BEEC11F0F40E0924156E010E54
:100748000A20166E000E0B20176E000E0C20186E75
:10075800E80E196E030E1A6E000E1B6E000E1C6E4C
:10076800F0EC09F015C032F016C033F017C034F0C1
:1007780018C035F032C025F033C026F034C027F059
:1007880035C028F012000C500D10D8B4CEEF03F08D
:10079800D0EF03F0D9EF03F00C500D10D8A4D7EF29
:1007A80003F0D9EF03F0DEEF03F00A5084EC1AF0FF
:1007B8002BEF04F020EE0AF00C50D9260D50DA2267
:1007C800DE50DE10D8B4EBEF03F0EDEF03F008EFE6
:1007D80004F020EE0AF00C50D9260D50DA2210EE63
:1007E80003F00C50E1260D50E222DE50E65CE650A4
:1007F800800A126EDE50800A1258D8B006EF04F054
:1008080008EF04F02BEF04F020EE03F00C50D9268B
:100818000D50DA22DECF0EF0DDCF0FF00CC0D9FF7D
:100828000DC0DAFFDECF10F0DDCF11F00E5010242E
:10083800D96E0F501120DA6E0AC0DFFF20EE03F0E8
:100848000C50D9260D50DA22DE2A000EDD221200C5
:10085800000E116E0DC0D9FF0EC0DAFFDF6A6DEF12
:1008680004F00C380F0B010B0DC0D9FF0EC0DAFFD6
:10087800DF6E8EEF04F00C38E8461F0B010B0DC03D
:10088800D9FF0EC0DAFFDF6E8EEF04F00C40E842AD
:100898003F0B010B0DC0D9FF0EC0DAFFDF6E8EEFE4
:1008A80004F00C44E846030B010B0DC0D9FF0EC041
:1008B800DAFFDF6E8EEF04F00C44010B0DC0D9FF98
:1008C8000EC0DAFFDF6E8EEF04F0FC0E116E8EEFB5
:1008D80004F00B500F6E106A1050000AD8B477EF6E
:1008E80004F069EF04F00F50000AD8B435EF04F0B3
:1008F800010AD8B43FEF04F0030AD8B44AEF04F071
:10090800010AD8B455EF04F0070AD8B460EF04F030
:1009180069EF04F011501200000E166E000E156EED
:100928000A0E146ED5EF04F02B0E0F6E040E106E27
:1009380015C009F016C00AF0000E0C6E0B0E0B6EF7
:1009480084EC19F0010E0926000E0A22C10E0924B2
:10095800116EE40E0A20126EAEEC0EF00F5010105D
:10096800D8A4B9EF04F0BBEF04F0D3EF04F015C03E
:1009780009F016C00AF0000E0C6E0B0E0B6E84EC1C
:1009880019F0C10E0924F66EE40E0A20F76EF86A13
:10099800000EF8220800F5CF14F0F2EF04F0154A23
:1009A800162A15C009F016C00AF0000E0C6E0B0EC0
:1009B8000B6E84EC19F0C10E0924F66EE40E0A20C1
:1009C800F76EF86A000EF8220800F5500A0AD8A453
:1009D800F0EF04F0F2EF04F098EF04F01450120076
:1009E800000E126E000E116E000E146E000E136EC5
:1009F80009500A100B100C10D8B405EF05F007EFDA
:100A080005F052EF05F0FF0E0924156EFF0E0A20BF
:100A1800166EFF0E0B20176EFF0E0C20186E2CEFB3
:100A280005F015C00DF016C00EF017C00FF018C075
:100A380010F0D89010320F320E320D320DC015F072
:100A48000EC016F00FC017F010C018F0134A142A81
:100A5800000E15140D6EFF0E16140E6EFF0E1714F1
:100A68000F6EFF0E1814106E0D500E100F10101090
:100A7800D8A441EF05F043EF05F015EF05F0FF0EA0
:100A880015140D6E000E16140E6E1350106E0F6AAC
:100A98000D500F24116E0E501020126E11C009F067
:100AA80012C00AF012000001C56F0001C551D8A498
:100AB80060EF05F062EF05F06AEF05F0DE0EAA6F51
:100AC800FF0EAB6F49EC19F0B8EF05F0000EC46FDC
:100AD80099EF05F0180EAA6FEA0EAB6FC4511E0D00
:100AE800F3CFBEF0F4CFBFF0C551030DF3CFC0F084
:100AF800F4CFC1F0FD0EC025C26FFF0EC121C36F38
:100B0800D90EC225F66EE10EC321F76EF86A000E03
:100B1800F822BE510900F524AC6FBF510900F52039
:100B2800AD6F49EC19F00001C42BC551030DF3CF8B
:100B3800BEF0F4CFBFF0FF0EBE25C06FFF0EBF2181
:100B4800C16FD90EC025F66EE10EC121F76EF86AA5
:100B5800000EF8220900F550C45DD8A0B6EF05F0E4
:100B6800B8EF05F06EEF05F01200000E0E6E0CBE29
:100B7800C2EF05F0C0EF05F0C8EF05F00B6C0C1ED6
:100B8800D8B00C2A010E0E6E0ABECFEF05F0CDEFDD
:100B980005F0D5EF05F0096C0A1ED8B00A2A010E37
:100BA8000E1A000E106E000E0F6E0B500C10D8B4FB
:100BB800E0EF05F0E2EF05F00AEF06F0010E0D6E2A
:100BC800EAEF05F0D8900B360C360D2A0CAEEFEF95
:100BD80005F0F1EF05F0E6EF05F0D8900F36103686
:100BE8000B50095C0C500A58D8A0FDEF05F0FFEF38
:100BF80005F004EF06F00B50095E0C500A5A0F80FE
:100C0800D8900C320B320D2EF1EF05F00E50D8B4FF
:100C180010EF06F012EF06F016EF06F00F6C101E3C
:100C2800D8B0102A0FC009F010C00AF01200000E48
:100C3800326E28C015F029C016F02AC017F02BC054
:100C480018F0080E196E000E1A6E000E1B6E000EBC
:100C58001C6EF0EC09F015C033F016C034F017C064
:100C680035F018C036F028C009F029C00AF02AC0AB
:100C78000BF02BC00CF0080E0D6E000E0E6E000E61
:100C88000F6E000E106EA6EC0CF009C02EF00AC014
:100C98002FF00BC030F00CC031F02450335C2550DD
:100CA80034582650355827503658D8A05EEF06F0ED
:100CB80060EF06F064EF06F0CE0E326E78EF06F0C5
:100CC8002EC02CF0010E2D6E2C2A6DEF06F0D89058
:100CD8002D362C2E6BEF06F033502224D96E34506B
:100CE8002320DA6E2D50DF1232501200000E546E9F
:100CF800050EB2EC0DF01B6E1B50D8A486EF06F063
:100D080088EF06F0D6EF06F0A49EA49C7184000E2E
:100D18000A6E640E096E35EC0EF009C019F00AC0AF
:100D28001AF0C9EF06F05450D8B49DEF06F09FEFC3
:100D380006F0A4EF06F0010E0301D86F010E1B6E3A
:100D480072AEA9EF06F0ABEF06F0B3EF06F0729EB5
:100D5800020E0301D86F010E1B6ED0EF06F019C00A
:100D68000FF01AC010F0F4EC0DF00F501010D8A4CA
:100D7800C0EF06F0C2EF06F0C9EF06F0030E03015C
:100D8800D86F010E1B6ED0EF06F0A4AECEEF06F0C2
:100D9800D0EF06F097EF06F019C00FF01AC010F068
:100DA80059EC12F01B501200000E546E050EB2ECF6
:100DB8000DF01B6E1B50D8A4E4EF06F0E6EF06F02A
:100DC80034EF07F0A49EA49C7180000E0A6E640E96
:100DD800096E35EC0EF009C019F00AC01AF027EFB9
:100DE80007F05450D8B4FBEF06F0FDEF06F002EF21
:100DF80007F0010E0301D86F010E1B6E72AE07EFEC
:100E080007F009EF07F011EF07F0729E020E0301D9
:100E1800D86F010E1B6E2EEF07F019C00FF01AC025
:100E280010F0F4EC0DF00F501010D8A41EEF07F0DE
:100E380020EF07F027EF07F0030E0301D86F010E2C
:100E48001B6E2EEF07F0A4AE2CEF07F02EEF07F085
:100E5800F5EF06F019C00FF01AC010F059EC12F0B7
:100E68001B501200000E01011B6F21EE4CF01451B3
:100E7800D9261551DA22DF501B6F14C109F115C1AB
:100E88000AF116C10BF117C10CF11AC10DF1000ED0
:100E98000E6FB9ECF4F001011C6F1C51D8A457EF88
:100EA80007F059EF07F069EF07F014C109F115C110
:100EB8000AF118C10BF119C10CF11AC10DF1000E9C
:100EC8000E6F52ECF5F001011C6F1C51D8A46FEFA6
:100ED80007F071EF07F08EEF07F014C1DCF015C1D1
:100EE800DDF0010E0001DE6F1BC1DFF02EEC15F006
:100EF80001011C6F1C51D8A484EF07F086EF07F09E
:100F08008EEF07F021EE4CF01451D9261551DA2254
:100F18001BC1DFFF1C511200000120EEFDF0F25151
:100F2800D926F351DA22DF50F66F040EF619D8A449
:100F3800A0EF07F0A2EF07F0C9EF07F0F2C0E7F063
:100F4800F3C0E8F0F70EE96F000EEA6FF3EC11F06A
:100F58000001FB6F040EF719F811F911FA11D8A462
:100F6800B8EF07F0BAEF07F0C2EF07F0F4C0D9FF07
:100F7800F5C0DAFF010EDF6EE8EF07F0F4C0D9FF25
:100F8800F5C0DAFFDF6AE8EF07F0F2C0DCF0F3C083
:100F9800DDF0140EDE6FFC0EDF6F000EE06F57EC15
:100FA80014F00001FB6FFB51D8A4DDEF07F0DFEF71
:100FB80007F0E8EF07F0FCA1E4EF07F0E6EF07F031
:100FC800C2EF07F0BAEF07F0FB511200F3C0E8F0E8
:100FD800F4C0E9F00E0E0001EA6F010EEB6F010E8E
:100FE800EC6FFFEC13F00101006FFF0E011500011B
:100FF800FA6F0F0E010102150001FB6FFC6BFD6B10
:10100800F6C0D9FFF7C0DAFFFAC0DEFFFBC0DEFF8B
:10101800FCC0DEFFFDC0DEFF01010051D8A417EFC0
:1010280008F019EF08F03FEF08F0F3C0E8F0F4C05B
:10103800E9F00C0E0001EA6F010EEB6F010EEC6F88
:10104800FFEC13F00101006FFF0E01150001FA6FAC
:101058000F0E010102150001FB6FFC6BFD6BF8C060
:10106800D9FFF9C0DAFFFAC0DEFFFBC0DEFFFCC023
:10107800DEFFFDC0DEFF010100511200000E0E6E02
:101088000ABE4BEF08F049EF08F051EF08F0096C81
:101098000A1ED8B00A2A010E0E6E0CBE58EF08F0D0
:1010A80056EF08F05CEF08F00B6C0C1ED8B00C2A59
:1010B8000B500C10D8B463EF08F065EF08F089EF17
:1010C80008F0010E0D6E6DEF08F0D8900B360C3657
:1010D8000D2A0CAE72EF08F074EF08F069EF08F013
:1010E8000B50095C0C500A58D8A07DEF08F07FEF30
:1010F80008F083EF08F00B50095E0C500A5AD8909C
:101108000C320B320D2E74EF08F00E50D8B48FEF5E
:1011180008F091EF08F095EF08F0096C0A1ED8B0B6
:101128000A2A09C009F00AC00AF0120058C10BF1D6
:1011380059C10CF1020E01010D6FD6EC86F00101C8
:10114800616F6151D8A4ABEF08F0ADEF08F0EEEF96
:1011580008F021EE0FF05851D9265951DA22DF5004
:10116800606F6051D8A4BBEF08F0BDEF08F0D0EF76
:1011780008F05AC1D9FF5BC1DAFFDF6A400E5C256F
:10118800096E000E5D210A6EFE0E0B6EFF0E0C6ED0
:101198001EEC13F0EEEF08F021EE10F05851D926AE
:1011A8005951DA225AC1E1FF5BC1E2FFDFCFE7FF05
:1011B800110E58255E6F010E59215F6F400E5C2598
:1011C800096E000E5D210A6E5EC10BF05FC10CF066
:1011D8001EEC13F0010161511200000E0001E66FD0
:1011E80021EE6AF0DC51D926DD51DA22DF50E56FB5
:1011F800DEC0CFF0E70ED06F000ED16FE55120ECC6
:1012080016F0CFC0E1F0D0C0E2F0D1C0E3F0D2C018
:10121800E4F00001E151E211E311E411D8B417EF51
:1012280009F019EF09F01BEF09F0EC0EE66FE65133
:10123800D8A421EF09F023EF09F044EF09F0E751B2
:10124800DF15E011E76FDEC0CFF0E7C0D0F0E55161
:10125800F9EC15F0CFC0E1F0D0C0E2F0D1C0E3F076
:10126800D2C0E4F00001E151E211E311E411D8B475
:1012780040EF09F042EF09F044EF09F0EC0EE66F99
:10128800E6511200000E0914116E000E0A14126EB7
:10129800800E0B14136E7F0E0C14146E1150121066
:1012A80013101410D8A45BEF09F05DEF09F065EF97
:1012B80009F0000E096E000E0A6E000E0B6E000E8D
:1012C8000C6E000E0D14116E000E0E14126E800EB0
:1012D8000F14136E7F0E1014146E11501210131089
:1012E8001410D8A47AEF09F07CEF09F084EF09F024
:1012F800000E0D6E000E0E6E000E0F6E000E106EBC
:101308000D5009180FE10E500A180CE10F500B1878
:1013180009E110500C18D8B494EF09F096EF09F0D1
:1013280099EF09F0D8909AEF09F0D880120053A0ED
:10133800A0EF09F0A2EF09F0ACEF09F01CC013F020
:101348001DC014F01AC015F01BC016F046EC17F0BB
:101358001FBEB1EF09F0B3EF09F0B9EF09F01EC0F5
:1013680023F01FC024F0BDEF09F0000E246E000E1C
:10137800236E000E226E000E216ECFEF09F0000ED4
:101388000B6E200E0A6E1AC00CF01BC00DF0C7ECD5
:1013980003F0214A222A2350215C2250800A206E21
:1013A8002450800A2058D8A0DCEF09F0DEEF09F0BD
:1013B800C3EF09F053B0E3EF09F0E5EF09F0EFEF01
:1013C80009F01CC013F01DC014F01AC015F01BC0A2
:1013D80016F046EC17F01200000E1D6E000E1E6E81
:1013E800000E1F6E000E206E19501A101B101C10D4
:1013F800D8B401EF0AF003EF0AF039EF0AF0010E52
:10140800216E0DEF0AF0D89019361A361B361C36A5
:10141800212A1CAE12EF0AF014EF0AF007EF0AF0C7
:10142800D8901D361E361F3620361950155C1A50B6
:1014380016581B5017581C501858D8A026EF0AF0F9
:1014480028EF0AF031EF0AF01950155E1A50165AB3
:101458001B50175A1C50185A1D80D8901C321B322A
:101468001A321932212E14EF0AF01DC015F01EC0D1
:1014780016F01FC017F020C018F01200000E00016F
:10148800ED6FE7C0DCF0E8C0DDF00B0EDE6F010E9B
:10149800DF6F2EEC15F00001EE6FE7C0DCF0E8C05E
:1014A800DDF00B0EDE6F000EDF6F2EEC15F0000185
:1014B800EE13E7C0DCF0E8C0DDF0130EDE6FEF0ED0
:1014C800DF6F000EE06F57EC14F00001EE13ED2B08
:1014D800EFC04EF0070E4E16D8B475EF0AF077EF4E
:1014E8000AF087EF0AF0030EED617DEF0AF07FEF57
:1014F8000AF087EF0AF0EE51D8B485EF0AF087EFCB
:101508000AF045EF0AF0020EED658DEF0AF08FEF55
:101518000AF091EF0AF0F40EEE6FEE511200B9EFF7
:101528000AF0E7C0DCF0E8C0DDF0500EDE6FEF0E29
:10153800DF6F000EE06F57EC14F00001EE6FCFEF95
:101548000AF0E7C0DCF0E8C0DDF0700EDE6FEF0EE9
:10155800DF6F000EE06F57EC14F00001EE6FCFEF75
:101568000AF0FC0EEE6FCFEF0AF00001E951EC6FC4
:10157800ED6BED51000AD8B4C4EF0AF0B5EF0AF0EC
:10158800EC51000AD8B495EF0AF0010AD8B4A5EFD7
:101598000AF0B5EF0AF0EE51D8A4D5EF0AF0D7EF6C
:1015A8000AF0DFEF0AF0EF51C7EC1AF0EAC0D9FFF2
:1015B800EBC0DAFFDF6E0001EE51120006C1DCF06D
:1015C80007C1DDF0000E0001DE6F010108510109BD
:1015D8000001DF6F2EEC15F00001FF6FFF51D8A45A
:1015E800F8EF0AF0FAEF0AF002EF0BF006C1FDF08F
:1015F80007C1FEF07EEC0BF00001FF6FFF51D8A48D
:1016080008EF0BF00AEF0BF01AEF0BF006C1E7F04A
:1016180007C1E8F0000EE96F000EEA6F000EEB6FED
:10162800000EEC6F42EC0AF00001FF6FFF51D8A4E6
:1016380020EF0BF022EF0BF02EEF0BF006C1DCF0E1
:1016480007C1DDF0000EDE6F000EDF6F2EEC15F027
:101658000001FF6FFF51120029C109F02AC10AF0E9
:101668002B0E0B6E010E0C6E26EC1AF001012C6F7E
:101678002C51D8A442EF0BF044EF0BF054EF0BF0D1
:101688002B51D8A44AEF0BF04CEF0BF054EF0BF0B2
:1016980029C11DF12AC11EF196ECDCF001012C6F65
:1016A8002C51D8A45AEF0BF05CEF0BF064EF0BF061
:1016B80029C1FDF02AC1FEF07EEC0BF001012C6F70
:1016C8002C51D8A46AEF0BF06CEF0BF07CEF0BF009
:1016D8002B51D8A472EF0BF074EF0BF07CEF0BF0EA
:1016E80021EE4EF02951D9262A51DA22030EDF6E57
:1016F8002C511200000E0101056F000E006F000E44
:10170800016F000E026F000E036FFDC0F2F0FEC005
:10171800F3F0050E0001F46F010EF56F90EC07F081
:101728000101046F0451D8B49CEF0BF09EEF0BF04D
:10173800A0EF0BF0CAEF0BF00505D8A4A6EF0BF04D
:10174800A8EF0BF0AAEF0BF0CAEF0BF0010E002781
:10175800000E012302230323035102110BE1D00ED3
:10176800005D070E0159D8A0BCEF0BF0BEEF0BF0DF
:10177800C2EF0BF0F90E046FCAEF0BF0FDC00EF0CC
:10178800FEC00FF0BFEC1AF089EF0BF00451120005
:1017980080C209F081C20AF0000E0B6E89EC11F0CC
:1017A8000101FE6FFE51D8A4DCEF0BF0DEEF0BF069
:1017B800E6EF0BF080C229F181C22AF130EC0BF080
:1017C8000101FE6FFE51D8A4ECEF0BF0EEEF0BF029
:1017D800FAEF0BF080C23AF281C23BF282C23CF2CD
:1017E80083C23DF2EAECBEF00101FE6FFE51D8A4BF
:1017F80000EF0CF002EF0CF013EF0CF080C2E7F0F2
:1018080081C2E8F0000E0001E96F000EEA6F000ED9
:10181800EB6F000EEC6F42EC0AF00101FE6FFE5117
:101828001200E7C0DCF0E8C0DDF0010E0001DE6F59
:10183800EC0EDF6F000EE06F57EC14F00001EB6F59
:10184800EB51D8A42AEF0CF02CEF0CF048EF0CF079
:1018580021EE4CF0E751D926E851DA22ECC0DFFF3F
:10186800ECAF39EF0CF03BEF0CF043EF0CF0E9C0B4
:10187800D9FFEAC0DAFF010EDF6E48EF0CF0E9C0CD
:10188800D9FFEAC0DAFFDF6AEB51D8A44EEF0CF0BB
:1018980050EF0CF05CEF0CF0E9C0D9FFEAC0DAFFBA
:1018A80010EE79F0E751E126E851E222DFCFE7FFB9
:1018B800EB511200082A00082A00082A00082A000A
:1018C800000000000000082A00262D00E20100B4F4
:1018D8002900000000000000C82100D2EB01D2EB73
:1018E80001082A000000000000005A2100C8C501B4
:1018F800C8C501082A00000000000000EC2000C84C
:10190800C501C8C501082A000000000000007E20AB
:1019180000C8C501C8C501082A0000000000000071
:10192800102000C8C501C8C501082A000000000031
:101938000000DC2C00DC2C00DC2C00DC2C0000007F
:10194800000000000D500E100F101010D8B4AFEFAB
:101958000CF0B1EF0CF0E1EF0CF0010E116EBBEFE3
:101968000CF0D8900D360E360F361036112A10AE00
:10197800C0EF0CF0C2EF0CF0B5EF0CF00D50095CA5
:101988000E500A580F500B5810500C58D8A0CFEFD3
:101998000CF0D1EF0CF0D9EF0CF00D50095E0E50A1
:1019A8000A5A0F500B5A10500C5AD89010320F3256
:1019B8000E320D32112EC2EF0CF009C009F00AC028
:1019C8000AF00BC00BF00CC00CF01200000E000166
:1019D800E96FE351E211E11109E1400EE05DD8A0A1
:1019E800F8EF0CF0FAEF0CF0FCEF0CF0FC0EE96FDE
:1019F80021EE6AF0DB51D926DC51DA22DF50E86F9C
:101A0800DDC0CFF0DEC0D0F0DFC0D1F0E0C0D2F052
:101A1800E1C0D3F0E2C0D4F0E3C0D5F0E851A7ECC0
:101A280017F0CFC0E4F0D0C0E5F0D1C0E6F0D2C0E6
:101A3800E7F00001E451E511E611E711D8B427EF0A
:101A48000DF029EF0DF02BEF0DF0EC0EE96FE951D9
:101A58001200000E0001E96FE351E211E11109E102
:101A6800400EE05DD8A03BEF0DF03DEF0DF03FEFED
:101A78000DF0FC0EE96F21EE6AF0DB51D926DC513E
:101A8800DA22DF50E86FDDC0CFF0DEC0D0F0DFC073
:101A9800D1F0E0C0D2F0E1C0D3F0E2C0D4F0E3C0AE
:101AA800D5F0E851C6EC17F0CFC0E4F0D0C0E5F0AF
:101AB800D1C0E6F0D2C0E7F00001E451E511E6112B
:101AC800E711D8B46AEF0DF06CEF0DF06EEF0DF082
:101AD800EC0EE96FE9511200000E196E090E1A6E2C
:101AE800000E1B6E000E1C6E1750096E0A6A0B6AF8
:101AF8000C6A000E0D6E090E0E6E000E0F6E000EB3
:101B0800106EBEEC11F009C021F00AC022F00BC023
:101B180023F00CC024F021C009F022C00AF023C031
:101B28000BF024C00CF0770E0D6E060E0E6E000E34
:101B38000F6E000E106EBEEC11F009C01DF00AC049
:101B48001EF00BC01FF00CC020F01DC015F01EC009
:101B580016F01FC017F020C018F01200156E000E06
:101B6800166E000E0A6E640E096E35EC0EF009C092
:101B780017F00AC018F0D7EF0DF017C00FF018C013
:101B880010F0F4EC0DF00F501010D8A4CEEF0DF0BB
:101B9800D0EF0DF0D7EF0DF0030E0301D86F010E53
:101BA800166EECEF0DF0735015140009D8A4DFEF92
:101BB8000DF0E1EF0DF0C1EF0DF071CF14F01F0E35
:101BC8001416D8A4EAEF0DF0ECEF0DF0C1EF0DF00C
:101BD80017C00FF018C010F059EC12F01650120090
:101BE8001268136810BE04EF0EF0105007E1030EE0
:101BF8000F5CD8B002EF0EF004EF0EF030EF0EF0ED
:101C08000FC009F010C00AF0000E0C6E030E0B6E28
:101C180084EC19F0A90E0924D96E030E0A20DA6E95
:101C2800DE04D8A41AEF0EF01CEF0EF030EF0EF021
:101C38000FC009F010C00AF0000E0C6E030E0B6EF8
:101C480084EC19F0AA0E0924D96E030E0A20DA6E64
:101C5800DECF12F0DDCF13F012C00FF013C010F07A
:101C680012000B680C68000E0D6E0D50030DA90EC6
:101C7800F324D96E030EF420DA6EDF50D8A447EFB0
:101C88000EF049EF0EF064EF0EF00D50030DA90EA3
:101C9800F324D96E030EF420DA6E010EDF6E0D50B8
:101CA800030DAA0EF324D96E030EF420DA6E09C0D0
:101CB800DEFF0AC0DDFF0DC00BF00C6A6DEF0EF001
:101CC8000D2A020E0D646BEF0EF06DEF0EF039EF7A
:101CD8000EF00BC009F00CC00AF01200010E176ECE
:101CE80009C00DF00AC00EF00BC00FF00CC010F0C8
:101CF800070E84EF0EF0D89010320F320E320D32EC
:101D0800E82E7FEF0EF00DC013F00EC014F00FC0D8
:101D180015F010C016F0D00E0D6E040E0E6ED89091
:101D28001334D96E1434DA6ED890D936DA360D50A9
:101D3800D9260E50DA22DE50DE10DE10DE10D8A4CE
:101D4800A8EF0EF0AAEF0EF0ACEF0EF0000E176E33
:101D580017501200B4EF0EF00F4A102A114A122A37
:101D68000FC0D9FF10C0DAFFDF50136E11C0F6FFA5
:101D780012C0F7FF000EF86E0800F5501318D8A42B
:101D8800C8EF0EF0CAEF0EF0D6EF0EF00FC0D9FF75
:101D980010C0DAFFDF50D8A4D4EF0EF0D6EF0EF063
:101DA800B0EF0EF00FC0D9FF10C0DAFFDF50136E8E
:101DB80011C0F6FF12C0F7FF000EF86E0800F550CC
:101DC800135C0F6E106AD8A0100612000001BE6FD7
:101DD800A8C3BFF00001C06B0A0EBF19C011D8A478
:101DE800F8EF0EF0FAEF0EF0FEEF0EF0000EC06FF7
:101DF800000EBF6F2C0EAA6FFD0EAB6FA3C3ACF025
:101E0800AD6BA4C3AEF0AF6BA5C3B0F0B16BA6C306
:101E1800B2F0A7C3B3F0BFC0B4F0C0C0B5F049EC8E
:101E280019F00001BE05D8A41CEF0FF01EEF0FF04B
:101E380024EF0FF0F80EAA6FED0EAB6F49EC19F016
:101E48001200000E156E000E146E11501210D8B448
:101E580030EF0FF032EF0FF05AEF0FF0010E136E64
:101E68003AEF0FF0D89011361236132A12AE3FEF20
:101E78000FF041EF0FF036EF0FF0D890143615360B
:101E880011500F5C12501058D8A04DEF0FF04FEFC3
:101E98000FF054EF0FF011500F5E1250105A1480CB
:101EA800D89012321132132E41EF0FF014C00FF0F8
:101EB80015C010F01200F80E0001AA6FED0EAB6FFE
:101EC80049EC19F01F0E0001AA6FFC0EAB6F49EC2C
:101ED80019F0E40E0001AA6FEF0EAB6F49EC19F090
:101EE800040E0001AA6FF00EAB6F49EC19F0240E36
:101EF8000001AA6FF00EAB6F49EC19F0440E000117
:101F0800AA6FF00EAB6F49EC19F0D90E0001AA6F59
:101F1800ED0EAB6F49EC19F0DE0E0001AA6FFF0E53
:101F2800AB6F49EC19F012000001E16FDBC0CFF094
:101F3800E60E0001D06F000ED16F020ED26F000EB8
:101F4800D36F000ED46F000ED56FE151C6EC17F0B9
:101F5800CFC0E2F0D0C0E3F0D1C0E4F0D2C0E5F0E9
:101F68000001E751E6C0DFF0E06BDFC0E0F0DF6BB7
:101F7800DF27000EE023DCC0D9FFDDC0DAFFDFC0B9
:101F8800DEFFE0C0DDFFE2C0DBF0E3C0DCF0E4C070
:101F9800DDF0E5C0DEF01200000E036E0350030D05
:101FA800A90EF324D96E030EF420DA6EDE04D8A449
:101FB800E0EF0FF0E2EF0FF0FEEF0FF00350030D2C
:101FC800AA0EF324D96E030EF420DA6EDE50DE106A
:101FD800D8B4F1EF0FF0F3EF0FF0FEEF0FF003506E
:101FE800030DAA0EF324D96E030EF420DA6EDE0672
:101FF800000EDD5A032A020E036405EF10F007EF06
:1020080010F0D2EF0FF01200040150510119D8A4BA
:1020180010EF10F012EF10F01BEF10F04F510019F5
:10202800D8B419EF10F01BEF10F02CEF10F050C4DB
:1020380001F44FC400F4C30E0001AA6FEC0EAB6F9D
:102048004FC4ACF0AD6B50C4AEF0AF6B49EC19F0B7
:10205800020120EE22F0F551D926F651DA22DF6A84
:1020680020EE23F0F551D926F651DA22DF6A030E65
:1020780078EC9DF01200040150510119D8A447EFE3
:1020880010F049EF10F052EF10F04F510019D8B48A
:1020980050EF10F052EF10F063EF10F050C401F45D
:1020A8004FC400F4E60E0001AA6FEC0EAB6F4FC4EC
:1020B800ACF0AD6B50C4AEF0AF6B49EC19F0020157
:1020C80020EE22F0F551D926F651DA22DF6A20EE09
:1020D80023F0F551D926F651DA22DF6A020E78ECA0
:1020E8009DF01200040150510119D8A47EEF10F0A0
:1020F80080EF10F089EF10F04F510019D8B487EF36
:1021080010F089EF10F09AEF10F050C401F44FC4AA
:1021180000F4A00E0001AA6FEC0EAB6F4FC4ACF038
:10212800AD6B50C4AEF0AF6B49EC19F0020120EE74
:1021380022F0F551D926F651DA22DF6A20EE23F093
:10214800F551D926F651DA22DF6A010E78EC9DF0B6
:102158001200040150510119D8A4B5EF10F0B7EFDF
:1021680010F0C0EF10F04F510019D8B4BEEF10F0C6
:10217800C0EF10F0D1EF10F050C401F44FC400F4D8
:102188003D0E0001AA6FEE0EAB6F4FC4ACF0AD6B05
:1021980050C4AEF0AF6B49EC19F0020120EE22F00A
:1021A800F551D926F651DA22DF6A20EE23F0F551EF
:1021B800D926F651DA22DF6A000E78EC9DF012007B
:1021C800040150510119D8A4ECEF10F0EEEF10F013
:1021D800F7EF10F04F510019D8B4F5EF10F0F7EF02
:1021E80010F008EF11F050C401F44FC400F4440E8D
:1021F8000001AA6FEF0EAB6F4FC4ACF0AD6B50C4CB
:10220800AEF0AF6B49EC19F0020120EE22F0F55167
:10221800D926F651DA22DF6A20EE23F0F551D926C5
:10222800F651DA22DF6A040E78EC9DF0120020EEF7
:102238000CF02B50D9262C50DA222DC0E1FF2EC0ED
:10224800E2FFDECFE6FFDECFE6FFDECFE6FFDECF42
:10225800E6FF29C015F02AC016F02BC017F02CC0D5
:1022680018F0300E196E000E1A6E13ECFFF02F6E78
:102278002F50D8A442EF11F044EF11F050EF11F0B5
:102288002DC0D9FF2EC0DAFF3050DE263150DE22B5
:102298003250DE223350DE222F5012000301A82BC9
:1022A8000A0EA8655AEF11F05CEF11F088EF11F0F3
:1022B800000EA86FA64BA72BE90EA65D030EA75923
:1022C800D8A069EF11F06BEF11F088EF11F0000E54
:1022D800A76F000EA66FA52B3C0EA56576EF11F033
:1022E80078EF11F088EF11F0000EA56FA42B3C0ECB
:1022F800A46581EF11F083EF11F088EF11F0000E63
:10230800A46FA32B88EF11F01200000E0E6E9BEF46
:1023180011F020EE08F00950D9260A50DA220BC035
:10232800DFFFBCEF11F0F80E0E6EBCEF11F00B5092
:102338000C6E0D6A0D50000AD8B4A5EF11F097EF96
:1023480011F00C50000AD8B48DEF11F0010AD8B47E
:102358008DEF11F0020AD8B48DEF11F0170AD8B436
:102368008DEF11F0010AD8B48DEF11F097EF11F04D
:102378000E501200000E116E000E126E000E136E3B
:10238800000E146E09A0CBEF11F0CDEF11F0D5EFD0
:1023980011F00D5011260E5012220F50132210501A
:1023A8001422D8900D360E360F361036D8900C32CF
:1023B8000B320A32093209500A100B100C10D8A43B
:1023C800E8EF11F0EAEF11F0C6EF11F011C009F0D3
:1023D80012C00AF013C00BF014C00CF01200E7C0D2
:1023E800DCF0E8C0DDF0130E0001DE6FF10EDF6FE8
:1023F800000EE06F57EC14F00001F06FF1C0EBF045
:10240800070EEB17EBC0ECF0ED6BEE6BEF6BE9C072
:10241800D9FFEAC0DAFFECC0DEFFEDC0DEFFEEC098
:10242800DEFFEFC0DEFFF1C0EBF0180EEB17D8B4FB
:1024380020EF12F022EF12F024EF12F0FA0EF06FF4
:10244800F05112000CBE35EF12F00C500B100A10B0
:1024580006E10904D8B033EF12F035EF12F050EF6F
:1024680012F009C00DF00AC00EF00BC00FF00CC03E
:1024780010F00D1E0E1E0F1E101E0D2A000E0E222D
:102488000F2210220DC009F00EC00AF00FC00BF089
:1024980010C00CF058EF12F009C009F00AC00AF099
:1024A8000BC00BF00CC00CF0120010BE67EF12F05E
:1024B800105007E1030E0F5CD8B065EF12F067EF1C
:1024C80012F08AEF12F00FC009F010C00AF0000EE7
:1024D8000C6E030E0B6E84EC19F0A90E0924D96E4C
:1024E800030E0A20DA6EDF6A0FC009F010C00AF086
:1024F800000E0C6E030E0B6E84EC19F0AA0E092464
:10250800D96E030E0A20DA6EDE6ADD6A12000B50FD
:102518000C10D8B492EF12F094EF12F0B8EF12F05A
:10252800010E0D6E9CEF12F0D8900B360C360D2A6A
:102538000CAEA1EF12F0A3EF12F098EF12F00B50CF
:10254800095C0C500A58D8A0ACEF12F0AEEF12F0AC
:10255800B2EF12F00B50095E0C500A5AD8900C32A8
:102568000B320D2EA3EF12F009C009F00AC00AF0D1
:102578001200000E0001CF6F880EC26FCF0EC36F1E
:10258800000EC46F010EC56F520E5FECC5F0F80E59
:102598000001C26FCF0EC36F000EC46F020EC56F6D
:1025A800520E43ECB5F05C0E0001AA6FE60EAB6F5D
:1025B800CFC0ACF0AD6BD0C0AEF0AF6BD1C0B0F057
:1025C800B16BD2C0B2F0B36BD3C0B4F0B56B49EC09
:1025D80019F012004E6EB80E0001AA6FFD0EAB6F17
:1025E8004EC0ACF0AD6B49EC19F0000E726E000EE7
:1025F8000A6E010E096E22EC18F095809582800E05
:10260800736E280E726E4E50D8A40DEF13F00FEFB4
:1026180013F013EF13F0770E746E16EF13F01D0E10
:10262800746E739EF28CF28EA49EA49CA58EA58CCB
:10263800F18E12000BC00FF00CC010F009C011F0A1
:102648000AC012F00F500D6E10500E6E0F4A102A6D
:102658000DC0F6FF0EC0F7FF000EF86E11C0D9FFCF
:1026680012C0DAFF114A122A0F0EF76403D00800CD
:10267800F55005D0F6CFE9FFF7CFEAFFEF50DF6E50
:10268800DF50D8A44AEF13F04CEF13F026EF13F005
:1026980012004FC49DF350C49EF34F0E0201F56F14
:1026A800040EF66F03019D51030DF3CFFCF2F4CF36
:1026B800FDF29E51120D000EF3240201FE6F080E6A
:1026C800F420FF6FFC51FE25D96EFD51FF21DA6E13
:1026D80002D879EF13F00500FA6EDE50FD6EDE5079
:1026E800FE6EDE50FF6EFA501200120009C00DF0A7
:1026F8000AC00EF00EC00DF00E6AFF0E09140F6E20
:10270800106A116A126A0D2A8FEF13F0D8900F36EB
:102718001036113612360D2E8AEF13F0010E0F24E3
:10272800136E000E1020146E000E1120156E000E90
:102738001220166E13C009F014C00AF015C00BF071
:1027480016C00CF01200000E0001E46F21EE6AF0D2
:10275800DA51D926DB51DA22DF50E36FDCC0CFF043
:10276800DDC0D0F0DEC0D1F0E35100EC17F0CFC0EF
:10277800DFF0D0C0E0F0D1C0E1F0D2C0E2F000015B
:10278800DF51E011E111E211D8B4CDEF13F0CFEF32
:1027980013F0D1EF13F0EC0EE46FE4511200000EC9
:1027A800126E0C5009E1060E0B5CD8A0DEEF13F098
:1027B800E0EF13F0E9EF13F0FC0E126E0DC0D9FF35
:1027C8000EC0DAFFDF6AFDEF13F00B5009240F6E1D
:1027D8000C500A20106E1D0E0F24D96E000E10200A
:1027E800DA6EDF50116E0DC0D9FF0EC0DAFF11C0CE
:1027F800DFFF12501200000E0001F26F21EE6AF0A6
:10280800E851D926E951DA22DF50F16FEAC0DBF04E
:10281800EBC0DCF0ECC0DDF0F15198EC0FF0DBC060
:10282800EDF0DCC0EEF0DDC0EFF0DEC0F0F000014E
:10283800ED51EE11EF11F011D8B425EF14F027EF98
:1028480014F029EF14F0EC0EF26FF2511200000EA2
:1028580001010A6F21EE6AF00051D9260151DA22EE
:10286800DF50096F02C1DBF003C1DCF004C1DDF009
:102878000951B3ECFDF0DBC005F1DCC006F1DDC0A9
:1028880007F1DEC008F10101055106110711081111
:10289800D8B451EF14F053EF14F055EF14F0EC0ED8
:1028A8000A6F0A511200000E0001E66F21EE6AF06D
:1028B800DC51D926DD51DA22DF50E56FDEC0CFF0DA
:1028C800DFC0D0F0E0C0D1F0E55120EC16F0CFC069
:1028D800E1F0D0C0E2F0D1C0E3F0D2C0E4F00001F2
:1028E800E151E211E311E411D8B47DEF14F07FEF68
:1028F80014F081EF14F0EC0EE66FE6511200550E5D
:10290800A76EAA0EA76E0E01BF91160EF76F060EE0
:10291800D76F550EA76EAA0EA76EBF81959C958A94
:10292800000EA86EA88AA894000E9C6E9C8E9C88A7
:10293800000E7C6E7C960B0E096E000E0A6E34EC4F
:1029480019F00CC07DFF0DC0ABFF0BB002D0A894EE
:1029580001D0A8841200A4C0A8F0A5C0A9F0C4EFB3
:1029680014F0A2C08FF0A3C090F0A80E0001916FE0
:10297800000E926FA6C093F0A7C094F0ACECAFF035
:10298800A8C0F6FFA9C0F7FF000EF86E0800F550C2
:102998000009D8A4D2EF14F0D4EF14F0B5EF14F076
:1029A800000E0001A36F000EA26F12000401505127
:1029B8000119D8A4E2EF14F0E4EF14F0EDEF14F0ED
:1029C8004F510019D8B4EBEF14F0EDEF14F0FEEF0F
:1029D80014F050C401F44FC400F4240E0001AA6F8F
:1029E800EF0EAB6F4FC4ACF0AD6B50C4AEF0AF6B35
:1029F80049EC19F0000E04014F6F000E506F1200E1
:102A0800040150510119D8A40CEF15F00EEF15F080
:102A180017EF15F04F510019D8B415EF15F017EF4F
:102A280015F028EF15F050C401F44FC400F4820EDD
:102A38000001AA6FF50EAB6F4FC4ACF0AD6B50C47C
:102A4800AEF0AF6B49EC19F0000E04014F6F000EA9
:102A5800506F1200000E0001E56F21EE6AF0DC51A4
:102A6800D926DD51DA22DF50E46FDEC0CFF0DFC0B7
:102A7800D0F0E451F9EC15F0CFC0E0F0D0C0E1F0AF
:102A8800D1C0E2F0D2C0E3F00001E051E111E2115F
:102A9800E311D8B452EF15F054EF15F056EF15F0D6
:102AA800EC0EE56FE5511200FB0E0001AA6FFC0E5B
:102AB800AB6F49EC19F0949C948E8994000EAD6E1E
:102AC800AD8AAD94000EAC6EAC8EAC88000E7E6EF6
:102AD8007E96BE0E096E000E0A6E34EC19F0BFC069
:102AE8007FFFC0C0B0FF0001BEB102D0AD9401D0DD
:102AF800AD849E9A9F8A9D8A1200AE0E0001B06F27
:102B0800000EB16FAAC0B2F0ABC0B3F0000EB66F42
:102B1800000EB56F000EBD6F000EBC6FB20EA26F37
:102B2800000EA36FACC0A4F0ADC0A5F0B00EA66FA8
:102B3800000EA76FAFEC14F00001B551AA25D96EAD
:102B4800B651AB21DA6EDF6A120009C00BF00AC079
:102B58000CF0B1EF15F0094A0A2A09C0F6FF0AC0BD
:102B6800F7FF000EF86E0F0EF76403D00800F5505B
:102B780005D0F6CFE9FFF7CFEAFFEF500009D8A458
:102B8800C8EF15F0CAEF15F0AFEF15F00B50095C60
:102B9800096E0C500A580A6E12000BC012F00CC0D5
:102BA80013F009C010F00AC011F0EBEF15F012C0D5
:102BB800D9FF13C0DAFFDF500F6E124A132A10C074
:102BC800D9FF11C0DAFF0FC0DFFF104A112A0D0626
:102BD800D8A00E060D2806E10E28D8A4F6EF15F0A9
:102BE800F8EF15F0DBEF15F012000001D76F010EBA
:102BF8000001D36F000ED46F000ED56F000ED66F94
:102C0800CFC0C2F0D00EC36F000EC46F010EC56FE7
:102C1800D7515FECC5F0C2C0D8F0C3C0D9F0C4C06A
:102C2800DAF0C5C0DBF0D8C0CFF0D9C0D0F0DAC038
:102C3800D1F0DBC0D2F012000001D76F010E000105
:102C4800D36F000ED46F000ED56F000ED66FCFC0B5
:102C5800C2F0D0C0C3F0D1C0C4F0010EC56FD751C7
:102C680043ECB5F0C2C0D8F0C3C0D9F0C4C0DAF0A4
:102C7800C5C0DBF0D8C0CFF0D9C0D0F0DAC0D1F0F1
:102C8800DBC0D2F012008984000E0C6E5CEF16F0E7
:102C9800ADA251EF16F053EF16F04CEF16F00C50B2
:102CA8000924D96E000E0A20DA6EDF50AE6E0C2AA7
:102CB8000B500C5CD8A063EF16F065EF16F04CEFE4
:102CC80016F0ADA26AEF16F06CEF16F065EF16F08D
:102CD80089941200040150510119D8A476EF16F016
:102CE80078EF16F081EF16F04F510019D8B47FEF46
:102CF80016F081EF16F092EF16F050C401F44FC4AD
:102D080000F4F10E0001AA6FF60EAB6F4FC4ACF0E1
:102D1800AD6B50C4AEF0AF6B49EC19F01200040172
:102D280050510119D8A49BEF16F09DEF16F0A6EFAD
:102D380016F04F510019D8B4A4EF16F0A6EF16F00C
:102D4800B7EF16F050C401F44FC400F4670E000149
:102D5800AA6FF40EAB6F4FC4ACF0AD6B50C4AEF0BD
:102D6800AF6B49EC19F0120020EE04F00950D92697
:102D78000A50DA22010EDF6E20EE05F00950D9263E
:102D88000A50DA22DF6A20EE06F00950D9260A50E6
:102D9800DA22040EDF6E09C0D9FF0AC0DAFF600E1E
:102DA800DE6E130EDE6E000EDE6E000EDD6E000EA1
:102DB8001200E7C0DCF0E8C0DDF0090E0001DE6FAC
:102DC800E9C0DFF0EAC0E0F057EC14F04E6E4E5068
:102DD800D8A4F1EF16F0F3EF16F0FEEF16F0E9C005
:102DE800D9FFEAC0DAFFDF50010BE9C0D9FFEAC01A
:102DF800DAFFDF6E4E5012000001D36F0001D1518F
:102E0800D86FD0C0D9F0CFC0C2F0D80EC36F000EB3
:102E1800C46F020EC56FD3515FECC5F0C2C0D4F0C9
:102E2800C3C0D5F0C4C0D6F0C5C0D7F0D4C0CFF069
:102E3800D5C0D0F0D6C0D1F0D7C0D2F01200000E65
:102E4800261A000E271A000E281A800E291A22C0E8
:102E580009F023C00AF024C00BF025C00CF026C0EE
:102E68000DF027C00EF028C00FF029C010F08AEC32
:102E7800BCF009C022F00AC023F00BC024F00CC03B
:102E880025F01200000E196E000E186E57EF17F09D
:102E980017C00AF00B6A15C00CF016C00DF0C7EC8D
:102EA80003F0184A192A18501324D96E19501420FF
:102EB800DA6EDF50176E1750D8A465EF17F067EF7A
:102EC80017F04CEF17F0120023BE75EF17F02350E0
:102ED80006E12204D8B073EF17F075EF17F083EF0F
:102EE80017F022C024F023C025F0241E251E244AF2
:102EF800252A24C022F025C023F087EF17F022C02E
:102F080022F023C023F01200000120EE18F0BE5179
:102F1800D926BF51DA22DF50E06FC00E186E000EBE
:102F2800196EE051ADEC1AF0610E0001AA6FF60EB1
:102F3800AB6FE0C0ACF0AD6BC00EAE6F000EAF6F04
:102F480049EC19F012000001D66FCFC0C2F0D0C012
:102F5800C3F0D1C0C4F0D2C0C5F00001D6515FECB7
:102F6800C5F0C2C0D7F0C3C0D8F0C4C0D9F0C5C03E
:102F7800DAF0D7C0CFF0D8C0D0F0D9C0D1F0DAC0DD
:102F8800D2F012000001D66FCFC0C2F0D0C0C3F09B
:102F9800D1C0C4F0D2C0C5F00001D65143ECB5F0A1
:102FA800C2C0D7F0C3C0D8F0C4C0D9F0C5C0DAF0E9
:102FB800D7C0CFF0D8C0D0F0D9C0D1F0DAC0D2F0A5
:102FC8001200000E096E0950030DA90EF324D96EE4
:102FD800030EF420DA6EDF6A0950030DAA0EF324FB
:102FE800D96E030EF420DA6EDE6ADD6A092A020E53
:102FF800096401EF18F003EF18F0E7EF17F012007B
:103008000301C24BC32BFB07FB51D8A40EEF18F0EA
:1030180010EF18F014EF18F00A0EFB6F010ED36FC3
:10302800FC07FC51D8A41BEF18F01DEF18F021EF96
:1030380018F0640EFC6F010ED26F1200000E0D6EB8
:10304800000E0C6E32EF18F09C0E0B6ED70EE82EA9
:10305800FED70B2EFCD700F00C4A0D2A09500C5C49
:103068000A500D58D8A03BEF18F03DEF18F028EFA4
:1030780018F0120009500A100B100C10D8B447EFC2
:1030880018F049EF18F051EF18F0000E091A000E69
:103098000A1A000E0B1A800E0C1A09C009F00AC091
:1030A8000AF00BC00BF00CC00CF012000001DE6F30
:1030B800BE0E186E000E196E0001DE51B6EC1AF045
:1030C800060E0001AA6FF80EAB6FDE51AC6FAD6B48
:1030D800ACBFAD07BE0EAE6F000EAF6F49EC19F076
:1030E80012000C6E000E0D6E0CC00EF085EF18F07D
:1030F8000E500A24D96E000E0B20DA6EDF500D2612
:103108000E2A09500E5CD8A08CEF18F08EEF18F03C
:103118007CEF18F00D5012001A6E1A50D8B497EFC1
:1031280018F099EF18F0A8EF18F0B80E0F6EFF0E10
:10313800106E000E116E000E126E000E136E000E51
:10314800146E050EF0ECDDF01AC0D5F31200EAC0DB
:10315800DBF0EBC0DCF0B00E0001DD6FECC0DEF0A0
:10316800EDC0DFF0060EE06F000EE16F000EE26FBB
:10317800000EE36FEAEC0CF04E6E4E501200EAC0FF
:10318800DBF0EBC0DCF0B00E0001DD6FECC0DEF070
:10319800EDC0DFF0060EE06F000EE16F000EE26F8B
:1031A800000EE36F2DEC0DF04E6E4E501200030131
:1031B800D007000ECE25D96EDA6A090EDA22DF5062
:1031C800096ECE2B800ECE65ECEF18F0EEEF18F0FE
:1031D800F0EF18F0000ECE6F09501200016E000ECD
:1031E8000301CF25D96EDA6A090EDA2201C0DFFFA2
:1031F800D02BCF2B800ECF6504EF19F006EF19F016
:1032080008EF19F0000ECF6F1200E00E09240B6EC4
:10321800FF0E0A200C6E0C500AE15F0E0B5CD8A062
:1032280018EF19F01BEF19F0010E1CEF19F0000E42
:10323800096E0A6A12001DC114F11EC115F11FC1E1
:1032480016F120C117F121C118F122C119F1010E9F
:1032580001011A6F36EC07F00101236F23511200A8
:1032680009C0D9FF0AC0DAFFDF6A20EE01F0095071
:10327800D9260A50DA22DF6A20EE02F00950D92650
:103288000A50DA220C0EDF6E1200AC0E0001BC6F81
:10329800000EBD6F000EA26F000EA36FAAC0A4F0AF
:1032A800ABC0A5F0BC0EA66F000EA76FAFEC14F074
:1032B80012000A00000005000000000000000500E0
:1032C800000030313233343536373839616263645F
:0932D8006566286E756C6C290016
:1032E200000E04014F6F000E506F000E726F000E41
:1032F200716F24EE4FF014EE00F0230EDBCFE3FFEC
:10330200E806FCE2120009500B02F3CF0DF0F4CFF5
:103312000EF009500C02F3500E260A500B02F35025
:103322000E260DC009F00EC00AF0120052C116F1AD
:1033320053C117F154C118F155C119F156C11AF10F
:1033420057C11BF1B8ECCCF00001FE6FFE51120028
:10335200EAC2A3F2EBC2A4F2ECC2A5F2EDC2A6F25B
:10336200EEC2A7F2EFC2A8F21EEC99F00101FF6FC4
:10337200FF511200A4BAC0EF19F0C2EF19F0C8EF62
:1033820019F0000E0A6E000E096ECBEF19F0AACFEB
:1033920009F00A6A120020EE12F00950D9260A50EA
:1033A200DA22DF500D6E0BC0D9FF0CC0DAFF0DC060
:1033B200DFFF000E12000301C851C911D8B4E4EFB7
:1033C20019F0E6EF19F0EBEF19F0C807D8A0C9071A
:1033D200BDEC12F01200F0C0E7F0F1C0E8F0F2C06C
:1033E200E9F0F3C0EAF0F4C0EBF093EC0AF04E6EB1
:1033F2004E501200000ECD6ECD9CCD9ECD88CD9A42
:10340200CD82CD80150ECF6EA00ECE6E9E909D8089
:10341200120074C158F175C159F176C15AF177C1E0
:103422005BF196ECA5F00101786F785112004CC166
:10343200FAF04DC1FBF04EC1FCF04FC1FDF0E8ECDB
:10344200D1F00001FE6FFE51120020EE08F009508B
:10345200D9260A50DA220BC0E1FF0CC0E2FFDFCF0F
:10346200E7FF000E1200000E0301A36F000EA46F0F
:10347200000EA56F000EA76F000EA66F000EA86FBC
:1034820012000301D205D8A449EF1AF04BEF1AF04B
:103492004EEF1AF0010E4FEF1AF0000E1200030168
:1034A200D305D8A457EF1AF059EF1AF05CEF1AF0CF
:1034B200010E5DEF1AF0000E120069C162F16AC1DD
:1034C20063F16BC164F16CC165F110ECF0F04E6E0A
:1034D2004E501200FBC0F3F0FCC0F4F0FDC0F5F05A
:1034E200FEC0F6F02AECFEF04E6E4E501200000EB8
:1034F200D56ED58ED59CD586FB0ED76E600ED66E58
:10350200F294F28A1200096EA8A28AEF1AF08CEFE6
:103512001AF085EF1AF009C0A9FF12000A6E0AC05C
:1035220009F00F0E09160A380F0B0A0DF350092481
:103532001200000E0501926F000E916F000E946F43
:10354200000E936F12000A6E0AC009F0D890093279
:1035520009040B6E0B5012001A6E18C013F019C03A
:1035620014F01A504FECFBF012001A6E18C013F050
:1035720019C014F01A5043ECDFF01200000E0A6E6C
:10358200010E096E22EC18F0000E1200096E0950AD
:10359200020DF350020F0A6E0A501200E20E0001F1
:1035A200AA6FF80EAB6F49EC19F01200A6C309F02E
:1035B200A7C30AF01200A39EA39C010E546E120030
:1035C200000E0301D26F1200000E0301D36F12002E
:1035D2000301A85112000301A55112005650120016
:0335E200010A6477
:0635E600120012001200A9
:10E0CC0000535441525400000000000000000000B6
:10E0DC000000000000574954455F414444524553E9
:10E0EC00535F54580000000000524541445F4144C6
:10E0FC0044524553535F54580000000000494E44AD
:10E10C0045585F545800000000000000000000005B
:10E11C0000444154415F54580000000000000000CE
:10E12C00000000000053544F50000000000000009D
:10E13C0000000000000000000053555350454E44B1
:10E14C0000000000000000000000000000524553D9
:10E15C005441525400000000000000000000000078
:10E16C000052454144000000000000000000000087
:10E17C000000000000454E440000000000000000BC
:10E18C000000000000000000000101000B01020073
:10E19C000B0201000C0202000C0301010803020136
:10E1AC00080101000B0102000B0401000C04020029
:10E1BC000C050000004D5347454E4400005245539A
:10E1CC002D53540000434F4D2D5354000095E30A3A
:10E1DC003AE50401FF0001800101FF01010000018B
:10E1EC00FF01014F0201FF0E010003010184010236
:10E1FC000A0103030104080105C801060301078D88
:10E20C000108080109C6010A01010B02010C0001F9
:10E21C000DD5010E18010F1201100101118201120E
:10E22C00000113D5011418011513011603011786EB
:10E23C0001180A011909011A08011BC2011C03016A
:10E24C001D8F011E0A011F0601200101210201225E
:10E25C00000123D501241801252201260101278262
:10E26C000128000129D5012A18012B0B012C2801AA
:10E27C002D78012E28012F9101300001310B013234
:10E28C000001330B0134000135A10136000137A028
:10E29C00013800013904013A28013B30013C0C01E2
:10E2AC003D04013E0F013F7901402801411E01420E
:10E2BC002F01438701440001450B01460001470B28
:10E2CC000148000149A7014A00014BA6014C00017D
:10E2DC004D04014E01014F000150000151800152CB
:10E2EC000901530801540101550001560F015779DA
:10E2FC00015809015905015A00015B60015C0501D7
:10E30C005DD1015E0C015F3C0160000161D00162D6
:10E31C000B01630301642801651001662A0167394A
:10E32C0001680B016902016A28016B10016C2A015A
:10E33C006D61016E0C016F0001700F01717901723A
:10E34C000001730B01740001750B0176000177A1BC
:10E35C000178000179A0017A00017B0401FF04011E
:10E36C00791D017B2701960E0197FE0198030199F7
:10E37C00EF019A02019B4401730701700101FF0137
:10E38C0001000101FF000000000D0A564C3533203E
:10E39C004D454E55450000000000000000000000F7
:10E3AC000000000000000020312E564C35335F4930
:10E3BC004E49540000000000000000000000000066
:10E3CC00000000000020322E434F4E5449494F5557
:10E3DC00532052414E47494E4700000000000000B8
:10E3EC0000000020332E53494E474C452052414EDD
:10E3FC0047494E47000000000000000000000000EC
:10E40C000020342E53494E474C452052414E47492B
:10E41C004E47204841000000000000000000002092
:10E42C00352E53494E474C452052414E47494E4795
:10E43C002048530000000000000000000020362E91
:10E44C0053494E474C452052414E47494E47204C6C
:10E45C00520000000000000000000020372E564C37
:10E46C003533204461746120444953504C41590068
:10E47C0000000000000000000020382E53544F50C4
:10E48C000000000000000000000000000000000080
:10E49C000000000000000020722E45584954000076
:10E4AC000000000000000000000000000000000060
:10E4BC000000000000007274630000000000000007
:10E4CC000172656700000000000000026932630001
:10E4DC0000000000000003766C35330000000000E3
:10E4EC00000470623200000000000000056C6F67D1
:10E4FC0000000000000000066C6F676F666600008D
:10E50C000000076C6F676F6E0000000000086C6FF6
:10E51C0067636C72000000000972733438350000B8
:10E52C000000000A6E6F6E650000000000000D0A0E
:10E53C005253343835204D454E55450000000000EF
:10E54C0000000000000000000000000020312E52EE
:10E55C0058204D4F44450000000000000000000012
:10E56C000000000000000000000020322E54582053
:10E57C004D4F44450000000000000000000000006A
:10E58C00000000000000000020722E455849540085
:10E59C00000000000000000000000000000000006F
:10E5AC00000000000000564C35334C3058204150D0
:10E5BC00492056657273696F6E204572726F723A9C
:10E5CC0020596F7572206669726D7761726520686B
:10E5DC0061732025642E25642E25642028726576AF
:10E5EC006973696F6E202564292E20546869732025
:10E5FC006578616D706C6520726571756972657393
:10E60C002025642E25642E25642E0A002069326391
:10E61C005F77726974654D756C7469284164643DEB
:10E62C00307825782C496E64783D307825782C43E9
:10E63C006E743D25642C44743D307825782C3078EC
:10E64C0025782C307825782C30782578290D0A00FF
:10E65C006473745B305D3D307825782C6473745B27
:10E66C00315D3D307825782C6473745B325D3D30C0
:10E67C007825782C6473745B335D3D307825782C69
:10E68C006473745B345D3D307825780D0A00206925
:10E69C0032635F77726974654D756C746928416477
:10E6AC00643D307825782C496E64783D3078257837
:10E6BC002C436E743D25642C44743D307825782CA5
:10E6CC0030782578290D0A00206932635F777269EA
:10E6DC0074654D756C7469284164643D3078257897
:10E6EC002C496E64783D307825782C436E743D252A
:10E6FC00642C44743D30782578290D0A002050494B
:10E70C004520202020203D203078253032782C20C8
:10E71C003078253032782C203078253032782C2007
:10E72C003078253032782C203078253032780D0A2C
:10E73C00002050495220202020203D2030782530C8
:10E74C0032782C203078253032782C2030782530D7
:10E75C0032782C203078253032782C2030782530C7
:10E76C0032780D0A002049505220202020203D20D4
:10E77C003078253032782C203078253032782C20A7
:10E78C003078253032782C203078253032782C2097
:10E79C003078253032780D0A0043616C6C206F663E
:10E7AC0020564C35334C30585F506572666F726D25
:10E7BC0053696E676C6552616E67696E674D656112
:10E7CC00737572656D656E740D0A004572726F72A9
:10E7DC00203A20436F6D6D616E64202F205265735B
:10E7EC00706F6E73204461746120656E6420747860
:10E7FC0074206E6F6E65200D0A000D0A434F4D4D4F
:10E80C00414E44204D455353414745203A204D61DC
:10E81C00737465722D3E416E6F7468657220446529
:10E82C0076696365200D0A200020204D65617375A3
:10E83C0072656D656E7454696D696E674275646757
:10E84C0065744D6963726F5365636F6E6473203DBD
:10E85C0020307825750D0A00506172743250617247
:10E86C00744F666673657441646A7573746D656E16
:10E87C00744E564D4D6963726F4D65746572203DD3
:10E88C002025640D0A00202050726F647563744952
:10E89C00645B564C35334C30585F4D41585F535484
:10E8AC0052494E475F4C454E4754485D203D20250C
:10E8BC00730D0A002020496E7465724D6561737585
:10E8CC0072656D656E74506572696F644D696C6CC0
:10E8DC00695365636F6E6473203D20307825750D28
:10E8EC000A004572726F7220657870656374656496
:10E8FC002063757420312E312062757420666F751B
:10E90C006E64206375742025642E25640D0A002026
:10E91C00205854616C6B436F6D70656E73617469D4
:10E92C006F6E52616E67654D696C6C694D6574658F
:10E93C0072203D20307825780D0A00206932635F03
:10E94C00726561644D756C7469284164643D3078FE
:10E95C0025782C496E64783D307825782C436E747C
:10E96C003D2564290D0A000D0A524553504F4E5354
:10E97C00204D455353414745203A204D792044655D
:10E98C0076696365202D3E204D61737465720D0AA6
:10E99C00200043616C6C206F6620564C35334C3034
:10E9AC00585F506572666F726D5265665370616424
:10E9BC004D616E6167656D656E740D0A000D0A43DD
:10E9CC004F4D4D414E44204D455353414745203A00
:10E9DC00204D61737465722D3E4D792044657669C6
:10E9EC006365200D0A2000493D25642C533D2530DC
:10E9FC0032782C43313D253032782C43323D253052
:10EA0C0032782C42463D25303278202025730D0A71
:10EA1C0000564C35334C30582050414C20436F6ECF
:10EA2C0074696E756F75732052616E67696E6720BD
:10EA3C006578616D706C650D0A0043616C6C206FBC
:10EA4C006620564C35334C30585F506572666F7289
:10EA5C006D52656643616C6962726174696F6E0DAB
:10EA6C000A0020205854616C6B436F6D70656E7397
:10EA7C006174696F6E526174654D65676143707343
:10EA8C00203D20307825750D0A004572726F72207A
:10EA9C003A20526573706F6E7320446174612073F9
:10EAAC007461727420747874206E6F6E65200D0A18
:10EABC0000564C35334C30585F44617461496E6973
:10EACC0074323A4F73634672657175656E63794D36
:10EADC00487A3D25750D0A00564C35334C30585F3D
:10EAEC0044617461496E69743A4F7363467265711F
:10EAFC0075656E63794D487A3D25750D0A00564C47
:10EB0C0035334C3058204150492053696D706C6539
:10EB1C002052616E67696E67206578616D706C65F7
:10EB2C000D0A0A00202046696E616C52616E6765A1
:10EB3C0054696D656F75744D6963726F536563735A
:10EB4C00203D20307825750D0A00202046696E6125
:10EB5C006C52616E6765566373656C50756C73654A
:10EB6C00506572696F64203D20307825780D0A005D
:10EB7C00564C35334C30585F486973746F6772610B
:10EB8C006D4D6561737572656D656E74446174610C
:10EB9C005F740D0A00564C35334C30585F44657623
:10EBAC006963655370656369666963506172616D11
:10EBBC0065746572735F740D0A0020205573654986
:10EBCC006E7465726E616C54756E696E67536574A4
:10EBDC0074696E6773203D20307825780D0A00200B
:10EBEC002020526561642064617461203D2030787E
:10EBFC0025782C307825782C307825782C30782591
:10EC0C00780D0A005061727432506172744F6666EE
:10EC1C007365744E564D4D6963726F4D65746572B4
:10EC2C00203D2025640D0A0020205369676E616C1D
:10EC3C00526174654D656173466978656434303032
:10EC4C006D6D203D20307825750D0A002020507206
:10EC5C006552616E676554696D656F75744D696356
:10EC6C00726F53656373203D20307825750D0A0053
:10EC7C00202050726552616E6765566373656C50E7
:10EC8C00756C7365506572696F64203D2030782512
:10EC9C00780D0A00E29885564C35335F53746172D7
:10ECAC007453696E676C65484128533D25642C4547
:10ECBC003D2564290D0A00E29885564C35335F5387
:10ECCC007461727453696E676C654C5228533D25A0
:10ECDC00642C453D2564290D0A00E29885564C3577
:10ECEC00335F537461727453696E676C6548532853
:10ECFC00533D25642C453D2564290D0A00564C35A1
:10ED0C00334C30585F52616E67696E674D65617345
:10ED1C007572656D656E74446174615F740D0A0083
:10ED2C0043616C6C206F6620564C35334C30585F09
:10ED3C0053746172744D6561737572656D656E7433
:10ED4C000D0A0020205854616C6B436F6D70656E1A
:10ED5C00736174696F6E456E61626C65203D203025
:10ED6C007825780D0A0020204C696E6561726974F3
:10ED7C0079436F72726563746976654761696E2059
:10ED8C003D20307825780D0A0043616C6C206F664D
:10ED9C0020564C35334C30585F53746F704D656151
:10EDAC00737572656D656E740D0A00202052656175
:10EDBC00644461746146726F6D4465766963654441
:10EDCC006F6E65203D20307825780D0A00202A20B2
:10EDDC00202020202A202A2020202020202A202AFF
:10EDEC002A2A20202A2020202A200D0A0D0A00453C
:10EDFC0072726F72203A20526573706F6E7320645A
:10EE0C006174612073697A65206F7665720D0A00F2
:10EE1C004572726F72203A20526573706F6E732058
:10EE2C00646174612063686B73756D20656F6F72BC
:10EE3C0000E29885564C35335F5374617274536994
:10EE4C006E676C6528533D25642C453D2564290D62
:10EE5C000A0020205772617041726F756E644368AE
:10EE6C0065636B456E61626C65203D20307825785A
:10EE7C000D0A00202052616E6765467261637469E9
:10EE8C006F6E616C456E61626C65203D203078253B
:10EE9C00780D0A0020205369676D614573744566CF
:10EEAC006650756C73655769647468203D203078C2
:10EEBC0025780D0A00202050696E304770696F4626
:10EECC00756E6374696F6E616C697479203D203066
:10EEDC007825780D0A00576169744D6561737572F8
:10EEEC00656D656E7444617461526561647928293D
:10EEFC00205354415254004552524F5220285752DD
:10EF0C00495445204D41494E2920535441545553A1
:10EF1C00203D2025640D0A00E29885564C35335F60
:10EF2C0053746F7053696E676C6528533D25642C60
:10EF3C00453D2564290D0A00E29885564C35335F12
:10EF4C005374617274436F6E746928533D25642C3D
:10EF5C00453D2564290D0A00202052616E67654FDE
:10EF6C0066667365744D6963726F4D657465727313
:10EF7C00203D2025640D0A0043616C6C206F6620D7
:10EF8C00564C35334C30585F536574446576696321
:10EF9C00654D6F64650D0A00202052616E676544F3
:10EFAC004D61784D696C6C694D65746572203D20BE
:10EFBC002564206D6D0D0A004552524F5220285287
:10EFCC00454144204D41494E2920535441545553F9
:10EFDC00203D2025640D0A00202A20202020202AF4
:10EFEC00202020202A20202020202A2A2A20202AE3
:10EFFC002020202A200D0A00202A202A202A202A1C
:10F00C002020202A202A20202020202A2020202ACC
:10F01C002A20202A200D0A00202A20202A20202AFB
:10F02C0020202A2A2A2A2A202020202A2020202A8E
:10F03C00202A202A200D0A00202A20202020202AE5
:10F04C0020202A202020202A2020202A2020202A8C
:10F05C0020202A2A200D0A00533D253032782C43DB
:10F06C00313D253032782C43323D253032782C42DC
:10F07C00463D253032782000E29885564C35335F7A
:10F08C004D737253696E676C6528533D25642C452E
:10F09C003D2564290D0A00E29885564C35335F53A3
:10F0AC00746F70436F6E746928533D25642C453D15
:10F0BC002564290D0A002020416D6269656E745229
:10F0CC0061746552746E4D656761437073203D20A9
:10F0DC0025640D0A002020456666656374697665B3
:10F0EC005370616452746E436F756E74203D2025AD
:10F0FC00640D0A0020204D6561737572656D656E37
:10F10C007454696D6555736563203D2030782575A1
:10F11C000D0A0020204C617374456E636F64656446
:10F12C0054696D656F757420203D20307825780DFD
:10F13C000A0020205265665370616473496E6974CD
:10F14C0069616C69736564203D20307825780D0AFF
:10F15C000020205369676D61457374456666416D87
:10F16C00625769647468203D20307825780D0A0058
:10F17C00202052616E67654672616374696F6E61BF
:10F18C006C50617274203D20307825780D0A005740
:10F19C006169744D6561737572656D656E744461FA
:10F1AC0074615265616479282920454E4400647469
:10F1BC00385B5D3D20253032782025303278202593
:10F1CC003032782025303278200D0A003030322051
:10F1DC0052616E67654D696C6C694D657465722C16
:10F1EC003D2564282564290D0A00303033205261F6
:10F1FC006E67654D696C6C694D657465722C3D2547
:10F20C0064282564290D0A00E29885564C35335F35
:10F21C004D7372436F6E746928533D25642C453DC4
:10F22C002564290D0A0020205369676E616C5261B8
:10F23C00746552746E4D656761437073203D202573
:10F24C00640D0A0020205265666572656E63655315
:10F25C00706164436F756E74203D20307825780D95
:10F26C000A002A2A2A204F5343494C4C41544F52EE
:10F27C00202A2A2A2A2A2A2A2A2A2A2A2A0D0A0053
:10F28C0052414E47452049474E4F52452054485213
:10F29C004553484F4C443A2025660D0A00564C35D0
:10F2AC00334C30585F446576696365506172616DAB
:10F2BC0065746572735F740D0A0043616C6C206F2A
:10F2CC006620564C35334C30585F53746174696307
:10F2DC00496E69740D0A0020204C61737453696780
:10F2EC006E616C5265664D637073203D20307825DD
:10F2FC00750D0A0020205265666572656E63655354
:10F30C0070616454797065203D20307825780D0A41
:10F31C00002A2A2A20494E54455252555054202A2C
:10F32C002A2A2A2A2A2A2A2A2A2A2A0D0A0044693F
:10F33C007363617264207265636569766564206DC0
:10F34C00657373616765200D0A0050726F64756395
:10F35C00745265766973696F6E4D616A6F72203A8B
:10F36C002025640D0A0050726F64756374526576C3
:10F37C006973696F6E4D696E6F72203A2025640D4A
:10F38C000A00202052616E67654D696C6C694D6591
:10F39C00746572203D202564206D6D0D0A002020BF
:10F3AC004F73634672657175656E63794D487A204B
:10F3BC00203D20307825750D0A0020205369676D9B
:10F3CC00614573745265664172726179203D2030DB
:10F3DC007825780D0A00576169742053746F70207A
:10F3EC00746F20626520636F6D70657465640D0ABF
:10F3FC000043616C6C206F6620564C35334C305892
:10F40C005F44617461496E69740D0A0020202052BA
:10F41C006561642064617461203D20307825782C0E
:10F42C00307825780D0A0043616C696272617469E9
:10F43C006F6E205761726E696E67204572726F72C3
:10F44C00005265666572656E636520537061642059
:10F45C00496E6974204572726F7200E29885564C41
:10F46C0035335F53746F7028533D25642C453D250F
:10F47C0064290D0A00496E206C6F6F70206D6561F8
:10F48C00737572656D656E743D2025640D0A0020E0
:10F49C00205369676E616C457374696D6174652086
:10F4AC003D20307825750D0A002020536571756557
:10F4BC006E6365436F6E666967203D2030782578F2
:10F4CC000D0A000A2A2A2A205541525431202A2A90
:10F4DC002A2A2A2A2A2A2A2A2A2A0D0A000A2A2A07
:10F4EC002A205541525432202A2A2A2A2A2A2A2AE8
:10F4FC002A2A2A2A0D0A0020535042524731202032
:10F50C0020203D20307825303278253032780D0A95
:10F51C000020535042524732202020203D2030788A
:10F52C0025303278253032780D0A004750494F206B
:10F53C0066756E6374206E6F7420737570706F7265
:10F54C00746564004D6F6465206E6F742073757004
:10F55C00706F72746564206572726F7200496E769A
:10F56C00616C696420706172616D65746572732081
:10F57C006572726F7200E29885564C35335F6E6F10
:10F58C007028533D25642C453D2564290D0A0056F1
:10F59C004C35334C30585F47657444657669636508
:10F5AC00496E666F3A0D0A0020205369676D6145FC
:10F5BC007374696D617465203D20307825750D0A72
:10F5CC00002020486973746F6772616D4D6F6465BC
:10F5DC00203D20307825780D0A0020207461726758
:10F5EC00657452656652617465203D2030782578CB
:10F5FC000D0A0020204C696D6974436865636B7358
:10F60C00456E61626C655B5D203D200020204C697D
:10F61C006D6974436865636B735374617475735B64
:10F62C005D203D2000436F6E74726F6C20496E74C8
:10F63C00657266616365204572726F72004D65611B
:10F64C0073757265642064697374616E63653A20C6
:10F65C0025690D0A0052616E6765205374617475DB
:10F66C00733A202569203A2025730D0A002020507A
:10F67C006172745549445570706572203D20307824
:10F68C0025750D0A002020506172745549444C6F49
:10F69C00776572203D20307825750D0A00202053A7
:10F6AC00746F705661726961626C65203D203078B0
:10F6BC0025780D0A0020204E756D6265724F6642EA
:10F6CC00696E73203D20307825780D0A0020204C7F
:10F6DC00696D6974436865636B7356616C75655BC2
:10F6EC005D203D2000564C35335F4461746152659A
:10F6FC007128533D25642C453D25642900457272C3
:10F70C006F7220493243446174612053697A6520D9
:10F71C004F766572002A2A2A20504F5254202A2AEA
:10F72C002A2A2A2A2A2A2A2A2A2A0D0A000D0A32C9
:10F73C003025642F25642F25642025643A25643AEE
:10F74C0025640D0A004469766973696F6E206279CD
:10F75C00207A65726F204572726F720020205261A0
:10F76C006E6765537461747573203D20307825780D
:10F77C000D0A0020204572726F7253746174757398
:10F78C00203D20307825780D0A002A2A2A2049327B
:10F79C0043202A2A2A2A2A2A2A2A2A2A2A2A0D0AEB
:10F7AC00005253343835204F5645522052554E2076
:10F7BC004552524F520D0A00496E74657272757043
:10F7CC0074206E6F7420436C656172656400496EC1
:10F7DC0076616C696420436F6D6D616E6420457257
:10F7EC00726F72004E6F7420696D706C656D656E12
:10F7FC00746564206572726F7200415049205374B5
:10F80C00617475733A202569203A2025730D0A001E
:10F81C0020204465766963654D6F6465203D20301A
:10F82C007825780D0A00202042756666657253694A
:10F83C007A65203D20307825780D0A002020493249
:10F84C006344657641646472203D20307825780DE0
:10F85C000A002020526566476F6F64537061644DD7
:10F86C0061705B5D203D2000202052656653706105
:10F87C0064456E61626C65735B5D203D20002020E9
:10F88C0020526561642064617461203D20307825CC
:10F89C00780D0A00205353503141444420203D2020
:10F8AC003078253032780D0A0A00205353503241FB
:10F8BC00444420203D203078253032780D0A0A004F
:10F8CC00436F6D6D616E64206E6F7420666F756E24
:10F8DC00642E200D0A002A2A2A2055534152542006
:10F8EC005365747570202A2A2A0D0A00205243533E
:10F8FC00544131202020203D203078253032780DA5
:10F90C000A0020545853544131202020203D2030EF
:10F91C0078253032780D0A00205458535441322047
:10F92C002020203D203078253032780D0A002052DE
:10F93C004353544133202020203D20307825303251
:10F94C00780D0A002042415544434F4E3120203D52
:10F95C00203078253032780D0A002042415544433E
:10F96C004F4E3220203D203078253032780D0A0061
:10F97C00433D25642C696E6465783D25642C666C6A
:10F98C00673D2564200049324320726567697374B2
:10F99C006120646973706C61790D0A00564C3533C3
:10F9AC004C305820455331206F72206C6174657255
:10F9BC0000564C35334C30585F537061644461745D
:10F9CC00615F740D0A00202054696D655374616D7C
:10F9DC0070203D20307825750D0A002020506F775F
:10F9EC0065724D6F6465203D20307825780D0A00D6
:10F9FC0020202020202020202020202020202020FB
:10FA0C0020203D20002020486973746F6772616D5F
:10FA1C00446174615B5D203D2000204F534354557D
:10FA2C004E45203D203078253032780D0A0A0020D2
:10FA3C0053535031434F4E31203D203078253032D6
:10FA4C00780D0A002053535032434F4E31203D2045
:10FA5C003078253032780D0A002053535031434F03
:10FA6C004E32203D203078253032780D0A0020535C
:10FA7C00535032434F4E32203D203078253032786F
:10FA8C000D0A00205353503153544154203D203023
:10FA9C0078253032780D0A0020535350325354419C
:10FAAC0054203D203078253032780D0A006765747B
:10FABC006368343835282920646174613D25780DDC
:10FACC000A004E6F7420737570706F7274656420C9
:10FADC006572726F720020204D6F64756C6549649D
:10FAEC00203D20307825780D0A00202050616C5381
:10FAFC0074617465203D20307825780D0A00202033
:10FB0C00466972737442696E203D20307825780DF9
:10FB1C000A0020205265766973696F6E203D203093
:10FB2C007825780D0A002020616D62526174655F42
:10FB3C006D6370735B5D203D20004552524F522027
:10FB4C00535441545553203D2025640D0A00205434
:10FB5C005249534520203D203078253032780D0A0B
:10FB6C000A002052434F4E202020203D2030782583
:10FB7C003032780D0A00204F5343434F4E20203D26
:10FB8C00203078253032780D0A0020494E54434FEE
:10FB9C004E20203D203078253032780D0A00204F41
:10FBAC005343434F4E32203D203078253032780D70
:10FBBC000A0020494E54434F4E32203D20307825C8
:10FBCC003032780D0A0020494E54434F4E33203DBD
:10FBDC00203078253032780D0A00556E6B6E6F77B9
:10FBEC006E204572726F7220436F646500446576B7
:10FBFC00696365204E616D65203A2025730D0A00FE
:10FC0C004465766963652054797065203A202573C4
:10FC1C000D0A00496E697469616C697A6520456EDC
:10FC2C00640D0A0D0A0020545249534120203D20F6
:10FC3C003078253032780D0A002054524953422036
:10FC4C00203D203078253032780D0A00205452495E
:10FC5C00534320203D203078253032780D0A002087
:10FC6C00545249534420203D203078253032780DB1
:10FC7C000A006D61696E5F6C6F6F705F64697370A1
:10FC8C0028290D0A004750494F206E6F7420657863
:10FC9C00697374696E67004D696E20636C6970706E
:10FCAC006564206572726F72005F44617461496EA5
:10FCBC00697428292053544152540020205A6F6EE5
:10FCCC00654964203D20307825780D0A0042756620
:10FCDC0066657220746F6F20736D616C6C00446587
:10FCEC0076696365204944203A2025730D0A007516
:10FCFC006172743438355F696E697428290D0A0095
:10FD0C00556E646566696E6564206572726F72000B
:10FD1C005F44617461496E6974282920454E440022
:10FD2C0025643A25643A25642025642E2564200038
:10FD3C005750543D25642C5250543D25640D0A00F7
:10FD4C00202053535032434F4E313D25780D0A003D
:10FD5C00202053535032434F4E323D25780D0A002C
:10FD6C00202053535032535441543D25780D0A00F2
:10FD7C0020202A7074663D2025670D0A0D0A004D5F
:10FD8C00696E2052616E6765204661696C0054692A
:10FD9C006D65206F7574206572726F72002020641F
:10FDAC006D61785F6D6D5B5D203D20006932635F36
:10FDBC00696E6974282564290D0A004C4F47204F41
:10FDCC004646203D2025640D0A00443D25642C69DF
:10FDDC006E6465783D2564200054696D65725F69B9
:10FDEC006E697428290D0A00202053535032414467
:10FDFC00443D25780D0A0020206474663D2025645E
:10FE0C000D0A0D0A00434F4D4D414E443D202564D3
:10FE1C000D0A004861726477617265204661696CF5
:10FE2C00004C4F47204F4E203D2025640D0A0025E5
:10FE3C003032642E253033642E256420002020536C
:10FE4C0053504144443D25780D0A0020202A7074FB
:10FE5C00663D2025670D0A0053434C203130304B52
:10FE6C00487A0D0A0053434C203430304B487A0DFD
:10FE7C000A006932635F696E697428290D0A0020D3
:10FE8C002066616C73653D25780D0A00646F7562A0
:10FE9C006C653D25640D0A0020206474663D2025A8
:10FEAC00650D0A0020206474663D2025660D0A004D
:10FEBC0020206474663D2025670D0A00564C3533AE
:10FECC004C30582054533000564C35334C3058205D
:10FEDC0054533100564C35334C3058205453320067
:10FEEC0052616E67652056616C6964005369676E78
:10FEFC00616C204661696C0052616E6765206572A9
:10FF0C00726F72004C4F4720434C4541520D0A0012
:10FF1C002020747275653D25780D0A00666C6F6142
:10FF2C00743D25640D0A0073686F72743D25640D71
:10FF3C000A005369676D61204661696C0050686105
:10FF4C007365204661696C0020205344413D25783F
:10FF5C000D0A00202053434C3D25780D0A00647493
:10FF6C00663D2564200D0A006C6F6E673D25640D9F
:10FF7C000A00636861723D25640D0A004E6F2055BE
:10FF8C00706461746500427574746F6E310D0A0093
:10FF9C00427574746F6E320D0A00696E743D25647F
:10FFAC000D0A004E6F204572726F72004C4F472045
:10FFBC0053544F5000564C35334C30580030782544
:10FFCC003032782C004554432E0D0A0030782575BC
:10FFDC002C005049433E2000533D25642000202531
:10FFEC00732000696E66006E616E006C6C730008A5
:04FFFC0020080000D9
:020000040001F9
:10000000580E0001A16F020EA26F000EA36F000E2A
:10001000A46F000E606F000E616F190E626F000E0C
:10002000636F5C0E646F120E656F000E666F000EDC
:10003000676FAE0ECE6F870ECF6F8F0ED06F020E32
:10004000D16F000EA56FF00EA66F000EA76F000E09
:10005000A86F000E156E000E166E000E176EF00ED5
:10006000186EA1C019F0A2C01AF0A3C01BF0A4C062
:100070001CF0F0EC09F015C0A9F016C0AAF017C0EA
:10008000ABF018C0ACF020EE15F03C50D9263D5036
:10009000DA22DECFC2F0DECFC3F0DECFC4F0DECF97
:1000A000C5F020EE10F03E50D9263F50DA22DECFC8
:1000B00009F0DECF0AF0DECF0BF0DECF0CF0E80E59
:1000C0000D6E030E0E6E000E0F6E000E106EBEEC67
:1000D00011F00BC074F00CC075F00001766B776BFB
:1000E0003CC029F03DC02AF03EC02BF03FC02CF0B0
:1000F000DB0E2D6E000E2E6E1BEC11F03CC015F0C9
:100100003DC016F03EC017F03FC018F0C20E196E89
:10011000000E1A6E13ECFFF00001DA6FDBC009F07D
:10012000DCC00AF0DDC00BF0DEC00CF0E80E0D6E96
:10013000030E0E6E000E0F6E000E106EBEEC11F070
:1001400009C0EBF00AC0ECF00BC0EDF00CC0EEF013
:10015000000E0001EB25426E800EEC21436E000E76
:10016000ED21446E000EEE21456E44C0EBF045C01B
:10017000ECF0ED6BEE6BC2C009F0C3C00AF0C4C076
:100180000BF0C5C00CF0E80E0D6E030E0E6E000EE7
:100190000F6E000E106EBEEC11F009C0BDF00AC06B
:1001A000BEF00BC0BFF00CC0C0F00001C0510CE1AC
:1001B000BD05000EBE59320EBF59D8A0E2EF80F047
:1001C000E4EF80F0ECEF80F0000EBD6F000EBE6F2C
:1001D000320EBF6F000EC06FDA51D8A4F2EF80F07C
:1001E000F4EF80F04BEF82F020EEFEF03C50D92689
:1001F0003D50DA22DECFADF0DECFAEF0DECFAFF095
:10020000DECFB0F021EE02F03C50D9263D50DA228C
:10021000DF50C16F3CC025F03DC026F0ADC027F0D7
:10022000AEC028F0AFC029F0B0C02AF0C1C02BF09A
:1002300087ECFFF025C080F026C081F027C082F057
:1002400028C083F021EE03F03C50D9263D50DA223D
:10025000DECFB1F0DECFB2F0DECFB3F0DECFB4F060
:1002600021EE07F03C50D9263D50DA22DF50000144
:100270009C6F3CC025F03DC026F0B1C027F0B2C055
:1002800028F0B3C029F0B4C02AF09CC02BF087EC52
:10029000FFF025C084F026C085F027C086F028C076
:1002A00087F0030E0001986F000E996F000E9A6F91
:1002B000000E9B6F080EC119D8A461EF81F063EFA7
:1002C00081F06BEF81F0020E986F000E996F000EB7
:1002D0009A6F000E9B6F80518425096E8151852194
:1002E0000A6E825186210B6E835187210C6E98C055
:1002F00042F099C043F09AC044F09BC045F00B0E09
:10030000D8904236433644364536E82E80EF81F0A9
:1003100042C00DF043C00EF044C00FF045C010F0D5
:10032000BEEC11F009C0D6F00AC0D7F00BC0D8F06F
:100330000CC0D9F0F40E0001D625156E010ED721A0
:10034000166E000ED821176E000ED921186EE80E19
:10035000196E030E1A6E000E1B6E000E1C6EF0EC72
:1003600009F015C0D6F016C0D7F017C0D8F018C0E5
:10037000D9F0D6C009F0D7C00AF0D8C00BF0D9C068
:100380000CF0770E0D6E060E0E6E000E0F6E000E48
:10039000106EBEEC11F009C0D6F00AC0D7F00BC049
:1003A000D8F00CC0D9F0F40E0001D625156E010E60
:1003B000D721166E000ED821176E000ED921186EA7
:1003C000E80E196E030E1A6E000E1B6E000E1C6EE8
:1003D000F0EC09F015C0D6F016C0D7F017C0D8F071
:1003E00018C0D9F0800E0001DB25426E000EDC2122
:1003F000436E000EDD21446E000EDE21456E43C0CB
:1004000042F044C043F045C044F0456A42C0DBF0CE
:1004100043C0DCF044C0DDF045C0DEF0DBC009F0D5
:10042000DCC00AF0DDC00BF0DEC00CF0D6C00DF071
:10043000D7C00EF0D8C00FF0D9C010F0BEEC11F04C
:1004400009C0D2F00AC0D3F00BC0D4F00CC0D5F074
:10045000800E0001D225426E000ED321436E000EA5
:10046000D421446E000ED521456E43C042F044C0F5
:1004700043F045C044F0456A42C0D2F043C0D3F0D7
:1004800044C0D4F045C0D5F0DDC0DEF0DCC0DDF006
:10049000DBC0DCF0DB6BDA51D8B451EF82F053EF04
:1004A00082F056EF82F0DA51D5EF86F0EB51EC1185
:1004B000ED11EE11D8A45FEF82F061EF82F07DEFD5
:1004C00082F040C0D9FF41C0DAFFAE0EDE6E870E6B
:1004D000DE6E8F0EDE6E020EDD6E21EE59F03C50A8
:1004E000D9263D50DA22AE0EDE6E870EDE6E8F0EFE
:1004F000DE6E020EDD6E53EF82F0D251D311D411B5
:10050000D511D8A486EF82F088EF82F090EF82F0C8
:10051000010ED26F000ED36F000ED46F000ED56F98
:10052000200E686F030E696F000E6A6F000E6B6F0E
:1005300074C042F075C043F076C044F077C045F017
:1005400043C045F042C044F0436A426A42C015F0DD
:1005500043C016F044C017F045C018F0EBC019F0C6
:10056000ECC01AF0EDC01BF0EEC01CF0F0EC09F08E
:1005700015C0C6F016C0C7F017C0C8F018C0C9F043
:100580000001C651A95DC751AA59C851AB59C951FB
:10059000AC59D8B0CEEF82F0D0EF82F0D8EF82F035
:1005A000A9C0C6F0AAC0C7F0ABC0C8F0ACC0C9F0C3
:1005B000C6C009F0C7C00AF0C8C00BF0C9C00CF033
