:0400000013EF00F00A
:060008004182D7EF01F078
:100018004180E0CF1EF01EC0E0FF41901000A7EF26
:1000280008F026BE1AEF00F01CEF00F01DEF00F0FC
:10003800319226BE24EF00F022EF00F02BEF00F003
:10004800000E00017D6F010E7C6F2FEF00F025C0C0
:100058007CF026C07DF023C07EF024C07FF0000E27
:100068000001816F4F0E806F000E05017A6F68EFF7
:1000780000F08007D8A081072B0E8025D96E050EC9
:100088008121DA6E7AC01FF07BC020F0000E226E4C
:100098000A0E216E71EC19F01F50300FDF6E00014F
:1000A8007C07D8A07D077E07D8A07F077AC062F0BA
:1000B8007BC063F0000E656F0A0E646F47EC17F0A3
:1000C80062C07AF063C07BF0000180518111D8B41E
:1000D80070EF00F072EF00F09CEF00F07A517B11A6
:1000E800D8A479EF00F07BEF00F03DEF00F07DBF82
:1000F80088EF00F07D5106E17C05D8B086EF00F06E
:1001080088EF00F03DEF00F07FBF93EF00F07F51E4
:1001180008E17E05D8A093EF00F095EF00F09CEF82
:1001280000F031B29AEF00F09CEF00F03DEF00F0E4
:1001380078C06DF079C06EF02B0E80256F6F050EBC
:100148008121706F7EC071F07FC072F0FFEC10F0FB
:1001580012009B8C0F013985F19E700ED36E1F0E15
:10016800486F1F0E496F000E926E300E936E000E90
:10017800946E0F0E956E000E806E000E816E000E4E
:10018800826E000E836E92909292929493948980DC
:10019800898295869584000E206E0A0E1F6E8EEC5D
:1001A8001EF065EC1AF0EEEC20F0C4EC1BF086ECC7
:1001B80020F09E0E0001E76FFE0EE86F8EEC1FF038
:1001C800010EA4EC19F032EC20F0210E0001E76FCB
:1001D800FE0EE86F8EEC1FF0ADEC20F023EC20F063
:1001E80051EC1EF0690E0001E76FFE0EE86F74CF48
:1001F800E9F0EA6B8EEC1FF00C0E0001E76FFF0EC2
:10020800E86F000EEA6F010EE96F8EEC1FF0AB0E7F
:100218000001E76FFE0EE86F000EEA6F000EE96F4F
:100228008EEC1FF03F0E0001E76FFB0EE86F8EECBF
:100238001FF082EC17F0A0EC20F0E806D8A427EF16
:1002480001F029EF01F02DEF01F01CEC21F067EC33
:10025800EFF093EC20F0E806D8A435EF01F037EF83
:1002680001F03BEF01F019EC21F013EC20F0ABECBE
:10027800D4F022ECCAF01FEF01F013EF00F0000EEB
:100288000201D56F21EE4CF0D151D926D251DA2294
:10029800DF50D56FD1C228F1D2C229F1010E010178
:1002A8002A6FC00E2B6F9AEC1BF00201D66FD65145
:1002B800D8A461EF01F063EF01F06FEF01F0D1C254
:1002C800CDF2D2C2CEF2D70ECF6F020ED06F8EEC27
:1002D800FEF00201D66FD651D8A475EF01F077EF82
:1002E80001F084EF01F0D1C228F1D2C229F1FF0E4A
:1002F80001012A6F010E2B6F9AEC1BF00201D66FD9
:10030800D651D8A48AEF01F08CEF01F09BEF01F0F1
:10031800D1C234F1D2C235F1B60E0101366FD3C263
:1003280037F1D4C238F117EC1BF00201D66FD65161
:10033800D8A4A1EF01F0A3EF01F0B0EF01F0D1C212
:1003480028F1D2C229F1FF0E01012A6F000E2B6F8E
:100358009AEC1BF00201D66FD651D8A4B6EF01F083
:10036800B8EF01F0D5EF01F0D1C228F1D2C229F1DE
:10037800010E01012A6FD5C22BF19AEC1BF0020184
:10038800D66FD651D8A4CBEF01F0CDEF01F0D5EF61
:1003980001F021EE4CF0D151D926D251DA22D5C242
:1003A800DFFFD6511200E1CF14F0E2CF15F0D9CF1C
:1003B80016F0DACF17F0F3CF18F0F4CF19F0F6CF24
:1003C8001AF0F7CF1BF0F8CF1CF0F5CF1DF0F2A410
:1003D800F0EF01F0F2EF01F0FBEF01F0F294F29A86
:1003E8009BEC18F0FB0ED76E600ED66EF28A9EA0BC
:1003F80000EF02F002EF02F00DEF02F09E909D90E8
:10040800ACEC1EF02CEC18F0150ECF6EA00ECE6ED4
:100418009D80A4A012EF02F014EF02F019EF02F091
:10042800A490A3902BEC21F0A3809EAA1EEF02F0CB
:1004380020EF02F024EF02F09E9AAF504CEC1FF030
:10044800A3AC29EF02F02BEF02F035EF02F0A4ACD9
:1004580030EF02F032EF02F035EF02F0A49CB6EC78
:100468001FF0A3AE3AEF02F03CEF02F046EF02F0C5
:10047800A4AE41EF02F043EF02F046EF02F0A49E73
:100488002AEC21F01DC0F5FF1CC0F8FF1BC0F7FFC8
:100498001AC0F6FF19C0F4FF18C0F3FF17C0DAFF3F
:1004A80016C0D9FF15C0E2FF14C0E1FF4192110048
:1004B800000E01013A6F33C128F134C129F1830ECE
:1004C8002A6F000E2B6F9AEC1BF001013A13010EF4
:1004D800CAEC1EF001013A51D8A475EF02F077EF8B
:1004E80002F0C9EF02F0000E356F000E366F000EF5
:1004F800376F000E386F33C128F134C129F1830EEC
:100508002A6F390E2B6F010E2C6FEBEC1AF00101DC
:100518003A6F3951D8A493EF02F095EF02F0B9EF92
:1005280002F03A51D8B49BEF02F09DEF02F09FEF32
:1005380002F0B9EF02F0010E3525356F000E3621B5
:10054800366F000E3721376F000E3821386F38515B
:1005580037110BE1D00E355D070E3659D8A0B7EF2D
:1005680002F0B9EF02F07FEF02F0385137110BE1DA
:10057800D00E355D070E3659D8A0C5EF02F0C7EF8B
:1005880002F0C9EF02F0F90E3A6F33C128F134C115
:1005980029F1830E2A6F010E2B6F9AEC1BF00101D3
:1005A8003A13B10E1F6EEF0E206E3AC121F028ECFF
:1005B80021F001013A511200213422340001656F03
:1005C8006551D8A4EAEF02F0ECEF02F0F6EF02F082
:1005D800000E1F6E000E206E000E216E000E226EA1
:1005E80063EF03F01FC060F020C061F021C062F02B
:1005F80022C063F0200E06EF03F0D8906333623315
:1006080061336033E82E01EF03F06051646F218E8F
:10061800FF0E1F16FF0E2016FF0E2116000E2216C3
:10062800960E655F65BF1DEF03F01BEF03F033EF18
:1006380003F06551800A970FD8B025EF03F027EF34
:1006480003F029EF03F0ECEF02F0D89022322132C8
:1006580020321F32653F29EF03F04BEF03F01F0EE6
:10066800656539EF03F03BEF03F043EF03F0ECEF80
:1006780002F0D8901F36203621362236650765519C
:10068800D8A449EF03F04BEF03F03DEF03F06451BA
:10069800D8B451EF03F053EF03F05BEF03F0221EE1
:1006A800211E201E1F6C000E2022212222221FC084
:1006B8001FF020C020F021C021F022C022F012003B
:1006C800000E000175157D6F000E76157E6F800E89
:1006D80077157F6F7F0E7815806F7D517E117F11A2
:1006E8008011D8A47AEF03F07CEF03F084EF03F0D5
:1006F800000E756F000E766F000E776F000E786F24
:10070800000E79157D6F000E7A157E6F800E7B15B1
:100718007F6F7F0E7C15806F7D517E117F11801158
:10072800D8A499EF03F09BEF03F0A3EF03F0000EBA
:10073800796F000E7A6F000E7B6F000E7C6F78AFBA
:10074800A8EF03F0AAEF03F0B3EF03F0756D761F7F
:10075800D8B0762B771FD8B0772B800E78577CAF20
:10076800B8EF03F0BAEF03F0C3EF03F0796D7A1F27
:10077800D8B07A2B7B1FD8B07B2B800E7C57000E0D
:10078800751B000E761B000E771B800E781B000E63
:10079800791B000E7A1B000E7B1B800E7C1B795187
:1007A800755D7A5176597B5177597C517859D8B013
:1007B800E0EF03F0E2EF03F0E5EF03F0D890E6EFA7
:1007C80003F0D880120000016A6F3FEF04F066C0A2
:1007D8001FF067C020F0DC0E216EFE0E226E07ECC3
:1007E8001AF065EF04F066C01FF067C020F0230E12
:1007F800216EFF0E226E07EC1AF065EF04F066C05A
:100808001FF067C020F0E80E216EFE0E226E07EC86
:100818001AF065EF04F066C01FF067C020F0040E00
:10082800216EFD0E226E07EC1AF065EF04F066C02B
:100838001FF067C020F02E0E216EFF0E226E07EC0F
:100848001AF065EF04F066C01FF067C020F03F0E95
:10085800216EFE0E226E07EC1AF065EF04F066C0FA
:100868001FF067C020F05A0E216EFF0E226E07ECB3
:100878001AF065EF04F000016A51686F696B6951FD
:10088800000AD8B44AEF04F033EF04F06851000AC4
:10089800D8B4EBEF03F0010AD8B4F7EF03F0030A7A
:1008A800D8B403EF04F0010AD8B40FEF04F0070A34
:1008B800D8B41BEF04F0010AD8B427EF04F033EFE3
:1008C80004F0000E120017C466F018C467F019C4CB
:1008D80068F01AC469F01FC066F020C067F021C034
:1008E80068F022C069F066C060F067C061F068C057
:1008F80062F069C063F0180E88EF04F00001D89028
:100908006333623361336033E82E82EF04F0605161
:10091800646F656B64516511D8A495EF04F097EF87
:1009280004F0B7EF04F0D8906635606F6735616FF3
:100938006835626F6935636F6051611162116311C7
:10094800D8A4A9EF04F0ABEF04F0B1EF04F0000E67
:10095800206E020E1F6EE6EF04F0000E206E030EEE
:100968001F6EE6EF04F064296511D8A4BEEF04F009
:10097800C0EF04F0E2EF04F066C060F067C061F019
:1009880068C062F069C063F0090ED89060376137BB
:1009980062376337E82EC9EF04F0605161116211C4
:1009A8006311D8B4DAEF04F0DDEF04F0010EDEEFE6
:1009B80004F0000E1F6E206AE6EF04F0000E206EB1
:1009C800040E1F6E120060C066F061C067F062C05E
:1009D80068F063C069F000016407D8A0650764295E
:1009E80006E16529D8A4FBEF04F0FDEF04F00AEF57
:1009F80005F0000E616F000E606F62EF05F0664B48
:100A0800672B684B692B6407D8A0650766C0F6FF9B
:100A180067C0F7FF000EF86E0800F5500009D8B45B
:100A280018EF05F01AEF05F04CEF05F068C0F6FF77
:100A380069C0F7FF000EF86E0800F5500009D8B439
:100A480028EF05F02AEF05F04CEF05F06451651129
:100A5800D8B431EF05F033EF05F04CEF05F066C080
:100A6800F6FF67C0F7FF000EF86E0800F5CF1FF01D
:100A780068C0F6FF69C0F7FF000EF86E0800F55071
:100A88001F18D8B44AEF05F04CEF05F003EF05F056
:100A980066C0F6FF67C0F7FF000EF86E0800F5CFD6
:100AA8001FF068C0F6FF69C0F7FF000EF86E080077
:100AB800F5501F5C606F616BD8A0610712003FC1E1
:100AC80034F140C135F1200E0101366F4A0E376FFF
:100AD800010E386F17EC1BF00101456F4551D8A482
:100AE80078EF05F07AEF05F0DBEF05F04A514B118E
:100AF800D8A481EF05F083EF05F0A6EF05F020EE0E
:100B080015F03F51D9264051DA22DECF46F1DECF2B
:100B180047F1DECF48F1DECF49F141C1D9FF42C1EB
:100B2800DAFF46C1DEFF47C1DEFF48C1DEFF49C12B
:100B3800DEFF20EE12F03F51D9264051DA22DF6A5B
:100B4800DBEF05F04AC143F14BC144F1D89043377C
:100B58004437D89043374437D8904337443743C154
:100B680046F144C147F1486B496B41C1D9FF42C1C5
:100B7800DAFF46C1DEFF47C1DEFF48C1DEFF49C1DB
:100B8800DEFF20EE15F03F51D9264051DA2246C14A
:100B9800DEFF47C1DEFF48C1DEFF49C1DEFF20EEB0
:100BA80012F03F51D9264051DA22010EDF6E45512D
:100BB800120001FF0101000001FF000109000110FE
:100BC800000111000124010125FF01750001FF0149
:100BD800014E2C01480001302001FF0001300901BD
:100BE80054000131040132030140830146250160AC
:100BF80000012700015006015100015296015608D4
:100C080001573001610001620001640001650001C3
:100C180066A001FF010122320147140149FF014A80
:100C28000001FF00017A0A017B0001782101FF0120
:100C38000123340142000144FF0145260146050114
:100C48004040010E0601201A01434001FF00013413
:100C58000301354401FF01013104014B09014C0531
:100C6800014D0401FF00014400014520014708012E
:100C780048280167000170040171010172FE0176C4
:100C88000001770001FF01010D0101FF0001800152
:100C98000101F801FF01018E0101000101FF0001BE
:050CA8008000000000C7
:100CAE00F30E1F6EEB0E206E000E216E28EC21F05F
:100CBE005CC128F15DC129F1000E01012A6F000E01
:100CCE002B6F9AEC1BF05CC128F15DC129F1FF0E70
:100CDE0001012A6F010E2B6F9AEC1BF05CC128F1FB
:100CEE005DC129F1000E01012A6F000E2B6F9AECE7
:100CFE001BF05CC128F15DC129F1910E01012A6F33
:100D0E00000E2B6F9AEC1BF05CC128F15DC129F12E
:100D1E00000E01012A6F010E2B6F9AEC1BF05CC1C5
:100D2E0028F15DC129F1FF0E01012A6F000E2B6F14
:100D3E009AEC1BF001015E6F5E51D8A4A9EF06F08C
:100D4E00ABEF06F0B3EF06F021EE4EF05C51D92674
:100D5E005D51DA22030EDF6E5E51D8A4B9EF06F0B4
:100D6E00BBEF06F0C5EF06F05CC14DF15DC14EF173
:100D7E00000E4F6F8DECEBF001015E6FA30E1F6E38
:100D8E00EE0E206E5EC121F028EC21F001015E51C5
:100D9E00120078C068F079C069F07EC06AF048EC45
:100DAE0015F068C083F069C084F06AC085F06BC02E
:100DBE0086F0F40E00018325686F010E8421696FA1
:100DCE00000E85216A6F000E86216B6FE80E6C6F28
:100DDE00030E6D6F000E6E6F000E6F6F57EC12F0FC
:100DEE0068C08BF069C08CF06AC08DF06BC08EF05D
:100DFE008BC07FF08CC080F08DC081F08EC082F0F1
:100E0E000001D8908233813380337F337AC060F013
:100E1E007BC061F07CC062F07DC063F0E80E646F51
:100E2E00030E656F000E666F000E676FD2EC18F042
:100E3E0000017F516025686F80516121696F81517A
:100E4E0062216A6F825163216B6F8BC06CF08CC014
:100E5E006DF08DC06EF08EC06FF057EC12F068C062
:100E6E0087F069C088F06AC089F06BC08AF087C0CD
:100E7E0078F088C079F089C07AF08AC07BF01200D1
:100E8E000101436F27C11BF1480E01011C6F010EBA
:100E9E001D6F040E1E6F000E1F6F000E206F000ED2
:100EAE00216F435132EC1EF01BC144F11CC145F1C0
:100EBE001DC146F11EC147F14AC12BF101012C6B38
:100ECE002D6B2E6B2DC12EF12CC12DF12BC12CF1C2
:100EDE002B6B49C12FF1306B316B326B30C132F15C
:100EEE002FC131F1306B2F6B48C133F1346B356B41
:100EFE00366B33C136F1356B346B336B2F51332573
:100F0E00376F30513421386F31513521396F3251AD
:100F1E0036213A6F2B5137253B6F2C5138213C6FC0
:100F2E002D5139213D6F2E513A213E6F4B513B25AC
:100F3E003F6F000E3C21406F000E3D21416F000EB1
:100F4E003E21426F28C1D9FF29C1DAFF3FC1DEFF22
:100F5E0040C1DEFF41C1DEFF42C1DEFF44C127F1C9
:100F6E0045C128F146C129F147C12AF112006CC0D2
:100F7E00D9FF6DC0DAFFDE6ADE6ADE6ADD6A68C03E
:100F8E001FF069C020F07B0E216E000E226EF1EC78
:100F9E001FF000017A6F7A51D8A4D8EF07F0DAEF7C
:100FAE0007F032EF08F07B51D8B4E0EF07F0E2EF34
:100FBE0007F032EF08F020EE15F06851D92669518E
:100FCE00DA22DECF76F0DECF77F0DECF78F0DECF2E
:100FDE0079F020EE14F06A51D9266B51DA22DECF69
:100FEE006EF0DDCF6FF06EC060F06FC061F0626BBF
:100FFE00636B76C064F077C065F078C066F079C038
:10100E0067F0D2EC18F060C072F061C073F062C08D
:10101E0074F063C075F0800E000172256E6F000EC5
:10102E0073216F6F000E7421706F000E7521716F3A
:10103E006FC06EF070C06FF071C070F0716B6CC0ED
:10104E00D9FF6DC0DAFF6EC0DEFF6FC0DEFF70C06D
:10105E00DEFF71C0DEFF7A511200070E0101486FEC
:10106E004769100E4A6F000E496F3FC134F140C1FF
:10107E0035F1280E366F4C0E376F010E386F17ECA8
:10108E001BF001014B6F4B51D8A450EF08F052EFFB
:10109E0008F0A5EF08F0FF0E4C154C6F0F0E4D1516
:1010AE004D6F080E4D5DD8A05FEF08F061EF08F0B0
:1010BE0085EF08F0000E4C251F6EF00E4D21206EB0
:1010CE00000E226EFA0E216EA2EC1FF01FC043F12D
:1010DE0020C044F1000E010144BFFF0E456F466F64
:1010EE0041C1D9FF42C1DAFF43C1DEFF44C1DEFF79
:1010FE0045C1DEFF46C1DEFFA5EF08F04CC11FF073
:10110E004DC120F0000E226EFA0E216EA2EC1FF0E1
:10111E001FC043F120C044F1000E010144BFFF0E79
:10112E00456F466F41C1D9FF42C1DAFF43C1DEFFB1
:10113E0044C1DEFF45C1DEFF46C1DEFF4B5112004A
:10114E00BA0EF66E0B0EF76E000EF86E08EE00F08D
:10115E0010EEF3F00900F5CFEEFFE550E150FAE1A5
:10116E00940EF66E3F0EF76E000EF86E05EEBBF0A7
:10117E0010EE27F00900F5CFEEFFE550E150FAE151
:10118E004A0EF66E420EF76E000EF86E0900F5CF9F
:10119E003EF00900F5CF3FF00900F5CF40F00AEE22
:1011AE0000F013EEB3F0EE6AE550E150FCE1E250D0
:1011BE00FAE109EE00F011EE00F0EE6AE550E150B2
:1011CE00FCE1E250FAE107EE00F0800EEE6AE8066E
:1011DE00FDE106EE00F0F20EEE6AE806FDE105EE28
:1011EE0000F0BB0EEE6AE806FDE104EE00F0830EA1
:1011FE00EE6AE806FDE10301DC6BDB6B02EEF6F056
:10120E000A0EEE6AE806FDE10101FF6B00EE23F027
:10121E001B0EEE6AE806FDE1419041920001ADEF32
:10122E0000F00F013FB91EEF09F020EF09F018EFA3
:10123E0009F03F813F833ACF60F000016051DAEC54
:10124E0020F021C0D9FF22C0DAFFDF6E0F013B5123
:10125E003A513F0B0001606F20EE02F02150D9266B
:10126E002250DA226051DAEC20F0DF6E0F013B5192
:10127E001F0B0001606F20EE01F02150D926225085
:10128E00DA226051DAEC20F0DF6E0F013A513F0B9B
:10129E000001606F20EE04F02150D9262250DA2290
:1012AE006051DAEC20F0DF6E0F013B51070B0001AD
:1012BE00606F20EE03F02150D9262250DA226051C1
:1012CE00DAEC20F0DF6E0F013A517F0B0001606FF8
:1012DE0020EE06F02150D9262250DA226051DAECA7
:1012EE0020F0DF6E0F013B517F0B0001606F20EE8F
:1012FE0005F02150D9262250DA226051DAEC20F086
:10130E00DF6E1200000E01014F6F710E1F6EEB0E9D
:10131E00206E000E216E28EC21F0000E01014B6FA5
:10132E00000E4C6F000E4D6F000E4E6F49C13EF118
:10133E004AC13FF14F0E406F010E416F62EC0AF051
:10134E000101506F4F05D8B4AFEF09F0B1EF09F0BE
:10135E00DCEF09F05051D8B4B7EF09F0B9EF09F04E
:10136E00BBEF09F0DCEF09F0010E4B254B6F000EC1
:10137E004C214C6F000E4D214D6F000E4E214E6FC5
:10138E0049C162F04AC163F0F6EC20F001014E5102
:10139E004D110BE1D00E4B5D070E4C59D8A0DAEF74
:1013AE0009F0DCEF09F09DEF09F04E514D110BE104
:1013BE00D00E4B5D070E4C59D8A0E8EF09F0EAEFBE
:1013CE0009F0ECEF09F0F90E506F0C0E1F6EEE0ED9
:1013DE00206E50C121F028EC21F001015051120075
:1013EE00000E0101676F540E1F6EE30E206E000E8D
:1013FE00216E28EC21F0010121EE4CF06051D9262E
:10140E006151DA22DF50676F60C155F161C156F14B
:10141E0062C157F163C158F166C159F1000E5A6F9E
:10142E00AFECFAF00101686F6851D8A421EF0AF011
:10143E0023EF0AF033EF0AF060C155F161C156F1A6
:10144E0064C157F165C158F166C159F1000E5A6F6A
:10145E00A6ECFCF00101686F6851D8A439EF0AF0D0
:10146E003BEF0AF057EF0AF060C128F161C129F194
:10147E00010E2A6F67C12BF19AEC1BF00101686F08
:10148E006851D8A44DEF0AF04FEF0AF057EF0AF06B
:10149E0021EE4CF06051D9266151DA2267C1DFFF8F
:1014AE00080E1F6EE50E206E68C121F028EC21F0AB
:1014BE00010168511200F40E1F6EE30E206E000E35
:1014CE00216E28EC21F0010120EEFDF03E51D926CF
:1014DE003F51DA22DF50426F040E4219D8A47AEF40
:1014EE000AF07CEF0AF0A3EF0AF03EC133F13FC1E0
:1014FE0034F1430E356F010E366F04EC15F0010119
:10150E00486F040E4319441145114611D8A492EFA9
:10151E000AF094EF0AF09CEF0AF040C1D9FF41C1E6
:10152E00DAFF010EDF6EC2EF0AF040C1D9FF41C1F2
:10153E00DAFFDF6AC2EF0AF03EC128F13FC129F19E
:10154E00140E2A6F470E2B6F010E2C6FEBEC1AF058
:10155E000101486F4851D8A4B7EF0AF0B9EF0AF06D
:10156E00C2EF0AF047A1BEEF0AF0C0EF0AF09CEFFF
:10157E000AF094EF0AF07A0E1F6EE50E206E48C147
:10158E0021F028EC21F0010148511200000E00015B
:10159E00696F000E686F0A0E676F16EF0BF0230E61
:1015AE000001626F040E636F68C01FF069C020F007
:1015BE00000E226E0B0E216EA2EC1FF0010E1F26E6
:1015CE00000E20224D0E1F240001646FDC0E202021
:1015DE00656FCFEC16F0000162516311D8A4FAEFDB
:1015EE000AF0FCEF0AF014EF0BF068C01FF069C0B0
:1015FE0020F0000E226E0B0E216EA2EC1FF04D0E8F
:10160E001F24F66EDC0E2020F76EF86A000EF8220C
:10161E000800F5CF67F033EF0BF0684B692B68C00D
:10162E001FF069C020F0000E226E0B0E216EA2EC90
:10163E001FF04D0E1F24F66EDC0E2020F76EF86A9A
:10164E00000EF8220800F5500A0AD8A431EF0BF06C
:10165E0033EF0BF0D6EF0AF000016751120057C1BD
:10166E0034F158C135F1F80E0101366F5F0E376F48
:10167E00010E386F17EC1BF00101616F6151D8A498
:10168E004BEF0BF04DEF0BF05BEF0BF057C14CF146
:10169E0058C14DF1040E4E6F5B0E4F6F010E506F21
:1016AE0043EC1BF00101616F6151D8A461EF0BF0A7
:1016BE0063EF0BF09DEF0BF05F516011D8B46AEF42
:1016CE000BF06CEF0BF08AEF0BF05BC168F05CC1B6
:1016DE0069F05DC16AF05EC16BF05FC16CF060C114
:1016EE006DF000016E6B6F6B57EC12F059C1D9FFA4
:1016FE005AC1DAFF000168C0DEFF69C0DEFF6AC0B2
:10170E00DEFF6BC0DEFF59C1D9FF5AC1DAFF0101FE
:10171E0010EE0EF05751E1265851E222DECFE6FFD1
:10172E00DECFE6FFDECFE6FFDECFE6FF6151120031
:10173E00000E00016A6F000E696F62C0D9FF63C0B0
:10174E00DAFFDECFF6FFDDCFF7FF000EF86E0800F2
:10175E00F5502A0AD8A4B6EF0BF0B8EF0BF0EDEF68
:10176E000BF062C0D9FF63C0DAFFDE2A000EDD2265
:10177E0064C0D9FF65C0DAFFDFCF66F0020EDE2649
:10178E00DFCF67F0000EDD2266C0D9FF67C0DAFF3B
:10179E00DECF69F0DDCF6AF003EF0CF069C01FF009
:1017AE006AC020F0000E226E0A0E216EA2EC1FF00F
:1017BE00000168511F24696F000E20206A6F62C0FD
:1017CE00D9FF63C0DAFFDE2A000EDD2262C0D9FF28
:1017DE0063C0DAFFDECFF6FFDDCFF7FF000EF86E47
:1017EE000800F550D00F686F090E686501EF0CF018
:1017FE0003EF0CF0D5EF0BF069C062F06AC063F036
:10180E00120078C068F079C069F07CC06AF048ECCC
:10181E0015F068C07DF069C07EF06AC07FF06BC0C5
:10182E0080F0F40E00017D25686F010E7E21696F38
:10183E00000E7F216A6F000E80216B6FE80E6C6FB9
:10184E00030E6D6F000E6E6F000E6F6F57EC12F081
:10185E0068C081F069C082F06AC083F06BC084F00A
:10186E007AC060F07BC061F00001626B636B81C077
:10187E0064F082C065F083C066F084C067F0D2EC7D
:10188E0018F0F40E00016025686F010E6121696F7A
:10189E00000E62216A6F000E63216B6FE80E6C6F93
:1018AE00030E6D6F000E6E6F000E6F6F57EC12F021
:1018BE0068C085F069C086F06AC087F06BC088F09A
:1018CE0085C078F086C079F087C07AF088C07BF04A
:1018DE0012000001FC6F0001FC51D8A479EF0CF04E
:1018EE007BEF0CF083EF0CF0DD0EE76FFF0EE86F71
:1018FE008EEC1FF0D7EF0CF0000EFB6FB6EF0CF076
:10190E00D50EE76FE20EE86FFB511E0DF3CF00F11F
:10191E00F4CF01F1FC51030DF3CF02F1F4CF03F13B
:10192E00FD0E01010225046FFF0E0321056FBB0E94
:10193E000425F66ED80E0521F76EF86A000EF82211
:10194E0000510900F5240001E96F01010151090060
:10195E00F5200001EA6F8EEC1FF00001FB2BFC510D
:10196E00030DF3CF00F1F4CF01F1FF0E01010025BD
:10197E00026FFF0E0121036FBB0E0225F66ED80E0D
:10198E000321F76EF86A000EF8220900F5500001E7
:10199E00FB5DD8A0D5EF0CF0D7EF0CF087EF0CF075
:1019AE001200000162516311D8B4E0EF0CF0E2EFC7
:1019BE000CF0EBEF0CF062516311D8A4E9EF0CF0D0
:1019CE00EBEF0CF0F0EF0CF06051CFEC20F03DEFB0
:1019DE000DF020EE0AF06251D9266351DA22DE5064
:1019EE00DE10D8B4FDEF0CF0FFEF0CF01AEF0DF097
:1019FE0020EE0AF06251D9266351DA2210EE03F07E
:101A0E006251E1266351E222DE50E65CE650800A26
:101A1E00686FDE50800A6859D8B018EF0DF01AEFD3
:101A2E000DF03DEF0DF020EE03F06251D92663511B
:101A3E00DA22DECF64F0DDCF65F062C0D9FF63C07D
:101A4E00DAFFDECF66F0DDCF67F064516625D96E22
:101A5E0065516721DA6E60C0DFFF20EE03F0625140
:101A6E00D9266351DA22DE2A000EDD221200000E84
:101A7E0001013F6F000E406F000E416F000E426F6E
:101A8E00000E436F000E446F000E456F000E466F42
:101A9E003DC133F13EC134F13F0E356F010E366F4D
:101AAE0053ECF9F00101476F3F51401141114211C2
:101ABE00D8B464EF0DF066EF0DF091EF0DF04751D5
:101ACE00D8B46CEF0DF06EEF0DF070EF0DF091EFEE
:101ADE000DF0010E4325436F000E4421446F000E9E
:101AEE004521456F000E4621466F3DC162F03EC155
:101AFE0063F0F6EC20F00101465145110BE1D00EDA
:101B0E00435D070E4459D8A08FEF0DF091EF0DF005
:101B1E004FEF0DF0465145110BE1D00E435D070E10
:101B2E004459D8A09DEF0DF09FEF0DF0A1EF0DF0F1
:101B3E00F90E476F47511200000E216E64C0D9FF97
:101B4E0065C0DAFFDF6AE4EF0DF063390F0B010BAE
:101B5E0064C0D9FF65C0DAFFDF6E06EF0EF06339A1
:101B6E00E8461F0B010B64C0D9FF65C0DAFFDF6EBC
:101B7E0006EF0EF06341E8423F0B010B64C0D9FF44
:101B8E0065C0DAFFDF6E06EF0EF06345E846030B25
:101B9E00010B64C0D9FF65C0DAFFDF6E06EF0EF0F1
:101BAE006345010B64C0D9FF65C0DAFFDF6E06EF37
:101BBE000EF0FC0E216E06EF0EF0000162511F6E4C
:101BCE00206A2050000AD8B4EFEF0DF0E0EF0DF0D0
:101BDE001F50000AD8B4ACEF0DF0010AD8B4B6EF1E
:101BEE000DF0030AD8B4C1EF0DF0010AD8B4CCEF52
:101BFE000DF0070AD8B4D7EF0DF0E0EF0DF021503D
:101C0E001200000E0001656F000E646F000E676F0C
:101C1E00000E666F1F50201021102210D8B41AEF3C
:101C2E000EF01CEF0EF067EF0EF0FF0E1F24686F24
:101C3E00FF0E2020696FFF0E21206A6FFF0E2220FB
:101C4E006B6F41EF0EF068C060F069C061F06AC062
:101C5E0062F06BC063F0D8906333623361336033EC
:101C6E0060C068F061C069F062C06AF063C06BF07A
:101C7E00664B672B000E6815606FFF0E6915616F5E
:101C8E00FF0E6A15626FFF0E6B15636F6051611167
:101C9E0062116311D8A456EF0EF058EF0EF02AEF32
:101CAE000EF0FF0E6815606F000E6915616F6651BC
:101CBE00636F626B60516225646F61516321656F62
:101CCE0064C01FF065C020F01200000E0001856F89
:101CDE007BC068F07CC069F07DC06AF07EC06BF09E
:101CEE00080E6C6F000E6D6F000E6E6F000E6F6F34
:101CFE0057EC12F068C086F069C087F06AC088F0B1
:101D0E006BC089F07BC060F07CC061F07DC062F07A
:101D1E007EC063F0080E0001646F000E656F000E4A
:101D2E00666F000E676FBFEC14F060C081F061C08B
:101D3E0082F062C083F063C084F000017751865D4B
:101D4E0078518759795188597A518959D8A0B2EF6B
:101D5E000EF0B4EF0EF0B8EF0EF0CE0E856FCDEFA5
:101D6E000EF081C07FF0010E806F7F2BC1EF0EF061
:101D7E00D89080377F2FBFEF0EF00001865175256A
:101D8E00D96E87517621DA6E8051DF12855112009D
:101D9E00000E0001616F22BED9EF0EF0D7EF0EF0EC
:101DAE00DFEF0EF0216C221ED8B0222A010E616FD9
:101DBE0020BEE6EF0EF0E4EF0EF0ECEF0EF01F6C2F
:101DCE00201ED8B0202A010E611B000E636F000E7C
:101DDE00626F21502210D8B4F7EF0EF0F9EF0EF02B
:101DEE0021EF0FF0010E606F01EF0FF0D89021364A
:101DFE002236602B22AE06EF0FF008EF0FF0FDEF4C
:101E0E000EF0D8906237633721501F5C2250205855
:101E1E00D8A014EF0FF016EF0FF01BEF0FF02150BC
:101E2E001F5E2250205A6281D89022322132602FBA
:101E3E0008EF0FF06151D8B427EF0FF029EF0FF034
:101E4E002DEF0FF0626D631FD8B0632B62C01FF0D1
:101E5E0063C020F012000E0E1F6EE90E206E000EF3
:101E6E00216E27EC21F0000E01013A6F33C128F1EB
:101E7E0034C129F10B0E2A6F010E2B6F9AEC1BF059
:101E8E0001013C6F33C128F134C129F10B0E2A6FC9
:101E9E00000E2B6F9AEC1BF001013C1333C128F19D
:101EAE0034C129F1130E2A6F3B0E2B6F010E2C6FCE
:101EBE00EBEC1AF001013C133A2B3BC139F1070E42
:101ECE003917D8B46DEF0FF06FEF0FF07FEF0FF003
:101EDE00030E3A6175EF0FF077EF0FF07FEF0FF013
:101EEE003C51D8B47DEF0FF07FEF0FF03DEF0FF0C8
:101EFE00020E3A6585EF0FF087EF0FF089EF0FF0C6
:101F0E00F40E3C6FCC0E1F6EEA0E206E3CC121F01B
:101F1E0027EC21F001013C511200A4C157F1A5C1DB
:101F2E0058F1020E0101596F68EC87F00101AD6F97
:101F3E00CE0E1F6EEF0E206EADC121F028EC21F0FB
:101F4E000101AD51D8A4AEEF0FF0B0EF0FF0F1EFED
:101F5E000FF021EE0FF0A451D926A551DA22DF5051
:101F6E00AC6FAC51D8A4BEEF0FF0C0EF0FF0D3EFB3
:101F7E000FF0A6C1D9FFA7C1DAFFDF6A400EA82570
:101F8E001F6E000EA921206EFD0E216EFF0E226E19
:101F9E0007EC1AF0F1EF0FF021EE10F0A451D92654
:101FAE00A551DA22A6C1E1FFA7C1E2FFDFCFE7FF0D
:101FBE00110EA425AA6F010EA521AB6F400EA82508
:101FCE001F6E000EA921206EAAC121F0ABC122F016
:101FDE0007EC1AF00101AD5112001FC0D9FF20C04D
:101FEE00DAFFDECF60F0DDCF61F027502810D8A4E5
:101FFE0003EF10F005EF10F009EF10F0B00E276EA2
:10200E000E0E286E0001615107E1060E605DD8B01C
:10201E0013EF10F015EF10F019EF10F0000E616FC6
:10202E00060E606F6051275C626F61512858636FB6
:10203E00B30E216E0D0E226E2150625D2250635939
:10204E00D8A02CEF10F02EEF10F039EF10F0275033
:10205E00625D28506359D8A037EF10F039EF10F0B9
:10206E0044EF10F0000E0301DC6F0C0EDB6F000E60
:10207E001F6E000E206E4CEF10F062C027F063C092
:10208E0028F027C01FF028C020F012000101066FB3
:10209E00000E0101076F000E206E640E1F6E54ECD1
:1020AE0016F01FC008F120C009F186EF10F008C12C
:1020BE0062F009C163F012EC16F000016251631177
:1020CE00D8A46CEF10F06EEF10F086EF10F0960EB5
:1020DE000101006FF80E016F73CF02F172CF03F1A1
:1020EE0071CF04F1000E056F000E64EC18F0030EB4
:1020FE000401686F010E0101076F9DEF10F0735020
:10210E00010106150009D8A48FEF10F091EF10F021
:10211E005EEF10F071CFFCF01F0E0001FC17D8A47B
:10212E009BEF10F09DEF10F05EEF10F008C162F023
:10213E0009C163F0C9ECFFF0010107511200000E56
:10214E000001616F20BEB0EF10F0AEEF10F0B6EFF1
:10215E0010F01F6C201ED8B0202A010E616F22BE17
:10216E00BDEF10F0BBEF10F0C1EF10F0216C221E8E
:10217E00D8B0222A21502210D8B4C8EF10F0CAEFDE
:10218E0010F0EEEF10F0010E606FD2EF10F0D8905D
:10219E0021362236602B22AED7EF10F0D9EF10F099
:1021AE00CEEF10F021501F5C22502058D8A0E2EF45
:1021BE0010F0E4EF10F0E8EF10F021501F5E225007
:1021CE00205AD89022322132602FD9EF10F061516F
:1021DE00D8B4F4EF10F0F6EF10F0FAEF10F01F6C29
:1021EE00201ED8B0202A1FC01FF020C020F01200E1
:1021FE0031A004EF11F006EF11F010EF11F06FC0E7
:10220E0069F070C06AF06DC06BF06EC06CF08CEC53
:10221E001DF0000172BF16EF11F018EF11F01EEF56
:10222E0011F071C076F072C077F022EF11F0000E4F
:10223E00776F000E766F000E756F000E746F35EFB0
:10224E0011F0000E616F200E606F6DC062F06EC0F7
:10225E0063F0D8EC0CF00001744B752B7651745D65
:10226E007551800A736F7751800A7359D8A042EF67
:10227E0011F044EF11F028EF11F031B049EF11F0E9
:10228E004BEF11F055EF11F06FC069F070C06AF0AE
:10229E006DC06BF06EC06CF08CEC1DF01200000E79
:1022AE000101BE6F480EB36F0C0EB46FB70EB56F53
:1022BE00010EB66F000EAE6F010EAD6F030E000174
:1022CE00E76FE30EE86F8EEC1FF0010121EE6AF06E
:1022DE00B351D926B451DA22520EDF6EB5C11FF0BA
:1022EE00B6C120F0DAEC1CF00101AF6F000EAFBFEB
:1022FE00FF0EB06FB16FB26FAF51B011B111B2111D
:10230E00D8B48CEF11F08EEF11F090EF11F0EC0EBF
:10231E00BE6FBE51D8A496EF11F098EF11F0ABEF4F
:10232E0011F0040E0001E76FF20EE86F8EEC1FF055
:10233E00480E0101AB6F0C0EAC6FE1ECAFF001017A
:10234E00BE6FBE5170EC1EF01200000E0001601543
:10235E001F6E000E6115206E800E6215216E7F0EAF
:10236E006315226E1F50201021102210D8A4C2EF28
:10237E0011F0C4EF11F0CCEF11F0000E606F000EF3
:10238E00616F000E626F000E636F000E64151F6E9C
:10239E00000E6515206E800E6615216E7F0E671578
:1023AE00226E1F50201021102210D8A4E1EF11F040
:1023BE00E3EF11F0EBEF11F0000E646F000E656F9E
:1023CE00000E666F000E676F645160190FE1655164
:1023DE0061190CE16651621909E167516319D8B4AC
:1023EE00FBEF11F0FDEF11F000EF12F0D89001EFBE
:1023FE0012F0D8801200000E0101326F21EE6AF049
:10240E002851D9262951DA22DF50316F2AC11BF10A
:10241E00330E1C6F010E1D6F31518DEC1CF01BC164
:10242E002DF11CC12EF11DC12FF11EC130F1010184
:10243E002D512E112F113011D8B428EF12F02AEF92
:10244E0012F02CEF12F0EC0E326F3251D8A432EFA4
:10245E0012F034EF12F055EF12F033512B152C1100
:10246E00336F2AC11BF133C11CF1315166EC1CF0E4
:10247E001BC12DF11CC12EF11DC12FF11EC130F15A
:10248E0001012D512E112F113011D8B451EF12F030
:10249E0053EF12F055EF12F0EC0E326F3251120074
:1024AE00000E0001706F000E716F000E726F000E45
:1024BE00736F6C516D116E116F11D8B469EF12F00C
:1024CE006BEF12F0A1EF12F0010E746F75EF12F0B8
:1024DE00D8906C376D376E376F37742B6FAF7AEFCE
:1024EE0012F07CEF12F06FEF12F0D8907037713758
:1024FE00723773376C51685D6D5169596E516A59F7
:10250E006F516B59D8A08EEF12F090EF12F099EF39
:10251E0012F06C51685F6D51695B6E516A5B6F5161
:10252E006B5B7081D8906F336E336D336C33742F59
:10253E007CEF12F070C068F071C069F072C06AF082
:10254E0073C06BF012003FC134F140C135F10E0E75
:10255E000101366F4B0E376F010E386F17EC1BF003
:10256E0001014A6FFF0E4B15466F0F0E4C15476F4C
:10257E00486B496B42C1D9FF43C1DAFF46C1DEFF4A
:10258E0047C1DEFF48C1DEFF49C1DEFF4A51D8A474
:10259E00D3EF12F0D5EF12F0F7EF12F03FC134F196
:1025AE0040C135F10C0E366F4B0E376F010E386F82
:1025BE0017EC1BF001014A6FFF0E4B15466F0F0E05
:1025CE004C15476F486B496B44C1D9FF45C1DAFFC3
:1025DE0046C1DEFF47C1DEFF48C1DEFF49C1DEFF57
:1025EE004A5112001FEF13F033C128F134C129F103
:1025FE00500E2A6F3B0E2B6F010E2C6FEBEC1AF068
:10260E0001013A6F35EF13F033C128F134C129F1CE
:10261E00700E2A6F3B0E2B6F010E2C6FEBEC1AF027
:10262E0001013A6F35EF13F0FC0E3A6F35EF13F0F0
:10263E0001013551386F396B3951000AD8B42AEF80
:10264E0013F01BEF13F03851000AD8B4FBEF12F061
:10265E00010AD8B40BEF13F01BEF13F03A51D8A4C4
:10266E003BEF13F03DEF13F045EF13F03B51FEEC53
:10267E0020F036C1D9FF37C1DAFFDF6E01013A51C2
:10268E00120068C11FF069C120F06A0E216E010EA2
:10269E00226E78EC20F001016B6F6B51D8A45AEFCB
:1026AE0013F05CEF13F06CEF13F06A51D8A462EFE5
:1026BE0013F064EF13F06CEF13F068C15CF169C1B5
:1026CE005DF1ECECDDF001016B6F6B51D8A472EF94
:1026DE0013F074EF13F07CEF13F068C149F169C188
:1026EE004AF196EC13F001016B6F6B51D8A482EF97
:1026FE0013F084EF13F094EF13F06A51D8A48AEF1D
:10270E0013F08CEF13F094EF13F021EE4EF06851AE
:10271E00D9266951DA22030EDF6E6B511200000EBC
:10272E000101506F000E4B6F000E4C6F000E4D6F7F
:10273E00000E4E6F49C13EF14AC13FF1500E0101EC
:10274E00406F010E416F62EC0AF001014F6F4F5165
:10275E00D8B4B4EF13F0B6EF13F0B8EF13F0E2EF16
:10276E0013F05005D8A4BEEF13F0C0EF13F0C2EF74
:10277E0013F0E2EF13F0010E4B27000E4C234D2306
:10278E004E234E514D110BE1D00E4B5D070E4C59A1
:10279E00D8A0D4EF13F0D6EF13F0DAEF13F0F90E52
:1027AE004F6FE2EF13F049C162F04AC163F0F6ECED
:1027BE0020F0A1EF13F04F51120051C128F152C178
:1027CE0029F1000E01012A6F535101092B6F9AEC6A
:1027DE001BF00101546F5451D8A4F8EF13F0FAEF27
:1027EE0013F002EF14F051C149F152C14AF196ECC7
:1027FE0013F00101546F5451D8A408EF14F00AEFEE
:10280E0014F01AEF14F051C133F152C134F1000E2D
:10281E00356F000E366F000E376F000E386F32ECCC
:10282E000FF00101546F5451D8A420EF14F022EF91
:10283E0014F02EEF14F051C128F152C129F1000EFF
:10284E002A6F000E2B6F9AEC1BF00101546F54513E
:10285E00120033C128F134C129F1010E01012A6F92
:10286E00380E2B6F010E2C6FEBEC1AF00101376F47
:10287E003751D8A445EF14F047EF14F063EF14F07E
:10288E0021EE4CF03351D9263451DA2238C1DFFF14
:10289E0038AF54EF14F056EF14F05EEF14F035C16C
:1028AE00D9FF36C1DAFF010EDF6E63EF14F035C1CA
:1028BE00D9FF36C1DAFFDF6A3751D8A469EF14F0B9
:1028CE006BEF14F077EF14F035C1D9FF36C1DAFF94
:1028DE0010EE79F03351E1263451E222DFCFE7FFDB
:1028EE0037511200000E226EC10E1F6EEE0E206EBC
:1028FE00000E216E28EC21F093EF14F020EE08F07C
:10290E006051D9266151DA2262C0DFFFB5EF14F0B3
:10291E00F80E226EB5EF14F000016251636F646B16
:10292E006451000AD8B49EEF14F08FEF14F0635187
:10293E00000AD8B485EF14F0010AD8B485EF14F06C
:10294E00020AD8B485EF14F0170AD8B485EF14F044
:10295E00010AD8B485EF14F08FEF14F0EF0E1F6E4E
:10296E00F00E206E22C021F028EC21F02250120031
:10297E0000016451651166116711D8B4C9EF14F0E6
:10298E00CBEF14F0FBEF14F0010E1F6ED5EF14F029
:10299E00D89064376537663767371F2A67AFDAEF27
:1029AE0014F0DCEF14F0CFEF14F06451605D65515C
:1029BE0061596651625967516359D8A0E9EF14F015
:1029CE00EBEF14F0F3EF14F06451605F6551615B4F
:1029DE006651625B6751635BD890673366336533CC
:1029EE0064331F2EDCEF14F060C060F061C061F044
:1029FE0062C062F063C063F01200E10E1F6EE40E5F
:102A0E00206E000E216E28EC21F033C128F134C166
:102A1E0029F1130E01012A6F3D0E2B6F010E2C6F43
:102A2E00EBEC1AF001013C6F3DC137F1070E371781
:102A3E0037C138F1396B3A6B3B6B35C1D9FF36C1B3
:102A4E00DAFF38C1DEFF39C1DEFF3AC1DEFF3BC11E
:102A5E00DEFF3DC137F1180E3717D8B439EF15F038
:102A6E003BEF15F03DEF15F0FA0E3C6FA80E1F6E02
:102A7E00E60E206E3CC121F028EC21F001013C5104
:102A8E001200000E00016C6F090E6D6F000E6E6F5E
:102A9E00000E6F6F6A51606F616B626B636B000E3D
:102AAE00646F090E656F000E666F000E676FD2ECD5
:102ABE0018F060C074F061C075F062C076F063C04B
:102ACE0077F074C060F075C061F076C062F077C0C8
:102ADE0063F0770E0001646F060E656F000E666F71
:102AEE00000E676FD2EC18F060C070F061C071F02C
:102AFE0062C072F063C073F070C068F071C069F0AC
:102B0E0072C06AF073C06BF01200000E0101356FD7
:102B1E002F512E112D1109E1400E2C5DD8A09AEFE8
:102B2E0015F09CEF15F09EEF15F0FC0E356F21EEB3
:102B3E006AF02751D9262851DA22DF50346F29C185
:102B4E001BF12AC11CF12BC11DF12CC11EF12DC18F
:102B5E001FF12EC120F12FC121F1345113EC1EF0C3
:102B6E001BC130F11CC131F11DC132F11EC133F157
:102B7E0001013051311132113311D8B4C9EF15F0B2
:102B8E00CBEF15F0CDEF15F0EC0E356F3551120081
:102B9E00000E0101356F2F512E112D1109E1400E3E
:102BAE002C5DD8A0DDEF15F0DFEF15F0E1EF15F09D
:102BBE00FC0E356F21EE6AF02751D9262851DA2204
:102BCE00DF50346F29C11BF12AC11CF12BC11DF13D
:102BDE002CC11EF12DC11FF12EC120F12FC121F1EB
:102BEE00345132EC1EF01BC130F11CC131F11DC14C
:102BFE0032F11EC133F10101305131113211331155
:102C0E00D8B40CEF16F00EEF16F010EF16F0EC0E27
:102C1E00356F3551120000016569666963BF23EF98
:102C2E0016F0635107E1030E625DD8B021EF16F086
:102C3E0023EF16F04FEF16F062C01FF063C020F0C6
:102C4E00000E226E030E216EA2EC1FF00A0E1F2440
:102C5E00D96E040E2020DA6EDE04D8A439EF16F0F9
:102C6E003BEF16F04FEF16F062C01FF063C020F07E
:102C7E00000E226E030E216EA2EC1FF00B0E1F240F
:102C8E00D96E040E2020DA6EDECF65F0DDCF66F051
:102C9E0065C062F066C063F0120000016069616990
:102CAE00000E626F6251030D0A0EF324D96E040EEC
:102CBE00F420DA6EDF50D8A467EF16F069EF16F045
:102CCE0084EF16F06251030D0A0EF324D96E040E32
:102CDE00F420DA6E010EDF6E6251030D0B0EF3243B
:102CEE00D96E040EF420DA6E1FC0DEFF20C0DDFFA9
:102CFE0062C060F0616B8DEF16F0622B020E6265A2
:102D0E008BEF16F08DEF16F059EF16F060C01FF036
:102D1E0061C020F01200010E00016A6F1FC060F04A
:102D2E0020C061F021C062F022C063F0070EA5EF53
:102D3E0016F0D8906333623361336033E82EA0EF20
:102D4E0016F060C066F061C067F062C068F063C0E4
:102D5E0069F0BB0E606F050E616FD8906635D96E47
:102D6E006735DA6ED890D936DA366051D926615188
:102D7E00DA22DE50DE10DE10DE10D8A4C9EF16F017
:102D8E00CBEF16F0CDEF16F0000E6A6F6A511200FF
:102D9E00D5EF16F0624B632B644B652B62C0D9FFE7
:102DAE0063C0DAFFDF500001666F64C0F6FF65C0D6
:102DBE00F7FF000EF86E0800F5506619D8A4EAEF7A
:102DCE0016F0ECEF16F0F8EF16F062C0D9FF63C004
:102DDE00DAFFDF50D8A4F6EF16F0F8EF16F0D1EFC9
:102DEE0016F062C0D9FF63C0DAFFDF50666F64C0B1
:102DFE00F6FF65C0F7FF000EF86E0800F550665D31
:102E0E00626F636BD8A0630712000001FB6F09C4E9
:102E1E00FCF00001FD6B0A0EFC19FD11D8A41AEF8F
:102E2E0017F01CEF17F020EF17F0000EFD6F000EDD
:102E3E00FC6FB40EE76FFC0EE86F04C4E9F0EA6BAA
:102E4E0005C4EBF0EC6B06C4EDF0EE6B07C4EFF0CF
:102E5E0008C4F0F0FCC0F1F0FDC0F2F08EEC1FF0F3
:102E6E000001FB05D8A43EEF17F040EF17F046EF38
:102E7E0017F0A80EE76FEA0EE86F8EEC1FF0120047
:102E8E00000E0001686F000E676F64516511D8B4B3
:102E9E0053EF17F055EF17F07DEF17F0010E666F39
:102EAE005DEF17F0D89064376537662B65AF62EF2C
:102EBE0017F064EF17F059EF17F0D89067376837AF
:102ECE006451625D65516359D8A070EF17F072EFCF
:102EDE0017F077EF17F06451625F6551635B67819E
:102EEE00D89065336433662F64EF17F067C062F0D5
:102EFE0068C063F01200A80E0001E76FEA0EE86FDB
:102F0E008EEC1FF0E00E0001E76FFA0EE86F8EEC0C
:102F1E001FF0930E0001E76FEC0EE86F8EEC1FF0C2
:102F2E00B30E0001E76FEC0EE86F8EEC1FF0D30EC0
:102F3E000001E76FEC0EE86F8EEC1FF0F30E000150
:102F4E00E76FEC0EE86F8EEC1FF0890E0001E76F55
:102F5E00EA0EE86F8EEC1FF0DD0E0001E76FFF0E3C
:102F6E00E86F8EEC1FF01200000120EE0CF07E5187
:102F7E00D9267F51DA2280C0E1FF81C0E2FFDECF89
:102F8E00E6FFDECFE6FFDECFE6FFDECFE6FF7CC05C
:102F9E0068F07DC069F07EC06AF07FC06BF0830E72
:102FAE006C6F000E6D6FBEEC07F00001826F8251E8
:102FBE00D8A4E4EF17F0E6EF17F0F2EF17F080C0A9
:102FCE00D9FF81C0DAFF8351DE268451DE2285517E
:102FDE00DE228651DE228251120001012D6F27C1A1
:102FEE001BF1320E01011C6F010E1D6F020E1E6FC2
:102FFE00000E1F6F000E206F000E216F2D5132EC50
:10300E001EF01BC12EF11CC12FF11DC130F11EC1CE
:10301E0031F10101335132C12BF12C6B2BC12CF14B
:10302E002B6B2B27000E2C2328C1D9FF29C1DAFFC9
:10303E002BC1DEFF2CC1DDFF2EC127F12FC128F1E0
:10304E0030C129F131C12AF11200000E036E035076
:10305E00030D0A0EF324D96E040EF420DA6EDE048C
:10306E00D8A43CEF18F03EEF18F05AEF18F00350CA
:10307E00030D0B0EF324D96E040EF420DA6EDE501F
:10308E00DE10D8B44DEF18F04FEF18F05AEF18F0DD
:10309E000350030D0B0EF324D96E040EF420DA6EDA
:1030AE00DE06000EDD5A032A020E036461EF18F0ED
:1030BE0063EF18F02EEF18F012000001FB6F10EC0A
:1030CE0021F0020AD8A46EEF18F070EF18F08AEF14
:1030DE0018F0B00E0001E76FE20EE86FFBC0E9F0EA
:1030EE00EA6B02C1EBF0EC6B03C1EDF0EE6B04C1C9
:1030FE00EFF0F06B05C1F1F0F26B00C1F3F001C11E
:10310E00F4F08EEC1FF000C162F001C163F002C159
:10311E0064F003C165F004C166F005C167F00001FB
:10312E00FB515CECDFF012000401092B0A0E09655D
:10313E00A3EF18F0A5EF18F0D1EF18F0000E096FFD
:10314E00074B082BE90E075D030E0859D8A0B2EF06
:10315E0018F0B4EF18F0D1EF18F0000E086F000E53
:10316E00076F062B3C0E0665BFEF18F0C1EF18F087
:10317E00D1EF18F0000E066F052B3C0E0565CAEF59
:10318E0018F0CCEF18F0D1EF18F0000E056F042BED
:10319E00D1EF18F01200000E1F6E000E206E000E02
:1031AE00216E000E226E000160A1E0EF18F0E2EF3A
:1031BE0018F0EAEF18F064511F266551202266516F
:1031CE00212267512222D8906437653766376737D8
:1031DE00D890633362336133603360516111621191
:1031EE006311D8A4FDEF18F0FFEF18F0DAEF18F026
:1031FE001FC060F020C061F021C062F022C063F0F9
:10320E001200230E1F6EEA0E206E000E216E28ECA9
:10321E0021F033C128F134C129F1090E01012A6FC1
:10322E0035C12BF136C12CF1EBEC1AF00101376FE1
:10323E003751D8A425EF19F027EF19F032EF19F016
:10324E0035C1D9FF36C1DAFFDF50010B35C1D9FFC9
:10325E0036C1DAFFDF6ED30E1F6EEB0E206E37C156
:10326E0021F028EC21F001013751120022BE4CEF63
:10327E0019F022502110201006E11F04D8B04AEF99
:10328E0019F04CEF19F068EF19F01FC060F020C074
:10329E0061F021C062F022C063F00001601F611F67
:1032AE00621F631F602B000E61236223632360C0C5
:1032BE001FF061C020F062C021F063C022F070EFF9
:1032CE0019F01FC01FF020C020F021C021F022C035
:1032DE0022F0120021502210D8B478EF19F07AEFB4
:1032EE0019F09FEF19F0010E0001606F83EF19F0D6
:1032FE00D89021362236602B22AE88EF19F08AEF55
:10330E0019F07FEF19F021501F5C22502058D8A0E1
:10331E0093EF19F095EF19F099EF19F021501F5E08
:10332E002250205AD89022322132602F8AEF19F083
:10333E001FC01FF020C020F012000001FB6FC70E4F
:10334E000001E76FFD0EE86FFBC0E9F0EA6B8EEC53
:10335E001FF0000E726E000E206E010E1F6E8EECB0
:10336E001EF095809582800E736E280E726E00018F
:10337E00FB51D8A4C5EF19F0C7EF19F0CBEF19F038
:10338E00770E746ECEEF19F01D0E746E739EF28C66
:10339E00F28EA49EA49CA58EA58CF18E1200000E1A
:1033AE0001011B6F880E0E6F1B0E0F6F010E106F3B
:1033BE00010E116F520E08ECC2F0F80E01010E6FE5
:1033CE001B0E0F6F010E106F020E116F520ECAEC14
:1033DE00B2F0E80E0001E76FDD0EE86F1BC1E9F0F9
:1033EE00EA6B1CC1EBF0EC6B1DC1EDF0EE6B1EC178
:1033FE00EFF0F06B1FC1F1F0F26B8EEC1FF01200CC
:10340E0021C062F022C063F01FC064F020C065F0DE
:10341E0000016251606F6351616F624B632B60C03C
:10342E00F6FF61C0F7FF000EF86E64C0D9FF65C0ED
:10343E00DAFF644B652B0F0EF76403D00800F550CE
:10344E0005D0F6CFE9FFF7CFEAFFEF50DF6EDF5082
:10345E00D8A434EF1AF036EF1AF00FEF1AF012006C
:10346E001FC060F020C061F061C060F00001616BB0
:10347E00FF0E1F14626F636B646B656B602B4DEFF9
:10348E001AF0D8906237633764376537602F48EF8C
:10349E001AF0010E6225666F000E6321676F000E33
:1034AE006421686F000E6521696F66C01FF067C0EA
:1034BE0020F068C021F069C022F01200550EA76EF0
:1034CE00AA0EA76E0E01BF91160EF76F060ED76FDE
:1034DE00550EA76EAA0EA76EBF81959C958A000EFB
:1034EE00A86EA88AA894000E9C6E9C8E9C88000ED6
:1034FE007C6E7C96600E1F6E000E206E79EC1FF0B7
:10350E0061C07DFF62C0ABFF000160B102D0A89424
:10351E0001D0A8841200000E226E0001635109E151
:10352E00060E625DD8A09EEF1AF0A0EF1AF0A9EF7A
:10353E001AF0FC0E226E64C0D9FF65C0DAFFDF6A96
:10354E00BDEF1AF0625160251F6E63516121206E2E
:10355E001D0E1F24D96E000E2020DA6EDF50216E54
:10356E0064C0D9FF65C0DAFF21C0DFFF2250120010
:10357E00000E0101306F21EE6AF02651D926275137
:10358E00DA22DF502F6F28C11BF129C11CF12AC18D
:10359E001DF12F5169EC1DF01BC12BF11CC12CF13B
:1035AE001DC12DF11EC12EF101012B512C112D111A
:1035BE002E11D8B4E5EF1AF0E7EF1AF0E9EF1AF092
:1035CE00EC0E306F30511200000E0101326F21EE01
:1035DE006AF02851D9262951DA22DF50316F2AC1DB
:1035EE001BF12BC11CF12CC11DF131518DEC1CF0C6
:1035FE001BC12DF11CC12EF11DC12FF11EC130F1C9
:10360E0001012D512E112F113011D8B411EF1BF0D5
:10361E0013EF1BF015EF1BF0EC0E326F3251120050
:10362E00000E01013E6F21EE6AF03451D92635515C
:10363E00DA22DF503D6F36C127F137C128F138C18C
:10364E0029F13D51F4EC17F027C139F128C13AF1B7
:10365E0029C13BF12AC13CF1010139513A113B110B
:10366E003C11D8B43DEF1BF03FEF1BF041EF1BF0C8
:10367E00EC0E3E6F3E511200000E0101566F21EE10
:10368E006AF04C51D9264D51DA22DF50556F4EC19A
:10369E0027F14FC128F150C129F1555147EC07F0E0
:1036AE0027C151F128C152F129C153F12AC154F158
:1036BE0001015151521153115411D8B469EF1BF03D
:1036CE006BEF1BF06DEF1BF0EC0E566F56511200A8
:1036DE00E1C0E5F0E2C0E6F084EF1BF0DFC0CCF015
:1036EE00E0C0CDF0E50E0001CE6F000ECF6FE3C04F
:1036FE00D0F0E4C0D1F088ECB5F0E5C0F6FFE6C03E
:10370E00F7FF000EF86E0800F5500009D8A492EFEE
:10371E001BF094EF1BF075EF1BF0000E0001E06F35
:10372E00000EDF6F1200000E0101316F21EE6AF004
:10373E002851D9262951DA22DF50306F2AC11BF1C8
:10374E002BC11CF1305166EC1CF01BC12CF11CC1BD
:10375E002DF11DC12EF11EC12FF101012C512D1184
:10376E002E112F11D8B4BEEF1BF0C0EF1BF0C2EF1D
:10377E001BF0EC0E316F31511200230E0001E76F7A
:10378E00FC0EE86F8EEC1FF0949C948E8994000EC4
:10379E00AD6EAD8AAD94000EAC6EAC8EAC88000EE4
:1037AE007E6E7E96FB0E1F6E000E206E79EC1FF065
:1037BE00FCC07FFFFDC0B0FF0001FBB102D0AD9495
:1037CE0001D0AD849E9A9F8A9D8A120062C069F0D4
:1037DE0063C06AF060C067F061C068F007EF1CF06C
:1037EE0069C0D9FF6AC0DAFFDF50666F694B6A2B7A
:1037FE0067C0D9FF68C0DAFF66C0DFFF674B682B72
:10380E0000016407D8A06507642906E16529D8A4DC
:10381E0013EF1CF015EF1CF0F7EF1BF01200EB0E80
:10382E000001ED6F000EEE6FE7C0EFF0E8C0F0F0B4
:10383E00000EF36F000EF26F000EFA6F000EF96FAE
:10384E00EF0EDF6F000EE06FE9C0E1F0EAC0E2F0CC
:10385E00ED0EE36F000EE46F6FEC1BF00001F25102
:10386E00E725D96EF351E821DA6EDF6A12001FC028
:10387E0021F020C022F046EF1CF01F4A202A1FC064
:10388E00F6FF20C0F7FF000EF86E0F0EF76403D0A0
:10389E000800F55005D0F6CFE9FFF7CFEAFFEF505D
:1038AE000009D8A45DEF1CF05FEF1CF044EF1CF094
:1038BE0021501F5C1F6E22502058206E12000101F5
:1038CE00236F010E01011F6F000E206F000E216F7E
:1038DE00000E226F1BC10EF11C0E0F6F010E106F2A
:1038EE00010E116F235108ECC2F00EC124F10FC16D
:1038FE0025F110C126F111C127F124C11BF125C1FB
:10390E001CF126C11DF127C11EF112000101236F0A
:10391E00010E01011F6F000E206F000E216F000EB1
:10392E00226F1BC10EF11CC10FF11DC110F1010E52
:10393E00116F2351CAECB2F00EC124F10FC125F163
:10394E0010C126F111C127F124C11BF125C11CF1B3
:10395E0026C11DF127C11EF11200C60E1F6EE50E07
:10396E00206E000E216E27EC21F069C160F16AC154
:10397E0061F16BC162F16CC163F16DC164F16EC135
:10398E0065F1010E0101666FF7EC09F001016F6F31
:10399E00A90E1F6EE70E206E6FC121F027EC21F0ED
:1039AE0001016F51120020EE04F01F50D926205055
:1039BE00DA22010EDF6E20EE05F01F50D9262050C0
:1039CE00DA22DF6A20EE06F01F50D9262050DA22C6
:1039DE00040EDF6E1FC0D9FF20C0DAFF600EDE6E50
:1039EE00130EDE6E000EDE6E000EDD6E000E120089
:1039FE00000E0001791B000E7A1B000E7B1B800E41
:103A0E007C1B75C060F076C061F077C062F078C044
:103A1E0063F079C064F07AC065F07BC066F07CC05C
:103A2E0067F051ECBDF060C075F061C076F062C019
:103A3E0077F063C078F01200D40E1F6EDE0E206E8B
:103A4E00000E216E28EC21F09BC15FF19CC160F14C
:103A5E009DC161F19EC162F19FC163F1A0C164F18C
:103A6E00F9ECCBF00101A16F0B0E1F6EDF0E206E75
:103A7E00A1C121F028EC21F00101A1511200DA0EB2
:103A8E001F6EE20E206E000E216E28EC21F041C357
:103A9E00F0F242C3F1F243C3F2F244C3F3F245C370
:103AAE00F4F246C3F5F283EC9DF00101FE6FBA0EFF
:103ABE001F6EE40E206EFEC121F028EC21F00101F4
:103ACE00FE51120001011F6F01011D51246F1CC117
:103ADE0025F11BC10EF1240E0F6F010E106F020E99
:103AEE00116F1F5108ECC2F00EC120F10FC121F170
:103AFE0010C122F111C123F120C11BF121C11CF112
:103B0E0022C11DF123C11EF11200000E226E000E05
:103B1E00216E9DEF1DF020C060F0616B6BC062F0F6
:103B2E006CC063F0D8EC0CF0214A222A215000011F
:103B3E006925D96E22506A21DA6EDF50206E205030
:103B4E00D8A4ACEF1DF0AEEF1DF092EF1DF01200F9
:103B5E00000120EE18F0FB51D926FC51DA22DF507D
:103B6E000101206F000E00016B6F010E6C6F0101E1
:103B7E002051B9EC20F07D0E0001E76FF40EE86FD6
:103B8E0020C1E9F0EA6B000EEB6F010EEC6F8EECCC
:103B9E001FF01200CD0E1F6EE70E206E000E216E6E
:103BAE0028EC21F03CC133F13DC134F13EC135F179
:103BBE003FC136F140C137F1F9EC12F00101416F0E
:103BCE00DF0E1F6EE90E206E41C121F028EC21F0B0
:103BDE00010141511200000176BF00EF1EF0765137
:103BEE0006E17505D8B0FEEF1DF000EF1EF00EEFEA
:103BFE001EF075C077F076C078F0771F781F774B80
:103C0E00782B77C075F078C076F012EF1EF075C085
:103C1E0075F076C076F012000101226F1BC10EF115
:103C2E001CC10FF11DC110F11EC111F10101225174
:103C3E0008ECC2F00EC123F10FC124F110C125F121
:103C4E0011C126F123C11BF124C11CF125C11DF1A7
:103C5E0026C11EF112000101226F1BC10EF11CC103
:103C6E000FF11DC110F11EC111F101012251CAEC5B
:103C7E00B2F00EC123F10FC124F110C125F111C113
:103C8E0026F123C11BF124C11CF125C11DF126C152
:103C9E001EF11200000E1F6E1F50030D0A0EF324AC
:103CAE00D96E040EF420DA6EDF6A1F50030D0B0E70
:103CBE00F324D96E040EF420DA6EDE6ADD6A1F2A52
:103CCE00020E1F646DEF1EF06FEF1EF053EF1EF02D
:103CDE0012000101206F000E00016B6F010E6C6F60
:103CEE0001012051C4EC20F04C0E0001E76FF60EDE
:103CFE00E86F010120510001E96FEA6BE9BFEA07A5
:103D0E00000EEB6F010EEC6F8EEC1FF01200000E2A
:103D1E000001616F000E606FA0EF1EF09C0E216E11
:103D2E00D70EE82EFED7212EFCD700F00001604BF7
:103D3E00612B1F50605D20506159D8A0A9EF1EF075
:103D4E00ABEF1EF095EF1EF012000201FC4BFD2BA7
:103D5E003F063F50D8A4B6EF1EF0B8EF1EF0BCEFF2
:103D6E001EF00A0E3F6E010E3A6E40064050D8A469
:103D7E00C3EF1EF0C5EF1EF0C9EF1EF0640E406ECD
:103D8E00010E396E120000016F6F00016F51D8B431
:103D9E00D3EF1EF0D5EF1EF0E4EF1EF0A70E626F0C
:103DAE00FF0E636F000E646F000E656F000E666F80
:103DBE00000E676F050E5CECDFF06FC03CF012007A
:103DCE001F50201021102210D8B4F0EF1EF0F2EF89
:103DDE001EF0FAEF1EF0000E1F1A000E201A000E33
:103DEE00211A800E221A1FC01FF020C020F021C001
:103DFE0021F022C022F0120036C127F137C128F17E
:103E0E00B00E0101296F38C12AF139C12BF1060E0E
:103E1E002C6F000E2D6F000E2E6F000E2F6F8CEC80
:103E2E0015F001013A6F3A51120036C127F137C130
:103E3E0028F1B00E0101296F38C12AF139C12BF1D9
:103E4E00060E2C6F000E2D6F000E2E6F000E2F6FB4
:103E5E00CFEC15F001013A6F3A5112000101FF0744
:103E6E00000E3524D96EDA6A070EDA22DF501F6E85
:103E7E00352A800E356446EF1FF048EF1FF04AEFEB
:103E8E001FF0000E356E1F501200016E000E36240C
:103E9E00D96EDA6A070EDA2201C0DFFF0101FF2BAD
:103EAE00362A800E36645EEF1FF060EF1FF062EF71
:103EBE001FF0000E366E1200E00E1F24216EFF0E54
:103ECE002020226E22500AE15F0E215CD8A072EFF4
:103EDE001FF075EF1FF0010E76EF1FF0000E1F6E34
:103EEE00206A12001FC0D9FF20C0DAFFDF6A20EE61
:103EFE0001F01F50D9262050DA22DF6A20EE02F0A0
:103F0E001F50D9262050DA220C0EDF6E1200E90E59
:103F1E000001F96F000EFA6F000EDF6F000EE06FFA
:103F2E00E7C0E1F0E8C0E2F0F90EE36F000EE46FD7
:103F3E006FEC1BF012001F502102F3CF60F0F4CF94
:103F4E0061F01F502202F350000161272050210220
:103F5E00F350612760C01FF061C020F012009A0E6E
:103F6E00076EFB0E086E73CF09F072CF0AF071CF99
:103F7E000BF0000E0C6E000EC5ECE0F0A39EA39CA1
:103F8E00010E386E12000A0000000500000000004D
:103F9E000000050000003031323334353637383901
:0D3FAE00616263646566286E756C6C2900A5
:103FBC0001500302F3CF05F0F4CF06F001500402D8
:103FCC00F350062602500302F350062605C001F0FA
:103FDC0006C002F0120020EE12F01F50D92620501D
:103FEC00DA22DF500001606F21C0D9FF22C0DAFF56
:103FFC0060C0DFFF000E1200A4BA07EF20F009EF3B
:10400C0020F00FEF20F0000E206E000E1F6E12EF4E
:10401C0020F0AACF1FF0206A120004011F512011BA
:10402C00D8B41BEF20F01DEF20F022EF20F01F077B
:10403C00D8A02007D6EC19F01200000ECD6ECD9C46
:10404C00CD9ECD88CD9ACD82CD80150ECF6EA00E93
:10405C00CE6E9E909D801200000E0401046F000E27
:10406C00056F000E066F000E086F000E076F000E36
:10407C00096F1200B5C1AEF1B6C1AFF1B7C1B0F165
:10408C00B8C1B1F126ECF7F00101B96FB9511200CA
:10409C00BEC1A2F1BFC1A3F1C0C1A4F1C1C1A5F1C0
:1040AC00BDECA5F00101C26FC25112004EC13FF12F
:1040BC004FC140F150C141F151C142F134EC08F013
:1040CC000101526F5251120097C15DF198C15EF11E
:1040DC0099C15FF19AC160F1D9ECD7F001019B6FE6
:1040EC009B51120020EE08F01F50D9262050DA22E6
:1040FC0021C0E1FF22C0E2FFDFCFE7FF000E12007C
:10410C00000EE8CF44FC000EE8CF45FC000EE8CFD3
:10411C0046FC000EE8CF47FC12003904D8A499EFF6
:10412C0020F09BEF20F09EEF20F0010E9FEF20F08F
:10413C00000E12003A04D8A4A6EF20F0A8EF20F04D
:10414C00ABEF20F0010EACEF20F0000E1200000ED1
:10415C00D56ED58ED59CD586FB0ED76E600ED66EE1
:10416C00F294F28A120000016D6F6BC066F06CC0A5
:10417C0067F000016D51E7EC03F0120000016D6F68
:10418C006BC066F06CC067F000016D517CECE3F025
:10419C0012001F6EA8A2D5EF20F0D7EF20F0D0EFC1
:1041AC0020F01FC0A9FF1200206E20C01FF00F0EC0
:1041BC001F1620380F0B0A0DF3501F241200206E0F
:1041CC0020C01FF0D8901F321F04216E2150120006
:1041DC00280E0001E76FF70EE86F8EEC1FF012004F
:1041EC00000E206E010E1F6E8EEC1EF0000E1200E3
:1041FC001F6E1F50020DF350020F206E2050120044
:10420C0007C41FF008C420F0120007C401F008C452
:10421C0002F0120004012251120004010951120093
:10422C00040106511200000E396E1200000E3A6E97
:10423C001200040109511200040106511200010A76
:01424C00640D
:0A424E00120012001200120012000C
:10D87600000101000B0102000B0201000C02020074
:10D886000C03010108030201080101000B0102005B
:10D896000B0401000C0402000C050000004D534768
:10D8A600454E4400005245532D53540000434F4DFE
:10D8B6002D5354000077DA09C6DC0401FF0001800D
:10D8C6000101FF0101000001FF01014F0201FF0EEE
:10D8D60001000301018401020A0103030104080196
:10D8E60005C801060301078D0108080109C6010ADA
:10D8F60001010B02010C00010DD5010E18010F12DA
:10D906000110010111820112000113D50114180141
:10D91600151301160301178601180A011909011AC0
:10D9260008011BC2011C03011D8F011E0A011F06EF
:10D936000120010121020122000123D50124180141
:10D9460025220126010127820128000129D5012A65
:10D9560018012B0B012C28012D78012E28012F915F
:10D9660001300001310B01320001330B013400019B
:10D9760035A10136000137A0013800013904013A0A
:10D9860028013B30013C0C013D04013E0F013F796B
:10D9960001402801411E01422F0143870144000135
:10D9A600450B01460001470B0148000149A7014A02
:10D9B60000014BA6014C00014D04014E01014F0030
:10D9C600015000015180015209015308015401011F
:10D9D600550001560F015779015809015905015A99
:10D9E60000015B60015C05015DD1015E0C015F3CDD
:10D9F6000160000161D001620B016303016428012B
:10DA0600651001662A01673901680B016902016A1E
:10DA160028016B10016C2A016D61016E0C016F000B
:10DA260001700F01717901720001730B017400011D
:10DA3600750B0176000177A10178000179A0017AC2
:10DA460000017B0401FF0401791D017B2701960E6D
:10DA56000197FE0198030199EF019A02019B440187
:10DA6600730701700101FF0101000101FF000000C1
:10DA7600000D0A564C3533204D454E5545000000E5
:10DA86000000000000000000000000000000002070
:10DA9600312E564C35335F494E4954000000000084
:10DAA6000000000000000000000000000020322EF0
:10DAB600434F4E5449494F55532052414E47494EC4
:10DAC600470000000000000000000020332E5349EC
:10DAD6004E474C452052414E47494E4700000000F4
:10DAE60000000000000000000020342E53494E477D
:10DAF6004C452052414E47494E47204841000000C0
:10DB06000000000000000020352E53494E474C45CA
:10DB16002052414E47494E4720485300000000001E
:10DB2600000000000020362E53494E474C45205237
:10DB3600414E47494E47204C52000000000000006D
:10DB460000000020372E564C353320446174612086
:10DB5600444953504C4159000000000000000000A9
:10DB66000020722E455849540000000000000000B5
:10DB7600000000000000000000000000000000534C
:10DB86005441525400000000000000000000000054
:10DB9600000000574954455F414444524553535F82
:10DBA60054580000000000524541445F414444522D
:10DBB6004553535F54580000000000494E444558F1
:10DBC6005F54580000000000000000000000004400
:10DBD6004154415F5458000000000000000000005E
:10DBE60000000053544F50000000000000000000E9
:10DBF6000000000000000053555350454E440000FD
:10DC0600000000000000000000000052455354418F
:10DC16005254000000000000000000000000005206
:10DC26004541440000000000000000000000000024
:10DC3600000000454E440000000000000000000007
:10DC46000000000000000000727463000000000085
:10DC560000000172656700000000000000026932E2
:10DC6600630000000000000003766C3533000000FE
:10DC76000000000470623200000000000000056C25
:10DC86006F6700000000000000066C6F676F666635
:10DC960000000000076C6F676F6E00000000000850
:10DCA6006C6F67636C72000000000972733438355C
:10DCB60000000000000A6E6F6E65000000000000A4
:10DCC6000D0A5253343835204D454E554500000057
:10DCD60000000000000000000000000000002031ED
:10DCE6002E5258204D4F4445000000000000000011
:10DCF60000000000000000000000000020322E544A
:10DD060058204D4F44450000000000000000000070
:10DD16000000000000000000000020722E45584957
:10DD26005400000000000000000000000000000099
:10DD36000000000000000000564C35334C305820DF
:10DD46004150492056657273696F6E204572726F35
:10DD5600723A20596F7572206669726D77617265C5
:10DD6600206861732025642E25642E256420287280
:10DD760065766973696F6E202564292E205468695B
:10DD860073206578616D706C652072657175697256
:10DD960065732025642E25642E25642E0A002069CD
:10DDA60032635F77726974654D756C746928416476
:10DDB600643D307825782C496E64783D3078257836
:10DDC6002C436E743D25642C44743D307825782CA4
:10DDD600307825782C307825782C30782578290DE0
:10DDE6000A006473745B305D3D307825782C64736B
:10DDF600745B315D3D307825782C6473745B325DDD
:10DE06003D307825782C6473745B335D3D3078251E
:10DE1600782C6473745B345D3D307825780D0A0088
:10DE2600564C35334C30585F7365745F6D6561735E
:10DE36007572656D656E745F74696D696E675F6234
:10DE460075646765745F6D6963726F5F7365636F31
:10DE56006E64732829535441525400206932635F1B
:10DE660077726974654D756C7469284164643D30D8
:10DE76007825782C496E64783D307825782C436E69
:10DE8600743D25642C44743D307825782C307825F3
:10DE960078290D0A00564C35334C30585F7365743B
:10DEA6005F6D6561737572656D656E745F74696DBE
:10DEB600696E675F6275646765745F6D6963726FCB
:10DEC6005F7365636F6E64732829454E4400564C34
:10DED60035334C30585F5365744D656173757265A3
:10DEE6006D656E7454696D696E67427564676574B5
:10DEF6004D6963726F5365636F6E6473282920538F
:10DF06005441525400564C35334C30585F53657467
:10DF16004D6561737572656D656E7454696D696E74
:10DF2600674275646765744D6963726F5365636FA5
:10DF36006E6473282920454E4400206932635F775A
:10DF4600726974654D756C7469284164643D3078F6
:10DF560025782C496E64783D307825782C436E748C
:10DF66003D25642C44743D30782578290D0A00201F
:10DF760050494520202020203D2030782530327819
:10DF86002C203078253032782C20307825303278A5
:10DF96002C203078253032782C2030782530327895
:10DFA6000D0A002050495220202020203D203078A4
:10DFB600253032782C203078253032782C20307875
:10DFC600253032782C203078253032782C20307865
:10DFD600253032780D0A002049505220202020207A
:10DFE6003D203078253032782C2030782530327834
:10DFF6002C203078253032782C2030782530327835
:10E006002C203078253032780D0A0043616C6C2064
:10E016006F6620564C35334C30585F506572666FCC
:10E02600726D53696E676C6552616E67696E674D96
:10E036006561737572656D656E740D0A0020204DFD
:10E046006561737572656D656E7454696D696E6729
:10E056004275646765744D6963726F5365636F6E6D
:10E066006473203D20307825750D0A00564C3533F3
:10E076004C30585F436865636B416E644C6F6164F6
:10E08600496E7465727275707453657474696E67DF
:10E0960073282920535441525400506172743250EF
:10E0A6006172744F666673657441646A7573746DE4
:10E0B600656E744E564D4D6963726F4D657465722B
:10E0C600203D2025640D0A00202050726F64756380
:10E0D6007449645B564C35334C30585F4D41585F3C
:10E0E600535452494E475F4C454E4754485D203D78
:10E0F6002025730D0A002020496E7465724D6561F6
:10E10600737572656D656E74506572696F644D697D
:10E116006C6C695365636F6E6473203D203078259F
:10E12600750D0A004572726F7220657870656374AA
:10E1360065642063757420312E3120627574206603
:10E146006F756E64206375742025642E25640D0A30
:10E1560000564C35334C30585F706572666F726D81
:10E166005F7265665F737061645F6D616E6167653E
:10E176006D656E74282920535441525400564C350F
:10E18600334C30585F436865636B416E644C6F6116
:10E1960064496E7465727275707453657474696ED1
:10E1A6006773282920454E440020205854616C6B23
:10E1B600436F6D70656E736174696F6E52616E67E1
:10E1C600654D696C6C694D65746572203D203078CB
:10E1D60025780D0A00206932635F726561644D75AA
:10E1E6006C7469284164643D307825782C496E64E6
:10E1F600783D307825782C436E743D2564290D0AC8
:10E206000043616C6C206F6620564C35334C305899
:10E216005F506572666F726D526566537061644DCC
:10E22600616E6167656D656E740D0A00564C353317
:10E236004C30585F706572666F726D5F7265665FAF
:10E24600737061645F6D616E6167656D656E74287C
:10E256002920454E4400564C35334C30585F706586
:10E2660072666F726D5F70686173655F63616C691A
:10E2760062726174696F6E282920535441525400AA
:10E28600564C35334C30585F47657452616E67693A
:10E296006E674D6561737572656D656E7444617404
:10E2A60061282920535441525400493D25642C537A
:10E2B6003D253032782C43313D253032782C43329F
:10E2C6003D253032782C42463D25303278202025B7
:10E2D600730D0A00564C35334C30585F50657266E4
:10E2E6006F726D526566537061644D616E616765EC
:10E2F6006D656E74282920535441525400564C358E
:10E30600334C30582050414C20436F6E74696E7503
:10E316006F75732052616E67696E67206578616DEF
:10E32600706C650D0A00564C35334C30585F70657D
:10E3360072666F726D5F70686173655F63616C6949
:10E3460062726174696F6E282920454E4400564CEE
:10E3560035334C30585F706572666F726D5F7265EB
:10E36600665F63616C6962726174696F6E282920E9
:10E37600535441525400564C35334C30585F7065F7
:10E3860072666F726D5F7668765F63616C696272E2
:10E396006174696F6E282920535441525400564CBB
:10E3A60035334C30585F537461746963496E6974D0
:10E3B6003A4F73634672657175656E63794D487A37
:10E3C6003D25750D0A00564C35334C30585F476570
:10E3D6007452616E67696E674D6561737572656DBE
:10E3E600656E7444617461282920454E4400564C7C
:10E3F60035334C30585F4765744D6561737572658A
:10E406006D656E7444617461526561647928292072
:10E4160053544152540043616C6C206F6620564C35
:10E4260035334C30585F506572666F726D52656653
:10E4360043616C6962726174696F6E0D0A00202017
:10E446005854616C6B436F6D70656E736174696F60
:10E456006E526174654D656761437073203D20306F
:10E466007825750D0A0064743D3078253032782C95
:10E4760020636F6D5F737465705F666C673D2564BE
:10E486002C7263766E756D3D25640D0A00564C350B
:10E49600334C30585F44617461496E6974323A4F47
:10E4A60073634672657175656E63794D487A3D256D
:10E4B600750D0A00564C35334C30585F5065726600
:10E4C6006F726D526566537061644D616E6167650A
:10E4D6006D656E74282920454E4400564C35334CE4
:10E4E60030585F476574496E746572727570744D05
:10E4F60061736B53746174757328292053544152A8
:10E506005400564C35334C30585F706572666F72E6
:10E516006D5F7265665F63616C6962726174696F73
:10E526006E282920454E4400564C35334C30585FF2
:10E53600706572666F726D5F7668765F63616C692F
:10E5460062726174696F6E282920454E4400564CEC
:10E5560035334C30585F44617461496E69743A4F83
:10E5660073634672657175656E63794D487A3D25AC
:10E57600750D0A00564C35334C30585F4765744D5F
:10E586006561737572656D656E744461746152651B
:10E59600616479282920454E4400564C35334C3069
:10E5A600585F53657453657175656E63655374651D
:10E5B60070456E61626C652829205354415254009F
:10E5C600564C35334C30585F506572666F726D52DB
:10E5D600656643616C6962726174696F6E28292091
:10E5E600535441525400564C35334C305820415008
:10E5F600492053696D706C652052616E67696E675C
:10E60600206578616D706C650D0A0A0020204669E8
:10E616006E616C52616E676554696D656F75744D98
:10E626006963726F53656373203D20307825750DDD
:10E636000A00202046696E616C52616E67655663FA
:10E6460073656C50756C7365506572696F64203DB7
:10E6560020307825780D0A00564C35334C30585FFB
:10E666006765745F696E666F5F66726F6D5F64651E
:10E6760076696365282920535441525400564C3517
:10E68600334C30585F6C6F61645F74756E696E678A
:10E696005F73657474696E677328292053544152F9
:10E6A6005400564C35334C30585F476574496E7488
:10E6B6006572727570744D61736B537461747573A2
:10E6C600282920454E4400564C35334C30585F4877
:10E6D6006973746F6772616D4D6561737572656D8F
:10E6E600656E74446174615F740D0A00564C35336F
:10E6F6004C30585F44657669636553706563696637
:10E706006963506172616D65746572735F740D0A39
:10E71600002020557365496E7465726E616C547580
:10E726006E696E6753657474696E6773203D203039
:10E736007825780D0A0020202052656164206461E6
:10E746007461203D20307825782C307825782C305F
:10E756007825782C307825780D0A00564C35334CC0
:10E7660030585F7365745F7265666572656E636562
:10E776005F737061647328292053544152540056C4
:10E786004C35334C30585F53657453657175656EFF
:10E79600636553746570456E61626C652829204512
:10E7A6004E4400564C35334C30585F506572666F98
:10E7B600726D52656643616C6962726174696F6EEF
:10E7C600282920454E4400564C35334C30585F4777
:10E7D6006574566373656C50756C736550657269C4
:10E7E6006F64282920535441525400564C35334CFB
:10E7F60030585F5365744C696D6974436865636B23
:10E80600456E61626C65282920535441525400506C
:10E8160061727432506172744F66667365744E56D7
:10E826004D4D6963726F4D65746572203D20256498
:10E836000D0A0020205369676E616C526174654D44
:10E8460065617346697865643430306D6D203D20AE
:10E85600307825750D0A00202050726552616E676A
:10E866006554696D656F75744D6963726F53656341
:10E8760073203D20307825750D0A002020507265E2
:10E8860052616E6765566373656C50756C7365503F
:10E896006572696F64203D20307825780D0A005630
:10E8A6004C35334C30585F6765745F696E666F5FD1
:10E8B60066726F6D5F646576696365282920454ECB
:10E8C6004400564C35334C30585F6C6F61645F744E
:10E8D600756E696E675F73657474696E67732829F0
:10E8E60020454E4400564C35334C30585F536574C2
:10E8F6004C696D6974436865636B56616C75652810
:10E906002920535441525400564C35334C30585FED
:10E91600436C656172496E746572727570744D618F
:10E92600736B282920535441525400564C35334CAE
:10E9360030585F52616E67696E674D6561737572B7
:10E94600656D656E74446174615F740D0A004361A0
:10E956006C6C206F6620564C35334C30585F5374C0
:10E966006172744D6561737572656D656E740D0ABD
:10E976000020205854616C6B436F6D70656E736137
:10E9860074696F6E456E61626C65203D2030782536
:10E99600780D0A0020204C696E65617269747943AE
:10E9A6006F72726563746976654761696E203D2092
:10E9B600307825780D0A00564C35334C30585F7345
:10E9C60065745F7265666572656E63655F737061B7
:10E9D6006473282920454E4400564C35334C305834
:10E9E6005F476574566373656C50756C73655065E7
:10E9F60072696F64282920454E4400564C35334CC5
:10EA060030585F5365744C696D6974436865636B10
:10EA1600456E61626C65282920454E4400564C358A
:10EA2600334C30585F4765744672616374696F6E24
:10EA3600456E61626C652829205354415254004347
:10EA4600616C6C206F6620564C35334C30585F53E2
:10EA5600746F704D6561737572656D656E740D0AC0
:10EA6600002020526561644461746146726F6D4492
:10EA76006576696365446F6E65203D20307825783C
:10EA86000D0A00202A20202020202A202A202020AB
:10EA96002020202A202A2A2A20202A2020202A2034
:10EAA6000D0A0D0A00564C35334C30585F536574C9
:10EAB6004C696D6974436865636B56616C7565284E
:10EAC6002920454E4400564C35334C30585F436C34
:10EAD600656172496E746572727570744D61736B9F
:10EAE600282920454E440020205772617041726FDC
:10EAF600756E64436865636B456E61626C65203D47
:10EB060020307825780D0A00202052616E67654610
:10EB160072616374696F6E616C456E61626C6520CB
:10EB26003D20307825780D0A0020205369676D61F5
:10EB360045737445666650756C7365576964746889
:10EB4600203D20307825780D0A00202050696E304F
:10EB56004770696F46756E6374696F6E616C697430
:10EB660079203D20307825780D0A00576169744D6B
:10EB76006561737572656D656E7444617461526525
:10EB86006164792829205354415254004552524F0A
:10EB96005220285752495445204D41494E29205369
:10EBA6005441545553203D2025640D0A00564C35DA
:10EBB600334C30585F6765745F6465766963655F7B
:10EBC600696E666F282920535441525400564C35BD
:10EBD600334C30585F4765744672616374696F6E73
:10EBE600456E61626C65282920454E4400564C35B9
:10EBF600334C30585F53746F704D65617375726531
:10EC06006D656E74282920535441525400202052B9
:10EC1600616E67654F66667365744D6963726F4DA5
:10EC26006574657273203D2025640D0A0043616C8E
:10EC36006C206F6620564C35334C30585F536574E4
:10EC46004465766963654D6F64650D0A0020205240
:10EC5600616E6765444D61784D696C6C694D65748C
:10EC66006572203D202564206D6D0D0A00455252C7
:10EC76004F52202852454144204D41494E292053A8
:10EC86005441545553203D2025640D0A00202A2066
:10EC9600202020202A202020202A20202020202A50
:10ECA6002A2A20202A2020202A200D0A00202A2075
:10ECB6002A202A202A2020202A202A20202020201C
:10ECC6002A2020202A2A20202A200D0A00202A2055
:10ECD600202A20202A20202A2A2A2A2A20202020E8
:10ECE6002A2020202A202A202A200D0A00202A2035
:10ECF600202020202A20202A202020202A202020F0
:10ED06002A2020202A20202A2A200D0A00533D25C9
:10ED16003032782C43313D253032782C43323D2534
:10ED26003032782C42463D25303278200020204172
:10ED36006D6269656E745261746552746E4D656775
:10ED460061437073203D2025640D0A00202045662E
:10ED5600666563746976655370616452746E436F59
:10ED6600756E74203D2025640D0A0020204D6561D6
:10ED7600737572656D656E7454696D6555736563FB
:10ED8600203D20307825750D0A0020204C617374D3
:10ED9600456E636F64656454696D656F7574202094
:10EDA6003D20307825780D0A002020526566537084
:10EDB600616473496E697469616C69736564203D49
:10EDC60020307825780D0A0020205369676D61454B
:10EDD6007374456666416D625769647468203D20A8
:10EDE600307825780D0A00202052616E67654672DC
:10EDF600616374696F6E616C50617274203D20307E
:10EE06007825780D0A00576169744D6561737572CE
:10EE1600656D656E74446174615265616479282913
:10EE260020454E4400564C35334C30585F67657468
:10EE36005F6465766963655F696E666F282920453C
:10EE46004E44003031302052616E67654D696C6CFE
:10EE5600694D657465722C3D2564282564290D0A63
:10EE6600003031312052616E67654D696C6C694DB9
:10EE7600657465722C3D2564282564290D0A0030C9
:10EE860031322052616E67654D696C6C694D6574EF
:10EE960065722C3D2564282564290D0A00564C35DB
:10EEA600334C30585F53746F704D6561737572657E
:10EEB6006D656E74282920454E4400564C35334CFA
:10EEC60030585F5365744465766963654D6F646554
:10EED600282920535441525400564C35334C30584F
:10EEE6005F5365744770696F436F6E66696728295B
:10EEF600205354415254003030312052616E6765C0
:10EF06004D696C6C694D657465722C3D25642825C8
:10EF160064290D0A003030322052616E67654D69F2
:10EF26006C6C694D657465722C3D256428256429D1
:10EF36000D0A003030332052616E67654D696C6C86
:10EF4600694D657465722C3D2564282564290D0A72
:10EF56000020205369676E616C5261746552746E4D
:10EF66004D656761437073203D2025640D0A0020BE
:10EF7600205265666572656E636553706164436FA2
:10EF8600756E74203D20307825780D0A002A2A2ACD
:10EF9600204F5343494C4C41544F52202A2A2A2A87
:10EFA6002A2A2A2A2A2A2A2A0D0A00564C35334C9E
:10EFB60030585F6465766963655F726561645F7327
:10EFC60074726F6265282900564C35334C30585F91
:10EFD6006765745F696E666F5F66726F6D5F6465A5
:10EFE60076696365005F4765744465766963655055
:10EFF6006172616D6574657273282920535441529C
:10F006005400496E206C6F6F70206D656173757268
:10F01600656D656E742025643A2025640D0A0052DC
:10F02600414E47452049474E4F5245205448524588
:10F0360053484F4C443A2025660D0A00564C35334A
:10F046004C30585F446576696365506172616D65E1
:10F05600746572735F740D0A0043616C6C206F6691
:10F0660020564C35334C30585F537461746963498C
:10F076006E69740D0A0020204C6173745369676EC3
:10F08600616C5265664D637073203D20307825753E
:10F096000D0A0020205265666572656E63655370C1
:10F0A600616454797065203D20307825780D0A001A
:10F0B6002A2A2A20494E54455252555054202A2A6B
:10F0C6002A2A2A2A2A2A2A2A2A2A0D0A004469735F
:10F0D60063617264207265636569766564206D6537
:10F0E6007373616765200D0A00564C35334C3058F2
:10F0F6005F5365744465766963654D6F6465282959
